:100000000C945E000C94560E0C947D0E0C9486009D
:100010000C9486000C9486000C9486000C94860048
:100020000C9486000C9486000C9486000C941D0B96
:100030000C9486000C9486000C9486000C94860028
:100040000C94A40E0C9486000C9486000C948600EC
:100050000C9486000C9486000C9486000C94860008
:100060000C9486000C948600000000080002010039
:100070000003040700000000000000000102040863
:100080001020408001020408102001020408102002
:10009000040404040404040402020202020203032E
:1000A0000303030300000000250028002B000000CC
:1000B0000000240027002A0047040E0B11241FBE55
:1000C000CFEFD8E0DEBFCDBF11E0A0E0B1E0E6E8C1
:1000D000F2E202C005900D92AC32B107D9F721E0EF
:1000E000ACE2B1E001C01D92A93FB207E1F710E018
:1000F000CEE5D0E004C02197FE010E941211CC355C
:10010000D107C9F70E9472100C9441110C940000A1
:100110000C9456058EBD00000DB407FEFDCF8EB5C4
:100120000895CF93DF93EC0161E08A810E94BB0FB9
:1001300061E08A81DF91CF910C94F40F28E131E0E6
:10014000FC01318320832AE022830C94910028E172
:1001500031E0FC013183208362830C949100CF93C2
:10016000DF93EC0160E08A810E94F40F80EC0E9432
:100170008A0061E08A81DF91CF910C94F40FEF92B5
:10018000FF921F93CF93DF931F92CDB7DEB77C0111
:10019000162F60E0FC01828149830E94F40F82E007
:1001A0000E948A00812F0E948A004981842F0E9428
:1001B0008A0061E0F70182810F90DF91CF911F915A
:1001C000FF90EF900C94F40FEF92FF921F93CF9358
:1001D000DF9300D0CDB7DEB77C01162F60E0FC01C5
:1001E00082812A8349830E94F40F85E00E948A005D
:1001F000812F0E948A004981842F0E948A002A81CF
:10020000822F0E948A0061E0F70182810F900F9097
:10021000DF91CF911F91FF90EF900C94F40F1F93FB
:10022000CF93DF93EC0160E08A810E94F40F80EAB3
:100230000E948A008FEF0E948A00182F61E08A8155
:100240000E94F40F812FDF91CF911F9108950E949A
:100250000F01837008954F925F926F927F928F92F9
:100260009F92AF92BF92DF92EF92FF920F931F93F4
:10027000CF93DF93EC014B01CB010E940F0180FD76
:1002800005C081FD05C088858E7FA2C010E901C030
:1002900014E960E0F40182810E94F40F812F0E9432
:1002A0008A008FEF0E948A00D82E8FEF0E948A006A
:1002B000E82E8FEF0E948A00082F8FEF0E948A009D
:1002C000182F8FEF0E948A00F82E282F2F70922F60
:1002D0009295907F8D858F70892B8D873E01F0E1FF
:1002E0006F0E711C412C512CA22EB12C4A145B04B0
:1002F00054F48FEF0E948A00F30181933F01FFEFD6
:100300004F1A5F0AF3CF61E0F40182810E94F40F7B
:100310002E2D30E0C90143E0959587954A95E1F788
:10032000E88580FBE2F9E887FB81E2FF32C04D2DD2
:1003300050E060E070E0A5E1440F551F661F771F95
:10034000AA95D1F7502B412B0E2D007E10E020E016
:1003500030E0BDE0000F111F221F331FBA95D1F707
:10036000402B512B622B732B8E2D8370682B48836F
:1003700059836A83872F8F71F07EF82BFB838F2D33
:1003800090E016E0959587951A95E1F780FBE1F9E5
:100390001CC048E0D49EC0011124092E000CAA0BF9
:1003A000BB0BE294E69447E0E4228E29888399838C
:1003B000AA838B2F8F71F07EF82BFB8354E0359549
:1003C00027955A95E1F720FBE1F9E8878885816058
:1003D0008887CE01DF91CF911F910F91FF90EF9011
:1003E000DF90BF90AF909F908F907F906F905F90C5
:1003F0004F9008956F927F929F92AF92BF92CF924B
:10040000DF92EF92FF920F931F93CF93DF9300D071
:10041000CDB7DEB73C018B010E940F0182FF09C0FE
:1004200084FF0CC086FD9CC024E8B22E34E4932ED9
:1004300009C081E8B82E90E4992E04C0A2E8BA2E33
:10044000B2E49B2EF801358532953F70208593816B
:10045000822F827022FF24C02081C22ED180E280B0
:100460009F71F92EB701A601E5E17695679557953D
:100470004795EA95D1F7A42EB701A601FDE0769540
:10048000679557954795FA95D1F7407E9E2D9370C5
:10049000492B4860ED2CF22E8823C9F0306417C038
:1004A000F801408151816281792F7F716A017B015E
:1004B00093E0F694E794D794C7949A95D1F7AC2C2F
:1004C0004295440F407E81114061F12CE12C60E0A7
:1004D000F30182813A8349830E94F40F892D0E949F
:1004E0008A008A2D0E948A004981842F0E948A00F6
:1004F0008E2D0E948A008F2D0E948A003A81832FC0
:100500000E948A006801F0E1CF0ED11CE12CF12C91
:10051000F801858582958F7090E0E816F9064CF415
:10052000F60181916F010E948A00FFEFEF1AFF0A26
:10053000EFCF61E0F30182810E94F40F60E0F301EC
:1005400082810E94F40F8B2D0E948A0061E0F301EA
:1005500082810E94F40FF801858582958F7001C019
:1005600080E00F900F90DF91CF911F910F91FF903E
:10057000EF90DF90CF90BF90AF909F907F906F9063
:100580000895262F40EE6FE00C94E400CF93DF93A4
:10059000EC0141E06AE20E94BF0048EB69E2CE0153
:1005A0000E94BF0045E068E2CE01DF91CF910C943C
:1005B000BF00CF93DF93EC0120E640E660E60E94A7
:1005C000E40020E640E660E7CE01DF91CF910C9495
:1005D000E4001F93CF93DF93EC0160E08A810E94D7
:1005E000F40F82E00E948A0081E60E948A001DE0EA
:1005F00080E00E948A001150D9F761E08A810E9450
:10060000F40F60E08A810E94F40F82E00E948A0069
:1006100081E70E948A001DE080E00E948A0011505C
:10062000D9F761E08A81DF91CF911F910C94F40F8B
:100630001F93CF93DF93EC0160E08A810E94F40F57
:1006400082E00E948A0081E30E948A001DE080E02F
:100650000E948A001150D9F761E08A810E94F40F4C
:1006600060E08A810E94F40F82E00E948A0081E4A7
:100670000E948A001DE080E00E948A001150D9F794
:1006800061E08A810E94F40F60E08A810E94F40F89
:1006900082E00E948A0081E50E948A001DE080E0DD
:1006A0000E948A001150D9F761E08A81DF91CF91D1
:1006B0001F910C94F40FCF93DF93EC010E94E90299
:1006C000CE01DF91CF910C9418031F93CF93DF934A
:1006D000EC01162F60E08A810E94F40F82E00E94F4
:1006E0008A008BE20E948A00812F0E948A0061E0CA
:1006F0008A81DF91CF911F910C94F40FCF92DF92FA
:10070000EF92FF920F931F93CF93DF931F92CDB77A
:10071000DEB78C016A017B0129830E942005C80194
:100720000E94AF00C8010E94E902C8010E9418039C
:10073000C8010E94D90261E0C8010E946503B701A7
:10074000A601C8010E94C6022981622FC8010F902C
:10075000DF91CF911F910F91FF90EF90DF90CF909D
:100760000C94C10220E00C947E030F931F93CF934F
:10077000DF931F92CDB7DEB78C0169830E949E0084
:1007800088E091E0F8019183808369816283C801E8
:100790000F90DF91CF911F910F910C949100FC016C
:1007A00083819481928B818B438B6295607F818D55
:1007B0008F70682B618F8DB79EB748970FB6F894EE
:1007C0009EBF0FBE8DBFADB7BEB7119688E13C96F8
:1007D00001900D928A95E1F70E94CE048DB79EB7E5
:1007E00048960FB6F8949EBF0FBE8DBF089541E0A6
:1007F0000C94CF03FC018DE1808B8085848F8185F3
:10080000858F8285868F8385878F60A341A366E06D
:10081000CF010C94F703CF93DF93FC018DE1808B24
:100820004F5F5F4F528B418B81E0838B818D8F7047
:100830008068818FDB01EF016C96CF0184962D914A
:100840002993C817D907D9F78DB79EB748970FB620
:10085000F8949EBF0FBE8DBFADB7BEB7119688E1AD
:100860003C9601900D928A95E1F70E94CE048DB7D7
:100870009EB748960FB6F8949EBF0FBE8DBF61E03D
:1008800070E080E090E0DF91CF910C941D0F6AE062
:1008900088E691E00E94A7006AE08CE291E00C9467
:1008A000B5036AE070E00E949E1080E3860F089511
:1008B0006AE070E00E949E10805D089570E0605FC5
:1008C0007F4FFA01E60FF71F9C012D5F3F4FDC01C0
:1008D0004D91CD014193A217B307C9F70895982F01
:1008E00092959F708F702AE0929F800D1124089539
:1008F000CF92DF92EF92FF92FA01208130E0A901BE
:1009000040535109218130E020533109D901AA0F08
:10091000BB1F2A0F3B1F240F351F6901330FEE0841
:10092000FF086C0D7D1D8E1D9F1D93838483758331
:100930006683FF90EF90DF90CF9008950F931F9301
:100940008C012227332760277127CB018F77936093
:100950001F910F910895ECE2F1E083E0848F85818F
:10096000858F8681868F63E0CF010E94F7032FEF8A
:1009700084E39CE0215080409040E1F700C00000FB
:1009800080E00E94440E2FE78FE492E121508040E6
:100990009040E1F700C000000C94001CCF93DF935F
:1009A000CDB7DEB78D8584608D87898590E0A0E026
:1009B000B0E021E1880F991FAA1FBB1F2A95D1F72C
:1009C0004A855B8560E070E0842B952BA62BB72BC6
:1009D00028853C85207E332311F0A16002C0AE7FC4
:1009E000BF718D839E83AF838B2F8F71282B2887B8
:1009F000BE016B5F7F4F88E691E00E94FA01DF91B4
:100A0000CF910895CF93DF93EC0168E671E00E94E7
:100A10002B0188819981AA812B81B22FBF71AC01F2
:100A2000BD0181E176956795579547958A95D1F7F0
:100A30004C838A2F81708F83CE01DF91CF910895EF
:100A4000CF93CFB7F89480916C01811127C0EAE968
:100A5000F0E08491E6E8F0E09491E82FF0E0EE0F0A
:100A6000FF1FE255FF4FA591B491EC91E92321F4CA
:100A700061E08AE00E94F40F61E08AE00E94BB0F0F
:100A80008CB580618CBD8CB580648CBD61E08DE0DF
:100A90000E94BB0F61E08BE00E94BB0F80916C0154
:100AA0008F5F80936C01CFBFCF9108959FB7F8946B
:100AB00080916C01882319F0815080936C018091A2
:100AC0006C01811105C08CB58F7B8CBD10926B01C0
:100AD0009FBF0895ECE2F1E081E0848F8581858FEE
:100AE0008681868F48E351E063E088E291E00E94CE
:100AF0005E0466E08CE291E00C94F7030F931F9381
:100B0000CF93DF930CE211E09BE0D80150969C93C9
:100B100098E0E8E4F1E0DF011D929A95E9F7B5E18C
:100B20008B9FC0011124EC01C259DE4FCE010E94FF
:100B3000010EF801968FCE010E94010ED8015F963A
:100B40008C93CE010E94150EF80180A366E0C801C7
:100B5000DF91CF911F910F910C94F703DF92EF92E9
:100B6000FF920F931F93CF93DF93F82E81E090E0D5
:100B70000E942711C82F8093310182E090E00E94EB
:100B80002711809332012C2F30E0205331099AE055
:100B9000929FE001939FD00D1124C80FD11DE197C2
:100BA000CC0FCC0F0EE611E0D12CD0E0D05DC80107
:100BB0000E94090E60E390E00E942F11C8010E947C
:100BC000090E90E06C2F6D0D01960E942F11C80147
:100BD0000E94090E90E00E942711E82EC8010E9491
:100BE000090E90E001960E9427116E2D70E0762F7D
:100BF0006627682BC8010E94050EFF2019F08D2D75
:100C00000E947E05D3940B5E1F4F84E0D812CFCF95
:100C1000DF91CF911F910F91FF90EF90DF9008959A
:100C2000EF92FF920F931F93CF93DF9364E08EE6D2
:100C300091E00E940C0E66E083E891E00E940C0EA9
:100C400068E088E991E00E940C0E6AE08DEA91E08C
:100C50000E940C0E80E090E00E942711873411F171
:100C600060E381E090E00E942F1160E382E090E079
:100C70000E942F1169E183E090E00E942F1180E033
:100C80000E94AE05CCE0D0E060E0CE010E942F11C2
:100C90002196C031D105C1F767E480E090E00E9461
:100CA0002F112AC081E090E00E942711809331012A
:100CB00082E090E00E942711809332010EE611E05D
:100CC000C8010E94090E90E00E942711C82FC80198
:100CD0000E94090E90E001960E9427116C2F70E08F
:100CE000762F6627682BC8010E94050E0B5E1F4FEA
:100CF00021E0023C120721F783E090E00E942711D7
:100D000080936D018091320120ED280F8091310197
:100D1000880F8056982F990F990F890F820F809313
:100D2000330141E351E060E079E189E090E50E9420
:100D300078046093C2017093C3018093C4019093BF
:100D4000C50120E040E950ED63E070E08CE291E005
:100D50000E947E038FEF94E3ECE081509040E040EE
:100D6000E1F700C000006091C2017091C301809161
:100D7000C4019091C5010E949E049093300180931C
:100D80002F0162E082E00E94BB0F40E050E06AE287
:100D900077E080E00E94240ECEE6D1E084E2E82EE7
:100DA00081E0F82E0CE010E0C8010E942711682FA6
:100DB000CE010E94180ECE010E94150EF70161911E
:100DC0007F0140916D0150E070E0282FCE010E941C
:100DD0005E0D84EF800F0E947E050F5F1F4F6596AA
:100DE0000031110509F7DF91CF911F910F91FF900D
:100DF000EF900895EF92FF920F931F93CF93DF939D
:100E0000082FE82EF12C85E1089FE0011124C2593A
:100E1000DE4FCE010E940F0E182F882331F0813053
:100E200039F4CE010E94990D03C0CE010E948E0DAF
:100E3000802F0E947E05612FCE010E94180E612F27
:100E4000C7010C96DF91CF911F910F91FF90EF900A
:100E50000C942F11CF92DF92EF92FF920F931F937A
:100E6000CF93DF93CDB7DEB768970FB6F894DEBFA8
:100E70000FBECDBFCE0101960E94020588E1FE01A2
:100E80003196A0E5B1E001900D928A95E1F780914D
:100E900057018111D1C180915401883109F4BAC040
:100EA000A0F48823C9F08B3009F0C6C1009162011B
:100EB00010E0102F002780916301082B9EE6E92E99
:100EC00091E0F92EC12CD12C96C18D3109F4D1C0FD
:100ED000823509F4F0C0B0C120E030E081E0882321
:100EE00041F081E0F901E45DFE4F408594A949138A
:100EF00080E02F5F3F4F2430310589F78093C60192
:100F0000882309F499C1809164018B3009F094C160
:100F100080916501823091F0833061F1813009F078
:100F20006BC0809166016091670120E1829F600D36
:100F3000112460936D0183E090E019C06091660117
:100F400080916701982F20E1629F900D112490936A
:100F50003301805D80933201605D6093310181E0F7
:100F600090E00E942F116091320182E090E00E9497
:100F70002F1142C080916701813019F18230E1F573
:100F800088E1E0E5F1E0A8E3B1E001900D928A95F7
:100F9000E1F781E080934E0167E08CE291E00E94EE
:100FA000F7038FE79FE422E1815090402040E1F772
:100FB00000C000006FEF80E090E00E942F110C94C1
:100FC000000098E1E0E5F1E0A8E3B1E001900D92C6
:100FD0009A95E1F780934E0167E08CE291E00E94E0
:100FE000F7038FE79FE422E1815090402040E1F732
:100FF00000C000000C94000088E1E0E5F1E0A8E307
:10100000B1E001900D928A95E1F781E080934E0165
:1010100067E01DC080933C018091340180934801BA
:1010200080913501809349018091360180934A0176
:101030008091370180934B0110924C0186E08093A0
:101040004D0110924E0183E580934F0168E08CE2E0
:1010500091E068960FB6F894DEBF0FBECDBFDF916A
:10106000CF911F910F91FF90EF90DF90CF900C9454
:10107000F70320E030E081E0882341F081E0F901CE
:10108000E45DFE4F408594A9491380E02F5F3F4FF8
:101090002430310589F78093C601882309F4CCC038
:1010A00081E08093C7018091640190E09093C90131
:1010B0008093C801C1C081E680934801909161018D
:1010C000809131019813B8C09091620180913201F2
:1010D0009813B2C083E580933C0180916001823017
:1010E000E9F1833091F08111A7C068960FB6F894AA
:1010F000DEBF0FBECDBFDF91CF911F910F91FF904B
:10110000EF90DF90CF900C946A050EE611E0C801D5
:101110000E948C0D8FEF94E32CE081509040204092
:10112000E1F700C000000B5E1F4F81E0023C180792
:1011300071F76FEF80E090E00E942F1168960FB674
:10114000F894DEBF0FBECDBFDF91CF911F910F91FD
:10115000FF90EF90DF90CF900C94AB040E946A0553
:101160006091630181E090E00E942F116091640121
:1011700082E090E00E942F1181E090E00E94271110
:101180008093310182E090E00E9427118093320128
:1011900041E351E060E079E189E090E50E94780464
:1011A0006093C2017093C3018093C4019093C50101
:1011B0000E949E049093300180932F0181E00E9451
:1011C000AE058091320120ED280F80913101880F0A
:1011D0008056982F990F990F890F820F80933301B2
:1011E0002BC09FEFC91AD90A25E1E20EF11C84E059
:1011F000C816D10409F1C7010E94010E081719078A
:1012000081F760916401C7010E94120EC7010E941C
:101210001B0E882389F08C2D68960FB6F894DEBFDC
:101220000FBECDBFDF91CF911F910F91FF90EF9037
:10123000DF90CF900C94FA0668960FB6F894DEBF54
:101240000FBECDBFDF91CF911F910F91FF90EF9017
:10125000DF90CF9008956F927F928F929F92AF927E
:10126000BF92CF92DF92EF92FF920F931F93CF9393
:10127000DF93CDB7DEB7C45AD1090FB6F894DEBFFD
:101280000FBECDBF5C0184E0CF55DF4F8883C15ACC
:10129000D040A5E0CE55DF4FA883C25AD040CD55EF
:1012A000DF4F8883C35AD040CC55DF4F8883C45A60
:1012B000D040CE0101966C0180EAF60111928A9528
:1012C000E9F763E06A8383E4898B01E40A8B5EE4D7
:1012D0005B8B47E64C8B35E73D8B92E79E8B3F8BD4
:1012E00080E2888FF3E5F98F25E62A8F9B8FE6E76A
:1012F000EC8F8FE68D8F11E019A772E07AA7ACA76B
:10130000A2E3FA2EFEA6F9AB2AAB9BABECAB8DABFE
:10131000EEAB2FAB98AFEAE7E9AFE3ECEAAFE6EB71
:10132000EBAF4CAF2DAF9EAF3FAFBEE62196BFAF48
:10133000219722964FAF229745E324964FAF2497EB
:1013400026964FAF2697E0E32796EFAF2797ADE6B7
:101350002996AFAF299743E72A964FAF2A9762960F
:101360007FAF629763967FAF639774E167967FAFB5
:1013700067977DE46A967FAF6A976B968FAF6B979E
:1013800074E66C967FAF6C976D963FAF6D97FCE6F9
:101390006E96FFAF6E9781E66F968FAF6F97A096B0
:1013A0007FAFA097A1969FAFA197A2962FAFA297CC
:1013B000A3964FAFA397A4964FAFA497A5962FAF30
:1013C000A597A796EFAFA797A996FFAEA997AA965C
:1013D000EFAFAA97AC960FAFAC97AD967FAFAD9736
:1013E000AE969FAFAE97EA966FAFEA97EB961FAFB8
:1013F000EB97EC966FAFEC97CF57DF4F5883C15800
:10140000D040CE57DF4F2883C258D040CD57DF4F52
:101410003883C358D040CC57DF4F4883C458D0409E
:1014200034E7CB57DF4F3883C558D040CA57DF4F1A
:101430008883C658D040C957DF4F9883C758D040DB
:10144000C857DF4F3883C858D040C657DF4F58833E
:10145000CA58D040C557DF4F2883CB58D04029E623
:10146000C457DF4F2883CC58D040C357DF4FB883D1
:10147000CD58D04027E5C157DF4F2883CF58D04003
:10148000C057DF4F8883C059D040CF56DF4F988375
:10149000C159D040CE56DF4FA883C259D0409BE4FB
:1014A000CC56DF4F9883C459D040CB56DF4F88834A
:1014B000C559D040CA56DF4FF883C659D040C956E7
:1014C000DF4F3883C759D04080913301888780919E
:1014D00034010E946F0490E00E945104898780913A
:1014E00034010E946F0490E00E9458048A87809122
:1014F00035010E946F0490E00E9451048B87809117
:1015000035010E946F0490E00E9458048C878091FE
:1015100036010E946F0490E00E9451048D878091F3
:1015200036010E946F0490E00E9458048E878091DB
:1015300037010E946F0490E00E9451048F878091D0
:1015400037010E946F0490E00E945804888B8091BC
:101550006D0188AB8091330169968FAF699788E2FE
:101560008A9D30018B9D700C1124812C912CE12CD3
:10157000F12C01EA10E00C0F1D1F0A0D1B1DF801D4
:10158000408150E0E416F5068CF4B401660D771D39
:101590006C0D7D1DA7018CE291E00E940B04FFEF12
:1015A000EF1AFF0A88E0880E911CE9CFB5018CE2A2
:1015B00091E00E94FA03CC55DF4F0FB6F894DEBFDE
:1015C0000FBECDBFDF91CF911F910F91FF90EF9094
:1015D000DF90CF90BF90AF909F908F907F906F9053
:1015E00008958EE691E00E94A40D83E891E00E94A8
:1015F000A40D88E991E00E94A40D8DEA91E00E947B
:10160000A40D8091C701882341F01092C7018091F9
:10161000C8019091C9010C942B090895CF93DF93D1
:10162000CEE6D1E0CE010E944A0D659681E0C23C33
:10163000D807C1F7DF91CF9108951F920F920FB68F
:101640000F9211242F933F934F935F936F937F9348
:101650008F939F93AF93BF93EF93FF938091CB01B1
:1016600087FF05C010928500109284001BC0209156
:10167000CB01022E000C330B8091CA0190E0281799
:10168000390784F48091CB01082E000C990BFC01E2
:10169000EE0FFF1F8E0F9F1FFC01E453FE4F808152
:1016A00086FD15C08091CB018F5F8093CB01209187
:1016B000CB01022E000C330B8091CA0190E0281759
:1016C0003907C4F48091CB018C3064F113C0809150
:1016D000CB01082E000C990BFC01EE0FFF1F8E0FA3
:1016E0009F1FFC01E453FE4F808160E08F730E94D6
:1016F000F40FD8CF809184009091850004968034B7
:101700009C4918F480E49CE905C080918400909184
:101710008500049690938900809388008FEF8093D2
:10172000CB013BC020918400309185008091CB019A
:10173000082E000C990BFC01EE0FFF1F8E0F9F1F50
:10174000FC01E453FE4F81819281820F931F90939D
:101750008900809388008091CB01082E000C990BA2
:10176000FC01EE0FFF1F8E0F9F1FFC01E453FE4F85
:10177000808186FF12C08091CB01082E000C990B4E
:10178000FC01EE0FFF1F8E0F9F1FFC01E453FE4F65
:10179000808161E08F730E94F40FFF91EF91BF9100
:1017A000AF919F918F917F916F915F914F913F91F9
:1017B0002F910F900FBE0F901F901895FC019091E4
:1017C000CA019C30A0F481E0890F8093CA01908304
:1017D000892F90E0FC01EE0FFF1F8E0F9F1FFC0171
:1017E000E453FE4F88EB9BE09283818308958FEF53
:1017F00080830895DF92EF92FF920F931F93CF9310
:10180000DF93EC01D62E7A01890188818C3008F0B3
:101810006AC061E08D2D0E94BB0F8881E82FF0E047
:101820009F01220F331FE20FF31FE453FE4F9D2D44
:101830009F732081207CD22ED92AD08260E272E070
:10184000AB014E195F0957FF02C04D5F5F4F5595C1
:10185000479555954795498340E659E09A01201BE5
:10186000310B37FF02C02D5F3F4F359527953595DA
:1018700027952A832CE0622F0E949210289FB001A6
:10188000112440E050E09A01260F371FF901EE0FB6
:10189000FF1F2E0F3F1FF901E453FE4F908196FD6D
:1018A00016C04F5F5F4F4C30510569F781110FC073
:1018B0001092800082E08093810010928500109247
:1018C0008400B19A80916F00826080936F00E881FC
:1018D000F0E0CF01880F991FE80FF91FE453FE4F86
:1018E0008081806480838881DF91CF911F910F91E7
:1018F000FF90EF90DF90089520E639E040E252E05B
:101900000C94FA0BFC018081E82FF0E09F01220F7C
:10191000331FE20FF31FE453FE4F90819F7B9083B0
:101920002CE0622F0E949210289FC001112440E0F9
:1019300050E09A01280F391FF901EE0FFF1F2E0FFB
:101940003F1FF901E453FE4F208126FD11C04F5F78
:101950005F4F4C30510569F710926F001092810073
:1019600082E08093810081E08093810080938000F9
:101970000895FC0190819C3080F5818128E830E059
:10198000281B310987FD3395220F331F220F331F88
:10199000621773077CF0828128E532E0281B310949
:1019A00087FD3395220F331F220F331F62177307F2
:1019B0000CF49B0122503109220F331F4FB7F894CA
:1019C000892F90E0FC01EE0FFF1F8E0F9F1FFC017F
:1019D000E453FE4F328321834FBF0895AF92BF92ED
:1019E000CF92DF92EF92FF920F931F93CF93DF93EB
:1019F000EC01603282E078070CF03FC077FD06C052
:101A0000653B71052CF064EB70E002C060E070E0B3
:101A1000898128E830E05901A81AB10887FDB394FC
:101A2000AA0CBB1CAA0CBB1C0B2C000CCC08DD08A0
:101A3000072E000C880B990B2A8108E512E0021B87
:101A4000110927FD1395000F111F000F111F012E03
:101A5000000C220B330B3F932F931F930F9314EB28
:101A6000E12EF12C00E010E020E030E0A9010E941E
:101A70002A100F900F900F900F90CE01DF91CF9111
:101A80001F910F91FF90EF90DF90CF90BF90AF909C
:101A90000C94B90CCF93DF93EC010E94DE0B89E12B
:101AA00090E09A87898781E090E098878F831B86F2
:101AB0001C861D861E86DF91CF9108950F931F937C
:101AC000CF93DF93EC018B015A8749872A8B22231E
:101AD00059F02130A1F481E090E09C838B839E83B8
:101AE0008D838FEF9FEF08C08AE490E09C838B8307
:101AF0009E838D8381E090E098878F831C8A6B8121
:101B00007C81CE010E94EE0CB801CE01DF91CF9115
:101B10001F910F910C947C0C0C94820CFC018AE4B4
:101B200090E09683858381E090E090878783148A94
:101B30000895FC0181E090E0968385838FEF9FEF0D
:101B400090878783148A08950F931F93CF93DF9311
:101B5000FC0183819481258136818217930761F18D
:101B6000EF010E94EE0E0B851C852D853E85AB0195
:101B7000BC01401B510B620B730B89859A85092EA2
:101B8000000CAA0BBB0B84179507A607B707A0F597
:101B90000E94EE0E6B877C878D879E876B817C8190
:101BA000CE010E94EE0C2B813C818F819885820FA3
:101BB000931F9C838B8320C08A34910569F48489A8
:101BC00081110AC086E490E0968385838FEF9FEFB2
:101BD0009087878381E0848B858196818130910510
:101BE00059F42489211108C025E030E0368325838B
:101BF0009087878381E0848BDF91CF911F910F9134
:101C00000895FC01878590890895FC01708B678792
:101C10000895FC0181890895FC01618B0895FC0100
:101C200082890895FC01628B0895FC0183890895DF
:101C3000FC01638B0895FC0181E0228993892913BB
:101C400001C080E0089508958230E8F4E82FF0E0C4
:101C5000EE0FFF1FE050FF4F71836083813041F032
:101C6000809169008C7F842B80936900E89A0895A5
:101C700080916900440F551F440F551F837F842BAB
:101C800080936900E99A0895823078F4813011F0E8
:101C9000E89801C0E998E82FF0E0EE0FFF1FE05050
:101CA000FF4F83E29EE09183808308951F920F92FD
:101CB0000FB60F9211242F933F934F935F936F931F
:101CC0007F938F939F93AF93BF93EF93FF93E09195
:101CD0000001F09101010995FF91EF91BF91AF9142
:101CE0009F918F917F916F915F914F913F912F9134
:101CF0000F900FBE0F901F9018951F920F920FB666
:101D00000F9211242F933F934F935F936F937F9381
:101D10008F939F93AF93BF93EF93FF93E091020153
:101D2000F09103010995FF91EF91BF91AF919F91C0
:101D30008F917F916F915F914F913F912F910F9074
:101D40000FBE0F901F9018951F920F920FB60F9213
:101D500011242F933F938F939F93AF93BF938091C1
:101D6000F1019091F201A091F301B091F401309151
:101D7000F00123E0230F2D3720F40196A11DB11DA2
:101D800005C026E8230F0296A11DB11D2093F00186
:101D90008093F1019093F201A093F301B093F401C9
:101DA0008091F5019091F601A091F701B091F801B1
:101DB0000196A11DB11D8093F5019093F601A093AA
:101DC000F701B093F801BF91AF919F918F913F912F
:101DD0002F910F900FBE0F901F9018952FB7F8946A
:101DE0006091F1017091F2018091F3019091F40101
:101DF0002FBF08953FB7F8948091F5019091F601B7
:101E0000A091F701B091F80126B5A89B05C02F3F1E
:101E100019F00196A11DB11D3FBF6627782F892FAC
:101E20009A2F620F711D811D911D42E0660F771F71
:101E3000881F991F4A95D1F708958F929F92AF926C
:101E4000BF92CF92DF92EF92FF926B017C010E94D2
:101E5000FA0E4B015C01C114D104E104F104F1F06C
:101E60000E9481100E94FA0E681979098A099B095B
:101E7000683E73408105910570F321E0C21AD108D4
:101E8000E108F10888EE880E83E0981EA11CB11CC1
:101E9000C114D104E104F10429F7DDCFFF90EF90E4
:101EA000DF90CF90BF90AF909F908F9008957894DF
:101EB00084B5826084BD84B5816084BD85B582604F
:101EC00085BD85B5816085BDEEE6F0E080818160ED
:101ED0008083E1E8F0E010828081826080838081ED
:101EE00081608083E0E8F0E0808181608083E1EBC5
:101EF000F0E0808184608083E0EBF0E080818160AD
:101F00008083EAE7F0E08081846080838081826062
:101F1000808380818160808380818068808310924B
:101F2000C1000895833081F028F4813099F0823027
:101F3000A1F008958730A9F08830B9F08430D1F449
:101F4000809180008F7D03C0809180008F77809387
:101F50008000089584B58F7702C084B58F7D84BDDD
:101F600008958091B0008F7703C08091B0008F7D7D
:101F70008093B0000895CF93DF9390E0FC01E45884
:101F8000FF4F2491FC01E057FF4F8491882349F1D2
:101F900090E0880F991FFC01E255FF4FA591B49185
:101FA0008C559F4FFC01C591D4919FB7611108C01A
:101FB000F8948C91209582238C93888182230AC087
:101FC000623051F4F8948C91322F309583238C93A6
:101FD0008881822B888304C0F8948C91822B8C9307
:101FE0009FBFDF91CF9108950F931F93CF93DF93FE
:101FF0001F92CDB7DEB7282F30E0F901E859FF4F27
:102000008491F901E458FF4F1491F901E057FF4F13
:1020100004910023C9F0882321F069830E94920F64
:102020006981E02FF0E0EE0FFF1FEC55FF4FA59107
:10203000B4919FB7F8948C91611103C010958123DE
:1020400001C0812B8C939FBF0F90DF91CF911F9187
:102050000F9108954F925F926F927F92AF92BF92CD
:10206000CF92DF92EF92FF920F931F93CF93DF9364
:10207000CDB7DEB729013A01621B730B840B950BB8
:1020800029893A894B895C892A193B094C095D09E0
:10209000298B3A8B4B8B5C8B9B01AC0169897A89CC
:1020A0008B899C890E948210E418F508060917099B
:1020B000A80197010E94B2102A0D3B1D4C1D5D1D09
:1020C000CA01B901DF91CF911F910F91FF90EF905D
:1020D000DF90CF90BF90AF907F906F905F904F90C8
:1020E000089508950E94570F0E9471100E941006D3
:1020F000C0E0D0E00E94F10A2097E1F30E940000C6
:10210000F9CF0895DB018F939F930E94D110BF9167
:10211000AF91A29F800D911DA39F900DB29F900D36
:1021200011240895991B79E004C0991F961708F0AF
:10213000961B881F7A95C9F78095089597FB072EFF
:1021400016F4009407D077FD09D00E94DC1007FC3C
:1021500005D03EF4909581959F4F089570956195B7
:102160007F4F0895052E97FB1EF400940E94C9101E
:1021700057FD07D00E94F01007FC03D04EF40C94DA
:10218000C91050954095309521953F4F4F4F5F4F67
:10219000089590958095709561957F4F8F4F9F4FD3
:1021A00008950E941811A59F900DB49F900DA49FB3
:1021B000800D911D11240895AA1BBB1B51E107C07E
:1021C000AA1FBB1FA617B70710F0A61BB70B881FC7
:1021D000991F5A95A9F780959095BC01CD01089556
:1021E000A1E21A2EAA1BBB1BFD010DC0AA1FBB1F1B
:1021F000EE1FFF1FA217B307E407F50720F0A21B8D
:10220000B30BE40BF50B661F771F881F991F1A94F9
:1022100069F760957095809590959B01AC01BD0123
:10222000CF010895EE0FFF1F0590F491E02D099462
:10223000A29FB001B39FC001A39F700D811D112407
:10224000911DB29F700D811D1124911D0895F99962
:10225000FECF92BD81BDF89A992780B50895262FAB
:10226000F999FECF92BD81BDF89A019700B402168C
:1022700039F01FBA20BD0FB6F894FA9AF99A0FBE3A
:062280000895F894FFCF61
:10228600230E230E00000000B203880027012B0155
:102296005B03FA0100000000B203880027012B014E
:0C22A6005B03FA0104050607617070007C
:00000001FF
