S00F000063616E327573622E7372656367
S11300000C945E000C9486000C9486000C9486007C
S11300100C9486000C9486000C9486000C94860044
S11300200C9486000C9486000C9486000C94860034
S11300300C9486000C9486000C9486000C94860024
S11300400C9458090C9486000C94E4070C9416083C
S11300500C9486000C9486000C9486000C94860004
S11300600C9486000C948600000000080002010035
S1130070000304070000000000000000010204085F
S113008010204080010204081020010204081020FE
S1130090040404040404040402020202020203032A
S11300A00303030300000000250028002B000000C8
S11300B00000240027002A004304460811241FBE20
S11300C0CFEFD8E0DEBFCDBF11E0A0E0B1E0EEE0BD
S11300D0F4E102C005900D92AE37B107D9F722E0E2
S11300E0AEE7B1E001C01D92AB35B207E1F710E015
S11300F0CEE5D0E004C02197FE010E94FF09CC3573
S1130100D107C9F70E9449090C94050A0C94000010
S11301100E94F1040895CF93DF93EC0161E08A819A
S11301200E94300661E08A810E946906DF91CF91C6
S1130130089524E031E0FC013183208362830E942E
S11301408B000895CF93DF93EC0160E08A810E94D5
S1130150690680EC8EBD00000DB407FEFDCF8EB5A0
S113016061E08A810E946906DF91CF9108950F931F
S11301701F93CF93DF93EC01062F142F60E08A8145
S11301800E94690682E08EBD00000DB407FEFDCF1B
S11301908EB50EBD00000DB407FEFDCF8EB51EBD9D
S11301A000000DB407FEFDCF8EB561E08A810E9488
S11301B06906DF91CF911F910F910895FF920F93DC
S11301C01F93CF93DF93EC01F62E042F122F60E0E0
S11301D08A810E94690685E08EBD00000DB407FE89
S11301E0FDCF8EB5FEBC00000DB407FEFDCF8EB56D
S11301F00EBD00000DB407FEFDCF8EB51EBD000080
S11302000DB407FEFDCF8EB561E08A810E946906B8
S1130210DF91CF911F910F91FF9008951F93CF937A
S1130220DF93EC0160E08A810E94690680EA8EBD5A
S113023000000DB407FEFDCF8EB58FEF8EBD00001C
S11302400DB407FEFDCF1EB561E08A810E946906E8
S1130250812FDF91CF911F9108950E940E01837029
S11302600895BF92CF92DF92EF92FF920F931F9364
S1130270CF93DF93EC018B01CB010E940E0180FD33
S113028006C081FD09C088858E7F8887ECC00F2E4B
S1130290F0E9FF2EF02D04C00F2EF4E9FF2EF02D0F
S11302A060E0F80182810E946906FEBC00000DB482
S11302B007FEFDCF8EB58FEF8EBD00000DB407FE97
S11302C0FDCFFEB48FEF8EBD00000DB407FEFDCF51
S11302D0EEB48FEF8EBD00000DB407FEFDCFCEB49B
S11302E08FEF8EBD00000DB407FEFDCFBEB48FEFBF
S11302F08EBD00000DB407FEFDCFDEB42D2D2F7092
S1130300922F9295907F8D858F70892B8D872223D4
S113031009F494C0FE01709640E050E09FEF9EBD4A
S113032000000DB407FEFDCF8EB581934F5F5F4F84
S11303302D8522952F7030E04217530784F361E036
S1130340F80182810E9469062E2D30E0A90155959D
S113035047955595479555954795888540FB82F96E
S1130360888782FF40C08E2D807E90E0A0E0B0E0C0
S11303708C019D010F2EFDE0000F111F221F331F62
S1130380FA95D1F7F02D4F2D50E060E070E0DB01DD
S1130390CA01072E75E1880F991FAA1FBB1F7A9502
S11303A0D1F7702D802B912BA22BB32B2E2D2370E4
S11303B0A22B9C298B2988839983AA839B2F9F71C5
S11303C08B81807E892B8B838D2D90E0082E892F45
S11303D0000C881F990B000C881F991F988580FBBF
S11303E091F9988727C08F2D90E0880F991F880F67
S11303F0991F880F991F092E000CAA0BBB0BE694BA
S1130400E694E694E694E6948E2988839983AA83F5
S11304109B2F9F718B81807E892B8B8335952795AC
S1130420359527953595279535952795888520FB0E
S113043081F9888788858160888715C061E0F80123
S113044082810E9469062E2D30E0A90155954795B9
S11304505595479555954795888540FB82F988873A
S113046082FD81CFC0CFCE01DF91CF911F910F913B
S1130470FF90EF90DF90CF90BF9008959F92AF923E
S1130480BF92CF92DF92EF92FF920F931F93CF937D
S1130490DF938C01EB010E940E0182FFCDC084FF2B
S11304A00BC086FDC7C00F2EF4E8EF2EF02D0F2EE3
S11304B0F4E4BF2EF02D08C00F2EF2E8EF2EF02D3D
S11304C00F2EF2E4BF2EF02DFD84F694F694F694EC
S11304D0F694288522FF33C007C00F2EF1E8EF2ED3
S11304E0F02D6894BB24B6F8D8803B818D2D99817A
S11304F0AA81B32FBF71AC01BD01032E35E17695FE
S11305006795579547953A95D1F7302DC42EAC0190
S1130510BD01032E3DE076956795579547953A952D
S1130520D1F7302D407E3A2F3370342B3860932E20
S1130530A92E21FF25C08F2D8064F82E21C088812B
S11305409981AA813B81B32FBF71AC01BD0168942D
S113055012F876956795579547951694D1F7C42E5A
S1130560982E990C990C990C990C990C21FF06C0A2
S1130570E92DE0619E2ED12CA12C02C0D12CA12CFE
S113058060E0F80182810E946906BEBC00000DB4DF
S113059007FEFDCF8EB5CEBC00000DB407FEFDCF27
S11305A08EB59EBC00000DB407FEFDCF8EB5AEBC6B
S11305B000000DB407FEFDCF8EB5DEBC00000DB407
S11305C007FEFDCF8EB5FEBC00000DB407FEFDCFC7
S11305D08EB58D8582958F70A1F0FE01709640E0F6
S11305E050E081918EBD00000DB407FEFDCF8EB5A5
S11305F04F5F5F4F2D8522952F7030E042175307D0
S113060084F361E0F80182810E94690660E0F801E8
S113061082810E946906EEBC00000DB407FEFDCF86
S11306208EB561E0F80182810E9469068D8582950C
S11306308F7012C080E010C0FD84F694F694F69496
S1130640F694288522FD49CF0F2EF1E8EF2EF02DE8
S11306506894BB24B6F873CFDF91CF911F910F91AB
S1130660FF90EF90DF90CF90BF90AF909F90089550
S1130670262F40EE6FE00E94DE000895CF93DF93B3
S1130680EC0141E06AE20E94B70048EB69E2CE0166
S11306900E94B70045E068E2CE010E94B700DF91F6
S11306A0CF910895CF93DF93EC0120E640E660E616
S11306B00E94DE0020E640E660E7CE010E94DE00F4
S11306C0DF91CF910895CF93DF93EC0160E08A81AD
S11306D00E94690682E08EBD00000DB407FEFDCFC6
S11306E08EB581E68EBD00000DB407FEFDCF8EB53C
S11306F09DE01EBC00000DB407FEFDCF2EB5915049
S1130700C1F761E08A810E94690660E08A810E94E3
S1130710690682E08EBD00000DB407FEFDCF8EB5E4
S113072081E78EBD00000DB407FEFDCF8EB59DE0C0
S11307301EBC00000DB407FEFDCF2EB59150C1F7CD
S113074061E08A810E946906DF91CF910895CF9379
S1130750DF93EC0160E08A810E94690682E08EBD2D
S113076000000DB407FEFDCF8EB581E38EBD000001
S11307700DB407FEFDCF8EB59DE01EBC00000DB488
S113078007FEFDCF2EB59150C1F761E08A810E942A
S1130790690660E08A810E94690682E08EBD0000DD
S11307A00DB407FEFDCF8EB581E48EBD00000DB4FF
S11307B007FEFDCF8EB59DE01EBC00000DB407FE04
S11307C0FDCF2EB59150C1F761E08A810E94690680
S11307D060E08A810E94690682E08EBD00000DB44B
S11307E007FEFDCF8EB581E58EBD00000DB407FE7A
S11307F0FDCF8EB59DE01EBC00000DB407FEFDCFFD
S11308002EB59150C1F761E08A810E946906DF919B
S1130810CF910895CF92DF92EF92FF921F93CF93DF
S1130820DF93EC016A017B01122F0E94BB04CE010D
S11308300E94A200CE010E946303CE010E94A7037E
S1130840CE010E945203B701A601CE010E943E03CD
S1130850612FCE010E943803DF91CF911F91FF9049
S1130860EF90DF90CF90089520E00E940A0408954D
S1130870CF93DF93EC010E946303CE010E94A70390
S1130880DF91CF9108956AE08EE791E00E9499008C
S113089008950F931F938C01222733276027712714
S11308A0CB018F7793601F910F910895CF93DF93BE
S11308B0CDB7DEB78D8584608D87898590E0A0E013
S11308C0B0E0072E71E1880F991FAA1FBB1F7A950C
S11308D0D1F7702D4A855B8560E070E0842B952B01
S11308E0A62BB72B3B2F3F712885207E232B2887EF
S11308F02C85222359F0A1608D839E83AF839B2F87
S11309009F718885807E892B88870BC0AE7FBF71DD
S11309108D839E83AF839B2F9F718885807E892BD7
S11309208887BE016B5F7F4F8EE791E00E943E0295
S1130930DF91CF910895CF93DF93EC016EE771E0DF
S11309400E94310188819981AA812B81B22FBF71C4
S1130950AC01BD01032E31E1769567955795479516
S11309603A95D1F7302D4C838A2F81708F83CE0135
S1130970DF91CF910895CF93CFB7F89480918201FE
S1130980811127C0EAE9F0E08491E6E8F0E094916F
S1130990E82FF0E0EE0FFF1FE255FF4FA591B49151
S11309A0EC91E92321F461E08AE00E94690661E0A8
S11309B08AE00E9430068CB580618CBD8CB5806461
S11309C08CBD61E08DE00E94300661E08BE00E9406
S11309D03006809182018F5F80938201CFBFCF91D7
S11309E008959FB7F89480918201882329F081505B
S11309F080938201811105C08CB58F7B8CBD1092D0
S1130A0081019FBF089526E040E052EC61E070E070
S1130A1085EB91E00E94820760E171E085EB91E053
S1130A200E94CD0867E371E085EB91E00E94CD0858
S1130A3060E171E085EB91E00E94CD086DE471E026
S1130A4085EB91E00E94CD0820E040E950ED63E0A1
S1130A5070E08EE791E00E940A042FEF89E698E1A6
S1130A60215080409040E1F700C0000063E679E047
S1130A7080E590E00E9449049093B4018093B3010F
S1130A8008951F93CF93DF93CBE9D1E06D817E81ED
S1130A9040E150E085EB91E00E9442096BE571E092
S1130AA085EB91E00E94C70840E150E06C8185EB42
S1130AB091E00E943B096BE571E085EB91E00E94B7
S1130AC0C7088F81882339F067E571E085EB91E0F1
S1130AD00E94C70806C06AE571E085EB91E00E94B8
S1130AE0C708C8EAD1E0688162956F7040E150E0C0
S1130AF085EB91E00E943B096BE571E085EB91E0A9
S1130B000E94C708888182958F70E9F020E030E068
S1130B1010E0F901E556FE4F40E150E0608985EBB5
S1130B2091E00E943B096BE571E085EB91E00E9446
S1130B30C7081F5F212F30E0888182958F7090E075
S1130B402817390734F385EB91E00E94C908DF9137
S1130B50CF911F910895CF93DF93CDB7DEB76897F8
S1130B600FB6F894DEBF0FBECDBFCE0101960E9432
S1130B709B0488E1FE013196ABE9B1E001900D924E
S1130B808A95E1F780919F01883171F58091A201E6
S1130B9081112AC0E3E8F1E088E184838091B30104
S1130BA09091B4019683858381E08783E0E9F1E045
S1130BB080818F7080838DB79EB748970FB6F89465
S1130BC09EBF0FBE8DBFADB7BEB7119688E1E3E8F7
S1130BD0F1E001900D928A95E1F70E9456040FB658
S1130BE0F894DEBF0FBECDBF0E94410568960FB6D4
S1130BF0F894DEBF0FBECDBFDF91CF9108958EE78D
S1130C0091E00E942D0181110E94AB05089583306B
S1130C1081F028F4813099F08230A1F00895873072
S1130C20A9F08830B9F08430D1F4809180008F7DB0
S1130C3003C0809180008F7780938000089584B5ED
S1130C408F7702C084B58F7D84BD08958091B000F4
S1130C508F7703C08091B0008F7D8093B00008959A
S1130C60CF93DF9390E0FC01E458FF4F2491FC0103
S1130C70E057FF4F8491882349F190E0880F991F32
S1130C80FC01E255FF4FA591B4918C559F4FFC0197
S1130C90C591D4919FB7611108C0F8948C912095A7
S1130CA082238C93888182230AC0623051F4F894A1
S1130CB08C91322F309583238C938881822B888367
S1130CC004C0F8948C91822B8C939FBFDF91CF91B9
S1130CD008950F931F93CF93DF931F92CDB7DEB781
S1130CE0282F30E0F901E859FF4F8491F901E458C5
S1130CF0FF4F1491F901E057FF4F04910023C9F00D
S1130D00882321F069830E9407066981E02FF0E0BF
S1130D10EE0FFF1FEC55FF4FA591B4919FB7F894C8
S1130D208C91611103C01095812301C0812B8C9398
S1130D309FBF0F90DF91CF911F910F910895FC01F8
S1130D40818D228D90E0805C9F4F821B91098F736F
S1130D5099270895FC01918D828D981731F0828D29
S1130D60E80FF11D858D90E008958FEF9FEF0895B2
S1130D70FC01918D828D981761F0828DDF01A80F9F
S1130D80B11D5D968C91928D9F5F9F73928F90E0C1
S1130D9008958FEF9FEF08958CE398E0892B49F035
S1130DA080E090E0892B29F00E943C0881110C948A
S1130DB000000895FC01848DDF01A80FB11DA35A22
S1130DC0BF4F2C91848D90E001968F739927848F67
S1130DD0A689B7892C93A089B1898C9180648C935E
S1130DE0938D848D981306C00288F389E02D808149
S1130DF08F7D80830895CF93DF93EC01888D8823C2
S1130E00C9F0EA89FB89808185FD05C0A889B98973
S1130E108C9186FD0FC00FB607FCF5CF808185FF4E
S1130E20F2CFA889B9898C9185FFEDCFCE010E94BC
S1130E30DA06E7CFDF91CF910895CF92DF92FF9248
S1130E400F931F93CF93DF931F92CDB7DEB76C013F
S1130E5081E0D60158968C9358975B969C915B974A
S1130E605C968C915C97981307C05096ED91FC9119
S1130E705197808185FD2EC0F601038D10E00F5F30
S1130E801F4F0F731127F02EF601848DF81211C035
S1130E900FB607FCF9CFD6015096ED91FC9151970E
S1130EA0808185FFF1CFC60169830E94DA066981DA
S1130EB0EBCF838DE80FF11DE35AFF4F6083D6011A
S1130EC05B960C935B975296ED91FC9153978081BE
S1130ED080620CC0D6015696ED91FC9157976083C1
S1130EE05096ED91FC91519780818064808381E0DC
S1130EF090E00F90DF91CF911F910F91FF90DF90C1
S1130F00CF900895BF92CF92DF92EF92FF92CF934A
S1130F10DF93EC016A017B01B22EE889F98982E052
S1130F208083411581EE580761057105A1F060E0E9
S1130F3079E08DE390E0A70196010E94DD0921503C
S1130F40310941095109569547953795279521153A
S1130F5080E1380798F0E889F989108260E874E83C
S1130F608EE190E0A70196010E94DD09215031092C
S1130F70410951095695479537952795EC85FD8587
S1130F803083EE85FF852083188EEC89FD89B0823D
S1130F90EA89FB89808180618083EA89FB89808179
S1130FA088608083EA89FB89808180688083EA89FC
S1130FB0FB8980818F7D8083DF91CF91FF90EF90BB
S1130FC0DF90CF90BF9008951F920F920FB60F92AB
S1130FD011242F938F939F93EF93FF93E091C50177
S1130FE0F091C6018081E091CB01F091CC0182FDAA
S1130FF012C090818091CE018F5F8F732091CF01B9
S1131000821751F0E091CE01F0E0EB54FE4F958F42
S11310108093CE0101C08081FF91EF919F918F91C8
S11310202F910F900FBE0F901F9018951F920F9243
S11310300FB60F9211242F933F934F935F936F93A7
S11310407F938F939F93AF93BF93EF93FF9385EB1E
S113105091E00E94DA06FF91EF91BF91AF919F91C9
S11310608F917F916F915F914F913F912F910F904D
S11310700FBE0F901F90189585EB91E00E949F067C
S113108021E0892B09F420E0822F08951092B80101
S11310901092B70188EE93E0A0E0B0E08093B9012C
S11310A09093BA01A093BB01B093BC0181E691E097
S11310B09093B6018093B50185EC90E09093C201C2
S11310C08093C10184EC90E09093C4018093C301A8
S11310D080EC90E09093C6018093C50181EC90E090
S11310E09093C8018093C70182EC90E09093CA0169
S11310F08093C90186EC90E09093CC018093CB015E
S11311001092CE011092CF011092D0011092D10111
S11311100895CF92DF92EF92FF920F931F93CF9394
S1131120DF937C016A01EB0100E010E00C151D0562
S113113071F06991D701ED91FC910190F081E02D5E
S1131140C7010995892B19F00F5F1F4FEFCFC80115
S1131150DF91CF911F910F91FF90EF90DF90CF908F
S113116008956115710581F0DB010D900020E9F708
S1131170AD0141505109461B570BDC01ED91FC9127
S11311800280F381E02D099480E090E008950C94AE
S1131190B1086DE671E00C94B1080F931F93CF93DF
S11311A0DF93EC010E94B1088C01CE010E94C908B2
S11311B0800F911FDF91CF911F910F9108958F920E
S11311C09F92AF92BF92DF92EF92FF920F931F9381
S11311D0CF93DF93CDB7DEB7A1970FB6F894DEBFF8
S11311E00FBECDBF7C01F42FD52ECB0119A2223026
S11311F008F42AE08E010F5D1F4F822E912CA12C42
S1131200B12C6F2F7D2DA50194010E94DD09F22FD1
S1131210D32ECA01015011096A3014F4E0E301C06D
S1131220E7E3E60FD801EC93232B242B252B49F776
S1131230B801C7010E94B108A1960FB6F894DEBFA9
S11312400FBECDBFDF91CF911F910F91FF90EF9013
S1131250DF90BF90AF909F908F9008952115310536
S113126041F4DC01ED91FC910190F081E02D642FBB
S113127009940C94DF089A01462F50E060E070E076
S11312800C942E099A01AB0160E070E00C942E09D5
S113129008950E94A2090E9448090E940305CCEC0B
S11312A0D6E00E94FF052097E1F30E94CC06F9CF17
S11312B01F920F920FB60F9211242F933F938F9387
S11312C09F93AF93BF938091530290915402A09146
S11312D05502B09156023091520223E0230F2D376C
S11312E020F40196A11DB11D05C026E8230F029626
S11312F0A11DB11D20935202809353029093540276
S1131300A0935502B09356028091570290915802CF
S1131310A0915902B0915A020196A11DB11D80936A
S1131320570290935802A0935902B0935A02BF9166
S1131330AF919F918F913F912F910F900FBE0F907E
S11313401F901895789484B5826084BD84B58160BB
S113135084BD85B5826085BD85B5816085BDEEE6B9
S1131360F0E0808181608083E1E8F0E01082808198
S113137082608083808181608083E0E8F0E0808106
S113138081608083E1EBF0E0808184608083E0EB26
S1131390F0E0808181608083EAE7F0E0808184600E
S11313A0808380818260808380818160808380816A
S11313B0806880831092C1000895A1E21A2EAA1BAE
S11313C0BB1BFD010DC0AA1FBB1FEE1FFF1FA217F1
S11313D0B307E407F50720F0A21BB30BE40BF50BEE
S11313E0661F771F881F991F1A9469F76095709577
S11313F0809590959B01AC01BD01CF010895EE0F3E
S1111400FF1F0590F491E02D0994F894FFCF9E
S113140E00000000340488002D01310138043E022E
S113141E2D2D2D2D2D2D2D2D2D2D2D2D2D2D2D2DEA
S113142E2D2D2D2D2D2D2D2D2D2D2D2D2D2D2D2DDA
S113143E2D2D2D2D2D2D0043414E204D6F6E697493
S113144E6F722D496E74657266616365003130305A
S113145E20526561647900522000202000000000B3
S113146E001D0789089F06B806AA06FB060D0A008A
S111147E6E616E00696E66006F7666002E0069
S9030000FC
