:107000000C945D380C9485380C9485380C94853834
:107010000C9485380C9485380C9485380C948538FC
:107020000C9485380C9485380C9485380C948538EC
:107030000C9485380C9485380C9485380C948538DC
:107040000C94183E0C9485380C9485380C94853833
:107050000C9485380C9485380C9485380C948538BC
:107060000C9485380C94853800000008000201005B
:1070700000030407000000000000000001020408F3
:107080001020408001020408102001020408102092
:1070900004040404040404040202020202020303BE
:1070A0000303030300000000250028002B0000005C
:1070B0000000240027002A00CE3B11241FBECFEF82
:1070C000D8E0DEBFCDBF11E0A0E0B1E0E8EAFEE726
:1070D00002C005900D92A432B107D9F722E0A4E2D4
:1070E000B1E001C01D92A431B207E1F718E3CDE58C
:1070F000D8E304C02197FE010E94453FCC35D1075B
:10710000C9F70E94363F0C94523F0C9400380C94FF
:107110006D3C8EBD00000DB407FEFDCF8EB5089509
:10712000CF93DF93EC0161E08A810E94C63E61E06B
:107130008A81DF91CF910C94FF3E27E131E0FC0181
:10714000318320832AE022830C94903827E131E0B8
:10715000FC013183208362830C949038CF93DF93BA
:10716000EC0160E08A810E94FF3E80EC0E94893839
:1071700061E08A81DF91CF910C94FF3EEF92FF9204
:107180001F93CF93DF931F92CDB7DEB77C01162FED
:1071900060E0FC01828149830E94FF3E82E00E9400
:1071A0008938812F0E9489384981842F0E9489382B
:1071B00061E0F70182810F90DF91CF911F91FF90E5
:1071C000EF900C94FF3EEF92FF921F93CF93DF93CB
:1071D00000D0CDB7DEB77C01162F60E0FC018281C4
:1071E0002A8349830E94FF3E85E00E948938812FCF
:1071F0000E9489384981842F0E9489382A81822FF0
:107200000E94893861E0F70182810F900F90DF9131
:10721000CF911F91FF90EF900C94FF3E1F93CF935F
:10722000DF93EC0160E08A810E94FF3E80EA0E94C9
:1072300089388FEF0E948938182F61E08A810E9477
:10724000FF3E812FDF91CF911F9108950E940E394B
:10725000837008954F925F926F927F928F929F9268
:10726000AF92BF92DF92EF92FF920F931F93CF9353
:10727000DF93EC014B01CB010E940E3980FD05C06C
:1072800081FD05C088858E7FA2C010E901C014E988
:1072900060E0F40182810E94FF3E812F0E948938C4
:1072A0008FEF0E948938D82E8FEF0E948938E82E00
:1072B0008FEF0E948938082F8FEF0E948938182F8E
:1072C0008FEF0E948938F82E282F2F70922F9295D9
:1072D000907F8D858F70892B8D873E01F0E16F0E39
:1072E000711C412C512CA22EB12C4A145B0454F475
:1072F0008FEF0E948938F30181933F01FFEF4F1A0E
:107300005F0AF3CF61E0F40182810E94FF3E2E2DDF
:1073100030E0C90143E0959587954A95E1F7E88506
:1073200080FBE2F9E887FB81E2FF32C04D2D50E09F
:1073300060E070E0A5E1440F551F661F771FAA9516
:10734000D1F7502B412B0E2D007E10E020E030E0D5
:10735000BDE0000F111F221F331FBA95D1F7402B3C
:10736000512B622B732B8E2D8370682B488359838E
:107370006A83872F8F71F07EF82BFB838F2D90E02F
:1073800016E0959587951A95E1F780FBE1F91CC009
:1073900048E0D49EC0011124092E000CAA0BBB0B9F
:1073A000E294E69447E0E4228E2988839983AA83B5
:1073B0008B2F8F71F07EF82BFB8354E0359527954A
:1073C0005A95E1F720FBE1F9E88788858160888795
:1073D000CE01DF91CF911F910F91FF90EF90DF9041
:1073E000BF90AF909F908F907F906F905F904F90E5
:1073F00008956F927F929F92AF92BF92CF92DF9249
:10740000EF92FF920F931F93CF93DF9300D0CDB7EE
:10741000DEB73C018B010E940E3982FF09C084FF58
:107420000CC086FD9CC024E8B22E34E4932E09C023
:1074300081E8B82E90E4992E04C0A2E8BA2EB2E4F6
:107440009B2EF801358532953F7020859381822FE0
:10745000827022FF24C02081C22ED180E2809F71E1
:10746000F92EB701A601E5E1769567955795479501
:10747000EA95D1F7A42EB701A601FDE076956795B0
:1074800057954795FA95D1F7407E9E2D9370492BDD
:107490004860ED2CF22E8823C9F0306417C0F80143
:1074A000408151816281792F7F716A017B0193E074
:1074B000F694E794D794C7949A95D1F7AC2C42955B
:1074C000440F407E81114061F12CE12C60E0F3011A
:1074D00082813A8349830E94FF3E892D0E94893828
:1074E0008A2D0E9489384981842F0E9489388E2DE7
:1074F0000E9489388F2D0E9489383A81832F0E94FB
:1075000089386801F0E1CF0ED11CE12CF12CF80193
:10751000858582958F7090E0E816F9064CF4F601A7
:1075200081916F010E948938FFEFEF1AFF0AEFCFB8
:1075300061E0F30182810E94FF3E60E0F3018281FD
:107540000E94FF3E8B2D0E94893861E0F301828109
:107550000E94FF3EF801858582958F7001C080E012
:107560000F900F90DF91CF911F910F91FF90EF90AF
:10757000DF90CF90BF90AF909F907F906F900895D5
:10758000262F40EE6FE00C94E338CF93DF93EC01AD
:1075900041E06AE20E94BE3848EB69E2CE010E94F7
:1075A000BE3845E068E2CE01DF91CF910C94BE3841
:1075B000CF93DF93EC0120E640E660E60E94E338DB
:1075C00020E640E660E7CE01DF91CF910C94E338EE
:1075D0001F93CF93DF93EC0160E08A810E94FF3E0E
:1075E00082E00E94893881E60E9489381DE080E0AF
:1075F0000E9489381150D9F761E08A810E94FF3ECC
:1076000060E08A810E94FF3E82E00E94893881E723
:107610000E9489381DE080E00E9489381150D9F716
:1076200061E08A81DF91CF911F910C94FF3E1F93FF
:10763000CF93DF93EC0160E08A810E94FF3E82E0FD
:107640000E94893881E30E9489381DE080E00E9411
:1076500089381150D9F761E08A810E94FF3E60E0CD
:107660008A810E94FF3E82E00E94893881E40E9464
:1076700089381DE080E00E9489381150D9F761E017
:107680008A810E94FF3E60E08A810E94FF3E82E084
:107690000E94893881E50E9489381DE080E00E94BF
:1076A00089381150D9F761E08A81DF91CF911F911C
:1076B0000C94FF3ECF93DF93EC010E94E83ACE0199
:1076C000DF91CF910C94173B1F93CF93DF93EC0185
:1076D000162F60E08A810E94FF3E82E00E94893876
:1076E0008BE20E948938812F0E94893861E08A816B
:1076F000DF91CF911F910C94FF3ECF92DF92EF92DA
:10770000FF920F931F93CF93DF931F92CDB7DEB7F6
:107710008C016A017B0129830E94373CC8010E94C9
:10772000AE38C8010E94E83AC8010E94173BC80160
:107730000E94D83A61E0C8010E94643BB701A601EB
:10774000C8010E94C53A2981622FC8010F90DF91BC
:10775000CF911F910F91FF90EF90DF90CF900C94FD
:10776000C03A20E00C947D3B0F931F93CF93DF939F
:107770001F92CDB7DEB78C0169830E949D3887E0E8
:1077800091E0F8019183808369816283C8010F9041
:10779000DF91CF911F910F910C9490386AE08FE5A3
:1077A00091E00E94A6386AE084E291E00C94B43B38
:1077B0000F931F938C012227332760277127CB015A
:1077C0008F7793601F910F910895CF93DF93CDB77B
:1077D000DEB78D8584608D87898590E0A0E0B0E07C
:1077E00021E1880F991FAA1FBB1F2A95D1F74A854F
:1077F0005B8560E070E0842B952BA62BB72B28854A
:107800003C85207E332311F0A16002C0AE7FBF71A2
:107810008D839E83AF838B2F8F71282B2887BE018A
:107820006B5F7F4F8FE591E00E94F939DF91CF9137
:107830000895CF93DF93EC016FE571E00E942A3940
:1078400088819981AA812B81B22FBF71AC01BD01C2
:1078500081E176956795579547958A95D1F74C8341
:107860008A2F81708F83CE01DF91CF910895CF93BE
:10787000CFB7F89480916301811127C0EAE9F0E75E
:107880008491E6E8F0E79491E82FF0E0EE0FFF1F17
:10789000E255FF48A591B491EC91E92321F461E010
:1078A0008AE00E94FF3E61E08AE00E94C63E8CB5FD
:1078B00080618CBD8CB580648CBD61E08DE00E94E0
:1078C000C63E61E08BE00E94C63E809163018F5FFF
:1078D00080936301CFBFCF9108959FB7F8948091B3
:1078E0006301882319F081508093630180916301C3
:1078F000811105C08CB58F7B8CBD109262019FBF3A
:10790000089540E850E06FEF70E080E791E00E945A
:107910004B3F9FB7F89485B78093F201816085BF94
:107920008091F201826085BF9FBF20E040E950ED69
:1079300063E070E08FE591E00E947D3B2FE784E8F3
:107940009EE1215080409040E1F700C0000060E0DF
:1079500079E189E090E50E94D83B9093F101809312
:10796000F0017894E3EFF1E081E5848384E0808B9B
:107970008091F0019091F1019683858381E0878366
:10798000E0E0F2E080818F70806180838DB79EB7E8
:1079900048970FB6F8949EBF0FBE8DBFADB7BEB768
:1079A000119688E1E3EFF1E001900D928A95E1F7FD
:1079B0000E94E53B9FEF24E38CE091502040804003
:1079C000E1F700C000008DB79EB748960FB6F89457
:1079D0009EBF0FBE8DBF08951F93CF93DF939695E3
:1079E000982F882797958795AFB7F894F999FECF88
:1079F00023E0FC0120935700E89507B600FCFDCF7B
:107A000040E050E0B1E0EB0118816E5F7F4FFA017A
:107A1000E80FF91F9B0121503109E901288130E06D
:107A2000322F2227210F311D0901B0935700E8950D
:107A300011244E5F5F4F4038510529F725E0FC01C6
:107A400020935700E89507B600FCFDCF81E18093B5
:107A50005700E895AFBFDF91CF911F91089585B78B
:107A60008C7F982F916095BF85BF1CBC1DBC1F9259
:107A70001F9208951F93CF93DF93CDB7DEB768971A
:107A80000FB6F894DEBF0FBECDBFE091000180912C
:107A900064018E1740F0EF5FE0930001F0E0E859D9
:107AA000FE4F20816EC085E0809303028091F0013B
:107AB0009091F1019093F9018093F80181E0809316
:107AC000FA01809100028F708061809300028DB76F
:107AD0009EB748970FB6F8949EBF0FBE8DBFADB747
:107AE000BEB7119688E1E3EFF1E001900D928A951F
:107AF000E1F70E94E53B0FB6F894DEBF0FBECDBFA5
:107B000018E18FE591E00E9426398823D1F3CE0158
:107B100001960E94193CFE013196A3EFB1E0812F3E
:107B200001900D928A95E1F78091F701813549F72F
:107B30008091FA018111E5CF809103028530D1F463
:107B40008091000282958F7082508093640190E052
:107B5000292F30E0F901E759FE4FD901AD50BE4F52
:107B600051962C9120839F5F891790F781E0809335
:107B7000000105C0863019F487E08093010120914F
:107B8000690180910101843069F08730C1F560E7B7
:107B900071E080916701909168010E94EC3C109225
:107BA00002012DC08091650190916601FC01E059B0
:107BB000FE4F208301969093660180936501803883
:107BC0009105E9F460E771E08091670190916801A7
:107BD0000E94EC3C40E850E06FEF70E080E791E0FD
:107BE0000E944B3F109266011092650180916701DF
:107BF000909168010196909368018093670180914C
:107C0000020181110BC068960FB6F894DEBF0FBE5B
:107C1000CDBFDF91CF911F910C942F3D68960FB689
:107C2000F894DEBF0FBECDBFDF91CF911F910895B5
:107C30001F920F920FB60F9211242F933F938F93A1
:107C40009F93AF93BF9380910C0290910D02A091EE
:107C50000E02B0910F0230910B0223E0230F2D375B
:107C600020F40196A11DB11D05C026E8230F029640
:107C7000A11DB11D20930B0280930C0290930D0265
:107C8000A0930E02B0930F02809110029091110206
:107C9000A0911202B09113020196A11DB11D809313
:107CA000100290931102A0931202B0931302BF919D
:107CB000AF919F918F913F912F910F900FBE0F9099
:107CC0001F901895789484B5826084BD84B58160D6
:107CD00084BD85B5826085BD85B5816085BDEEE6D4
:107CE000F0E0808181608083E1E8F0E010828081B3
:107CF00082608083808181608083E0E8F0E0808121
:107D000081608083E1EBF0E0808184608083E0EB40
:107D1000F0E0808181608083EAE7F0E08081846028
:107D20008083808182608083808181608083808184
:107D3000806880831092C1000895833081F028F418
:107D4000813099F08230A1F008958730A9F0883011
:107D5000B9F08430D1F4809180008F7D03C0809190
:107D600080008F7780938000089584B58F7702C05C
:107D700084B58F7D84BD08958091B0008F7703C056
:107D80008091B0008F7D8093B0000895CF93DF93F2
:107D900090E0FC01E458FF482491FC01E057FF48C3
:107DA0008491882349F190E0880F991FFC01E255E6
:107DB000FF48A591B4918C559F48FC01C591D49181
:107DC0009FB7611108C0F8948C91209582238C9301
:107DD000888182230AC0623051F4F8948C91322F4A
:107DE000309583238C938881822B888304C0F894F8
:107DF0008C91822B8C939FBFDF91CF9108950F932D
:107E00001F93CF93DF931F92CDB7DEB7282F30E0BB
:107E1000F901E859FF488491F901E458FF481491A9
:107E2000F901E057FF4804910023C9F0882321F0AD
:107E300069830E949D3E6981E02FF0E0EE0FFF1FF5
:107E4000EC55FF48A591B4919FB7F8948C916111BE
:107E500003C01095812301C0812B8C939FBF0F908D
:107E6000DF91CF911F910F91089508950E94623E76
:107E70000E94353F0E94813CC0E0D0E00E943A3D24
:107E80002097E1F30E940000F9CFEE0FFF1F05904D
:107E9000F491E02D0994DC0101C06D9341505040F4
:087EA000E0F70895F894FFCF0C
:107EA80007040100000000B13B873826392A395AF7
:107EB8003BF93900000000B13B873826392A395A86
:047EC8003BF9390049
:040000030000700089
:00000001FF
