:100000000C945D000C94D4080C94FB080C948500AF
:100010000C9485000C9485000C9485000C9485004C
:100020000C9485000C9485000C9485000C9485003C
:100030000C9485000C9485000C9485000C9485002C
:100040000C9422090C9485000C9485000C94850076
:100050000C9485000C9485000C9485000C9485000C
:100060000C9485000C94850000000008000201003B
:100070000003040700000000000000000102040863
:100080001020408001020408102001020408102002
:10009000040404040404040402020202020203032E
:1000A0000303030300000000250028002B000000CC
:1000B0000000240027002A00460411241FBECFEFB1
:1000C000D8E0DEBFCDBF11E0A0E0B1E0EEEEF5E19B
:1000D00002C005900D92A832B107D9F721E0A8E23D
:1000E000B1E001C01D92AA37B207E1F710E0CDE5FB
:1000F000D0E004C02197FE010E94D50ACC35D1077B
:10010000C9F70E949D0A0C94F50A0C9400000C9407
:1001100055058EBD00000DB407FEFDCF8EB50895C8
:10012000CF93DF93EC0161E08A810E942D0A61E0A8
:100130008A81DF91CF910C94660A28E131E0FC01BD
:10014000318320832AE022830C94900028E131E05F
:10015000FC013183208362830C949000CF93DF9362
:10016000EC0160E08A810E94660A80EC0E948900AE
:1001700061E08A81DF91CF910C94660AEF92FF9241
:100180001F93CF93DF931F92CDB7DEB77C01162F5D
:1001900060E0FC01828149830E94660A82E00E943D
:1001A0008900812F0E9489004981842F0E94890043
:1001B00061E0F70182810F90DF91CF911F91FF9055
:1001C000EF900C94660AEF92FF921F93CF93DF9308
:1001D00000D0CDB7DEB77C01162F60E0FC01828134
:1001E0002A8349830E94660A85E00E948900812F44
:1001F0000E9489004981842F0E9489002A81822FD0
:100200000E94890061E0F70182810F900F90DF91D9
:10021000CF911F91FF90EF900C94660A1F93CF939C
:10022000DF93EC0160E08A810E94660A80EA0E9406
:1002300089008FEF0E948900182F61E08A810E9457
:10024000660A812FDF91CF911F9108950E940E01C0
:10025000837008954F925F926F927F928F929F92D8
:10026000AF92BF92DF92EF92FF920F931F93CF93C3
:10027000DF93EC014B01CB010E940E0180FD05C014
:1002800081FD05C088858E7FA2C010E901C014E9F8
:1002900060E0F40182810E94660A812F0E94890039
:1002A0008FEF0E948900D82E8FEF0E948900E82EE0
:1002B0008FEF0E948900082F8FEF0E948900182F6E
:1002C0008FEF0E948900F82E282F2F70922F929581
:1002D000907F8D858F70892B8D873E01F0E16F0EA9
:1002E000711C412C512CA22EB12C4A145B0454F4E5
:1002F0008FEF0E948900F30181933F01FFEF4F1AB6
:100300005F0AF3CF61E0F40182810E94660A2E2D1C
:1003100030E0C90143E0959587954A95E1F7E88576
:1003200080FBE2F9E887FB81E2FF32C04D2D50E00F
:1003300060E070E0A5E1440F551F661F771FAA9586
:10034000D1F7502B412B0E2D007E10E020E030E045
:10035000BDE0000F111F221F331FBA95D1F7402BAC
:10036000512B622B732B8E2D8370682B48835983FE
:100370006A83872F8F71F07EF82BFB838F2D90E09F
:1003800016E0959587951A95E1F780FBE1F91CC079
:1003900048E0D49EC0011124092E000CAA0BBB0B0F
:1003A000E294E69447E0E4228E2988839983AA8325
:1003B0008B2F8F71F07EF82BFB8354E035952795BA
:1003C0005A95E1F720FBE1F9E88788858160888705
:1003D000CE01DF91CF911F910F91FF90EF90DF90B1
:1003E000BF90AF909F908F907F906F905F904F9055
:1003F00008956F927F929F92AF92BF92CF92DF92B9
:10040000EF92FF920F931F93CF93DF9300D0CDB75E
:10041000DEB73C018B010E940E0182FF09C084FF00
:100420000CC086FD9CC024E8B22E34E4932E09C093
:1004300081E8B82E90E4992E04C0A2E8BA2EB2E466
:100440009B2EF801358532953F7020859381822F50
:10045000827022FF24C02081C22ED180E2809F7151
:10046000F92EB701A601E5E1769567955795479571
:10047000EA95D1F7A42EB701A601FDE07695679520
:1004800057954795FA95D1F7407E9E2D9370492B4D
:100490004860ED2CF22E8823C9F0306417C0F801B3
:1004A000408151816281792F7F716A017B0193E0E4
:1004B000F694E794D794C7949A95D1F7AC2C4295CB
:1004C000440F407E81114061F12CE12C60E0F3018A
:1004D00082813A8349830E94660A892D0E9489009D
:1004E0008A2D0E9489004981842F0E9489008E2DC7
:1004F0000E9489008F2D0E9489003A81832F0E94DB
:1005000089006801F0E1CF0ED11CE12CF12CF8013B
:10051000858582958F7090E0E816F9064CF4F60117
:1005200081916F010E948900FFEFEF1AFF0AEFCF60
:1005300061E0F30182810E94660A60E0F30182813A
:100540000E94660A8B2D0E94890061E0F30182817E
:100550000E94660AF801858582958F7001C080E04F
:100560000F900F90DF91CF911F910F91FF90EF901F
:10057000DF90CF90BF90AF909F907F906F90089545
:10058000262F40EE6FE00C94E300CF93DF93EC0155
:1005900041E06AE20E94BE0048EB69E2CE010E949F
:1005A000BE0045E068E2CE01DF91CF910C94BE0021
:1005B000CF93DF93EC0120E640E660E60E94E30083
:1005C00020E640E660E7CE01DF91CF910C94E30096
:1005D0001F93CF93DF93EC0160E08A810E94660A4B
:1005E00082E00E94890081E60E9489001DE080E08F
:1005F0000E9489001150D9F761E08A810E94660A41
:1006000060E08A810E94660A82E00E94890081E798
:100610000E9489001DE080E00E9489001150D9F7F6
:1006200061E08A81DF91CF911F910C94660A1F933C
:10063000CF93DF93EC0160E08A810E94660A82E03A
:100640000E94890081E30E9489001DE080E00E94F1
:1006500089001150D9F761E08A810E94660A60E042
:100660008A810E94660A82E00E94890081E40E94D9
:1006700089001DE080E00E9489001150D9F761E0F7
:100680008A810E94660A60E08A810E94660A82E08E
:100690000E94890081E50E9489001DE080E00E949F
:1006A00089001150D9F761E08A81DF91CF911F91C4
:1006B0000C94660ACF93DF93EC010E94E802CE010E
:1006C000DF91CF910C9417031F93CF93DF93EC012D
:1006D000162F60E08A810E94660A82E00E948900EB
:1006E0008BE20E948900812F0E94890061E08A814B
:1006F000DF91CF911F910C94660ACF92DF92EF9217
:10070000FF920F931F93CF93DF931F92CDB7DEB766
:100710008C016A017B0129830E941F05C8010E9488
:10072000AE00C8010E94E802C8010E941703C80178
:100730000E94D80261E0C8010E946403B701A601CB
:10074000C8010E94C5022981622FC8010F90DF9164
:10075000CF911F910F91FF90EF90DF90CF900C946D
:10076000C00220E00C947D030F931F93CF93DF937F
:100770001F92CDB7DEB78C0169830E949D0088E08F
:1007800091E0F8019183808369816283C8010F90B1
:10079000DF91CF911F910F910C949000FC01838108
:1007A0009481928B818B438B6295607F818D8F705A
:1007B000682B618F8DB79EB748970FB6F8949EBF90
:1007C0000FBE8DBFADB7BEB7119688E13C960190C4
:1007D0000D928A95E1F70E94CD048DB79EB7489699
:1007E0000FB6F8949EBF0FBE8DBF089541E00C94E4
:1007F000CE03FC018DE1808B8085848F8185858F80
:100800008285868F8385878F60A341A366E0CF01B1
:100810000C94F603CF93DF93FC018DE1808B4F5F47
:100820005F4F528B418B81E0838B818D8F7080680D
:10083000818FDB01EF016C96CF0184962D91299376
:10084000C817D907D9F78DB79EB748970FB6F89450
:100850009EBF0FBE8DBFADB7BEB7119688E13C9667
:1008600001900D928A95E1F70E94CD048DB79EB755
:1008700048960FB6F8949EBF0FBE8DBF61E070E042
:1008800080E090E0DF91CF910C948F096AE084E6DC
:1008900091E00E94A6006AE088E291E00C94B40323
:1008A0006AE070E00E94AD0A80E3860F08956AE076
:1008B00070E00E94AD0A805D089570E0605F7F4F38
:1008C000FA01E60FF71F9C012D5F3F4FDC014D91B0
:1008D000CD014193A217B307C9F70895982F9295B8
:1008E0009F708F702AE0929F800D11240895CF92FF
:1008F000DF92EF92FF92FA01208130E0A90140538C
:100900005109218130E020533109D901AA0FBB1FC1
:100910002A0F3B1F240F351F6901330FEE08FF0814
:100920006C0D7D1D8E1D9F1D93838483758366834F
:10093000FF90EF90DF90CF9008950F931F938C015D
:100940002227332760277127CB018F7793601F9170
:100950000F910895E8E2F1E083E0848F8581858F2F
:100960008681868F63E0CF010E94F6032FEF84E338
:100970009CE0215080409040E1F700C0000080E002
:100980000E94C2082FE78FE492E1215080409040FE
:10099000E1F700C000000C94001CCF93DF93CDB7AB
:1009A000DEB78D8584608D87898590E0A0E0B0E01A
:1009B00021E1880F991FAA1FBB1F2A95D1F74A85ED
:1009C0005B8560E070E0842B952BA62BB72B2885E8
:1009D0003C85207E332311F0A16002C0AE7FBF7141
:1009E0008D839E83AF838B2F8F71282B2887BE0129
:1009F0006B5F7F4F84E691E00E94F901DF91CF9118
:100A00000895CF93DF93EC0164E671E00E942A0120
:100A100088819981AA812B81B22FBF71AC01BD0160
:100A200081E176956795579547958A95D1F74C83DF
:100A30008A2F81708F83CE01DF91CF910895CF935C
:100A4000CFB7F89480916801811127C0EAE9F0E0FE
:100A50008491E6E8F0E09491E82FF0E0EE0FFF1FBC
:100A6000E255FF4FA591B491EC91E92321F461E0A7
:100A70008AE00E94660A61E08AE00E942D0A8CB535
:100A800080618CBD8CB580648CBD61E08DE00E947E
:100A90002D0A61E08BE00E942D0A809168018F5F32
:100AA00080936801CFBFCF9108959FB7F89480914C
:100AB0006801882319F08150809368018091680152
:100AC000811105C08CB58F7B8CBD109267019FBFD3
:100AD0000895CF9380E090E00E94DB0A873479F09C
:100AE00060E381E090E00E94E30A60E382E090E04E
:100AF0000E94E30A67E480E090E00E94E30A81E05C
:100B000090E00E94DB0AC82F80932D0182E090E0E4
:100B10000E94DB0A80932E018053CC0FC0569C2F7D
:100B2000990F990FC90FC80FC0932F014DE251E0E3
:100B300060EF79E189E090E50E94770460936901B4
:100B400070936A0180936B0190936C0120E040E9FF
:100B500050ED63E070E088E291E00E947D032FEFAA
:100B600084E39CE0215080409040E1F700C0000009
:100B70006091690170916A0180916B0190916C01A3
:100B80000E949D0490932C0180932B0140E050E043
:100B900062EE75E080E0CF910C94A208E8E2F1E00B
:100BA00081E0848F8581858F8681868F44E351E043
:100BB00063E084E291E00E945D0466E088E291E0F7
:100BC0000C94F603CF93DF93CDB7DEB768970FB6DB
:100BD000F894DEBF0FBECDBFCE0101960E94010585
:100BE00088E1FE013196ACE4B1E001900D928A9566
:100BF000E1F78091530181115AC1809150018831F0
:100C000009F49BC030F4811152C120E030E081E052
:100C100014C08D3109F4BAC0823509F4D9C047C176
:100C200081E0F901E85DFE4F408594A9491380E019
:100C30002F5F3F4F2430310519F08823C9F3F0CFDF
:100C400080936D01882309F432C1809160018B305B
:100C500009F02DC180916101813019F08230E9F0F5
:100C60005EC06091620180916301982F20E1629FD4
:100C7000900D112490932F01805D80932E01605D73
:100C800060932D0181E090E00E94E30A60912E01C3
:100C900082E090E00E94E30A42C0809163018130CB
:100CA00019F18230E1F588E1ECE4F1E0A4E3B1E090
:100CB00001900D928A95E1F781E080934A0167E007
:100CC00088E291E00E94F6038FE79FE422E18150E1
:100CD00090402040E1F700C000006FEF80E090E01E
:100CE0000E94E30A0C94000098E1ECE4F1E0A4E334
:100CF000B1E001900D929A95E1F780934A0167E087
:100D000088E291E00E94F6038FE79FE422E18150A0
:100D100090402040E1F700C000000C94000088E102
:100D2000ECE4F1E0A4E3B1E001900D928A95E1F7E3
:100D300081E080934A0167E01DC080933801809173
:100D4000300180934401809131018093450180916D
:100D500032018093460180913301809347011092C4
:100D6000480183E08093490110924A0180E5809315
:100D70004B0168E088E291E068960FB6F894DEBF18
:100D80000FBECDBFDF91CF910C94F60320E030E091
:100D900081E0882341F081E0F901E85DFE4F408564
:100DA00094A9491380E02F5F3F4F2430310589F724
:100DB00080936D01882309F47AC081E080936E01ED
:100DC0008091600190E09093700180936F016FC0FB
:100DD00090915D0180912D01981369C090915E0101
:100DE00080912E01981363C083E580933801809130
:100DF0005C018230E9F0833061F0811158C068965F
:100E00000FB6F894DEBF0FBECDBFDF91CF910C942B
:100E1000CE056FEF80E090E00E94E30A68960FB67F
:100E2000F894DEBF0FBECDBFDF91CF910C94AA0422
:100E30000E94CE0560915F0181E090E00E94E30A8C
:100E40006091600182E090E00E94E30A81E090E01E
:100E50000E94DB0A80932D0182E090E00E94DB0A71
:100E600080932E014DE251E060E079E189E090E568
:100E70000E9477046093690170936A0180936B010B
:100E800090936C010E949D0490932C0180932B0100
:100E900080912E0120ED280F80912D01880F805622
:100EA000982F990F990F890F820F80932F016896C1
:100EB0000FB6F894DEBF0FBECDBFDF91CF9108957E
:100EC0006F927F928F929F92AF92BF92CF92DF925A
:100ED000EF92FF920F931F93CF93DF93CDB7DEB7BF
:100EE000C356D1090FB6F894DEBF0FBECDBF5C016B
:100EF00084E0A2968FAFA297A3968FAFA397A496F4
:100F00008FAFA497CE0101966C0180E6F601119295
:100F10008A95E9F762E06A8383E4898BA1E4AA8B6E
:100F20005EE45B8B87E68C8B45E74D8B22E72E8B4F
:100F30004F8B80E2888F82E4898F91E69A8F83E7D6
:100F40008B8F35E63C8FF1E0F9A36AA374E17EA3B1
:100F50007DE479A77FE67AA774E67BA74CA7ECE649
:100F6000EDA79EA77FA728AB39AB8AAB8BAB3CAB79
:100F7000B0E3BEAB12E318AFB9AFABAF7CAF2DAFF0
:100F800022966FAF22972396FFAF239763E02496B4
:100F90006FAF24972A965FAF2A972B963FAF2B9778
:100FA0002C964FAF2C972D968FAF2D9784E72E96CA
:100FB0008FAF2E972F969FAF2F9760962FAF60978A
:100FC00061968FAF619763965FAF639764963FAF0B
:100FD000649739E665963FAF65973EE666963FAF04
:100FE000669737E568963FAF689769969FAF6997B0
:100FF0006A962FAF6A972DE66B962FAF6B972BE40F
:101000006D962FAF6D976E969FAF6E976F96EFAF01
:101010006F97A0968FAFA09780912F0188878091BE
:1010200030010E946E0490E00E94500489878091F4
:1010300030010E946E0490E00E9457048A878091DC
:1010400031010E946E0490E00E9450048B878091D1
:1010500031010E946E0490E00E9457048C878091B9
:1010600032010E946E0490E00E9450048D878091AE
:1010700032010E946E0490E00E9457048E87809196
:1010800033010E946E0490E00E9450048F8780918B
:1010900033010E946E0490E00E945704888B809177
:1010A0002F0188A7350185E0660C771C8A95E1F74A
:1010B000812C912CE12CF12C01E610E00C0F1D1F6E
:1010C0000A0D1B1DF801408150E0E416F5068CF472
:1010D000B401660D771D6C0D7D1DA70188E291E0BE
:1010E0000E940A04FFEFEF1AFF0A88E0880E911CA5
:1010F000E9CFB50188E291E00E94F903CD59DF4FB5
:101100000FB6F894DEBF0FBECDBFDF91CF911F9118
:101110000F91FF90EF90DF90CF90BF90AF909F9096
:101120008F907F906F90089580916E01882341F099
:1011300010926E0180916F01909170010C94600784
:10114000089508958230E8F4E82FF0E0EE0FFF1FD5
:10115000E050FF4F71836083813041F080916900DE
:101160008C7F842B80936900E89A089580916900B0
:10117000440F551F440F551F837F842B80936900B4
:10118000E99A0895823078F4813011F0E89801C02E
:10119000E998E82FF0E0EE0FFF1FE050FF4F81EAE3
:1011A00098E09183808308951F920F920FB60F925B
:1011B00011242F933F934F935F936F937F938F935C
:1011C0009F93AF93BF93EF93FF93E0910001F09152
:1011D00001010995FF91EF91BF91AF919F918F917F
:1011E0007F916F915F914F913F912F910F900FBE23
:1011F0000F901F9018951F920F920FB60F92112407
:101200002F933F934F935F936F937F938F939F930E
:10121000AF93BF93EF93FF93E0910201F09103012D
:101220000995FF91EF91BF91AF919F918F917F9120
:101230006F915F914F913F912F910F900FBE0F9043
:101240001F9018951F920F920FB60F9211242F9393
:101250003F938F939F93AF93BF938091720190912F
:101260007301A0917401B09175013091710123E077
:10127000230F2D3720F40196A11DB11D05C026E8CE
:10128000230F0296A11DB11D20937101809372015D
:1012900090937301A0937401B093750180917601CE
:1012A00090917701A0917801B09179010196A11DEB
:1012B000B11D8093760190937701A0937801B0934C
:1012C0007901BF91AF919F918F913F912F910F9095
:1012D0000FBE0F901F9018953FB7F894809176013C
:1012E00090917701A0917801B091790126B5A89BE2
:1012F00005C02F3F19F00196A11DB11D3FBF662704
:10130000782F892F9A2F620F711D811D911D42E048
:10131000660F771F881F991F4A95D1F708958F92FE
:101320009F92AF92BF92CF92DF92EF92FF926B01AA
:101330007C010E946C094B015C01C114D104E104E1
:10134000F104F1F00E94AC0A0E946C096819790955
:101350008A099B09683E73408105910570F321E07D
:10136000C21AD108E108F10888EE880E83E0981EC1
:10137000A11CB11CC114D104E104F10429F7DDCF93
:10138000FF90EF90DF90CF90BF90AF909F908F90A5
:101390000895789484B5826084BD84B5816084BDED
:1013A00085B5826085BD85B5816085BDEEE6F0E0DE
:1013B000808181608083E1E8F0E01082808182603A
:1013C0008083808181608083E0E8F0E080818160BB
:1013D0008083E1EBF0E0808184608083E0EBF0E0EB
:1013E000808181608083EAE7F0E08081846080838F
:1013F0008081826080838081816080838081806839
:1014000080831092C1000895833081F028F48130E8
:1014100099F08230A1F008958730A9F08830B9F0B2
:101420008430D1F4809180008F7D03C08091800052
:101430008F7780938000089584B58F7702C084B53C
:101440008F7D84BD08958091B0008F7703C0809117
:10145000B0008F7D8093B0000895CF93DF9390E02C
:10146000FC01E458FF4F2491FC01E057FF4F8491A9
:10147000882349F190E0880F991FFC01E255FF4F46
:10148000A591B4918C559F4FFC01C591D4919FB704
:10149000611108C0F8948C91209582238C938881E7
:1014A00082230AC0623051F4F8948C91322F309527
:1014B00083238C938881822B888304C0F8948C9139
:1014C000822B8C939FBFDF91CF9108950F931F9331
:1014D000CF93DF931F92CDB7DEB7282F30E0F9010D
:1014E000E859FF4F8491F901E458FF4F1491F90135
:1014F000E057FF4F04910023C9F0882321F069834E
:101500000E94040A6981E02FF0E0EE0FFF1FEC5506
:10151000FF4FA591B4919FB7F8948C91611103C0CE
:101520001095812301C0812B8C939FBF0F90DF9179
:10153000CF911F910F91089508950E94C9090E94AB
:101540009C0A0E946905C0E0D0E00E9494082097A0
:10155000E1F30E940000F9CF089597FB072E16F4DF
:10156000009407D077FD09D00E94C10A07FC05D07E
:101570003EF4909581959F4F0895709561957F4FAA
:101580000895AA1BBB1B51E107C0AA1FBB1FA617CA
:10159000B70710F0A61BB70B881F991F5A95A9F71C
:1015A00080959095BC01CD010895EE0FFF1F059029
:1015B000F491E02D0994F999FECF92BD81BDF89A7E
:1015C000992780B50895262FF999FECF92BD81BD48
:1015D000F89A019700B4021639F01FBA20BD0FB671
:0E15E000F894FA9AF99A0FBE0895F894FFCF86
:1015EE00A108A10800000000B103870026012A010E
:1015FE005A03F90100000000B103870026012A01F9
:08160E005A03F9016273650043
:107000000C945D380C9485380C9485380C94853834
:107010000C9485380C9485380C9485380C948538FC
:107020000C9485380C9485380C9485380C948538EC
:107030000C9485380C9485380C9485380C948538DC
:107040000C94183E0C9485380C9485380C94853833
:107050000C9485380C9485380C9485380C948538BC
:107060000C9485380C94853800000008000201005B
:1070700000030407000000000000000001020408F3
:107080001020408001020408102001020408102092
:1070900004040404040404040202020202020303BE
:1070A0000303030300000000250028002B0000005C
:1070B0000000240027002A00CE3B11241FBECFEF82
:1070C000D8E0DEBFCDBF11E0A0E0B1E0E8EAFEE726
:1070D00002C005900D92A432B107D9F722E0A4E2D4
:1070E000B1E001C01D92A431B207E1F718E3CDE58C
:1070F000D8E304C02197FE010E94453FCC35D1075B
:10710000C9F70E94363F0C94523F0C9400380C94FF
:107110006D3C8EBD00000DB407FEFDCF8EB5089509
:10712000CF93DF93EC0161E08A810E94C63E61E06B
:107130008A81DF91CF910C94FF3E27E131E0FC0181
:10714000318320832AE022830C94903827E131E0B8
:10715000FC013183208362830C949038CF93DF93BA
:10716000EC0160E08A810E94FF3E80EC0E94893839
:1071700061E08A81DF91CF910C94FF3EEF92FF9204
:107180001F93CF93DF931F92CDB7DEB77C01162FED
:1071900060E0FC01828149830E94FF3E82E00E9400
:1071A0008938812F0E9489384981842F0E9489382B
:1071B00061E0F70182810F90DF91CF911F91FF90E5
:1071C000EF900C94FF3EEF92FF921F93CF93DF93CB
:1071D00000D0CDB7DEB77C01162F60E0FC018281C4
:1071E0002A8349830E94FF3E85E00E948938812FCF
:1071F0000E9489384981842F0E9489382A81822FF0
:107200000E94893861E0F70182810F900F90DF9131
:10721000CF911F91FF90EF900C94FF3E1F93CF935F
:10722000DF93EC0160E08A810E94FF3E80EA0E94C9
:1072300089388FEF0E948938182F61E08A810E9477
:10724000FF3E812FDF91CF911F9108950E940E394B
:10725000837008954F925F926F927F928F929F9268
:10726000AF92BF92DF92EF92FF920F931F93CF9353
:10727000DF93EC014B01CB010E940E3980FD05C06C
:1072800081FD05C088858E7FA2C010E901C014E988
:1072900060E0F40182810E94FF3E812F0E948938C4
:1072A0008FEF0E948938D82E8FEF0E948938E82E00
:1072B0008FEF0E948938082F8FEF0E948938182F8E
:1072C0008FEF0E948938F82E282F2F70922F9295D9
:1072D000907F8D858F70892B8D873E01F0E16F0E39
:1072E000711C412C512CA22EB12C4A145B0454F475
:1072F0008FEF0E948938F30181933F01FFEF4F1A0E
:107300005F0AF3CF61E0F40182810E94FF3E2E2DDF
:1073100030E0C90143E0959587954A95E1F7E88506
:1073200080FBE2F9E887FB81E2FF32C04D2D50E09F
:1073300060E070E0A5E1440F551F661F771FAA9516
:10734000D1F7502B412B0E2D007E10E020E030E0D5
:10735000BDE0000F111F221F331FBA95D1F7402B3C
:10736000512B622B732B8E2D8370682B488359838E
:107370006A83872F8F71F07EF82BFB838F2D90E02F
:1073800016E0959587951A95E1F780FBE1F91CC009
:1073900048E0D49EC0011124092E000CAA0BBB0B9F
:1073A000E294E69447E0E4228E2988839983AA83B5
:1073B0008B2F8F71F07EF82BFB8354E0359527954A
:1073C0005A95E1F720FBE1F9E88788858160888795
:1073D000CE01DF91CF911F910F91FF90EF90DF9041
:1073E000BF90AF909F908F907F906F905F904F90E5
:1073F00008956F927F929F92AF92BF92CF92DF9249
:10740000EF92FF920F931F93CF93DF9300D0CDB7EE
:10741000DEB73C018B010E940E3982FF09C084FF58
:107420000CC086FD9CC024E8B22E34E4932E09C023
:1074300081E8B82E90E4992E04C0A2E8BA2EB2E4F6
:107440009B2EF801358532953F7020859381822FE0
:10745000827022FF24C02081C22ED180E2809F71E1
:10746000F92EB701A601E5E1769567955795479501
:10747000EA95D1F7A42EB701A601FDE076956795B0
:1074800057954795FA95D1F7407E9E2D9370492BDD
:107490004860ED2CF22E8823C9F0306417C0F80143
:1074A000408151816281792F7F716A017B0193E074
:1074B000F694E794D794C7949A95D1F7AC2C42955B
:1074C000440F407E81114061F12CE12C60E0F3011A
:1074D00082813A8349830E94FF3E892D0E94893828
:1074E0008A2D0E9489384981842F0E9489388E2DE7
:1074F0000E9489388F2D0E9489383A81832F0E94FB
:1075000089386801F0E1CF0ED11CE12CF12CF80193
:10751000858582958F7090E0E816F9064CF4F601A7
:1075200081916F010E948938FFEFEF1AFF0AEFCFB8
:1075300061E0F30182810E94FF3E60E0F3018281FD
:107540000E94FF3E8B2D0E94893861E0F301828109
:107550000E94FF3EF801858582958F7001C080E012
:107560000F900F90DF91CF911F910F91FF90EF90AF
:10757000DF90CF90BF90AF909F907F906F900895D5
:10758000262F40EE6FE00C94E338CF93DF93EC01AD
:1075900041E06AE20E94BE3848EB69E2CE010E94F7
:1075A000BE3845E068E2CE01DF91CF910C94BE3841
:1075B000CF93DF93EC0120E640E660E60E94E338DB
:1075C00020E640E660E7CE01DF91CF910C94E338EE
:1075D0001F93CF93DF93EC0160E08A810E94FF3E0E
:1075E00082E00E94893881E60E9489381DE080E0AF
:1075F0000E9489381150D9F761E08A810E94FF3ECC
:1076000060E08A810E94FF3E82E00E94893881E723
:107610000E9489381DE080E00E9489381150D9F716
:1076200061E08A81DF91CF911F910C94FF3E1F93FF
:10763000CF93DF93EC0160E08A810E94FF3E82E0FD
:107640000E94893881E30E9489381DE080E00E9411
:1076500089381150D9F761E08A810E94FF3E60E0CD
:107660008A810E94FF3E82E00E94893881E40E9464
:1076700089381DE080E00E9489381150D9F761E017
:107680008A810E94FF3E60E08A810E94FF3E82E084
:107690000E94893881E50E9489381DE080E00E94BF
:1076A00089381150D9F761E08A81DF91CF911F911C
:1076B0000C94FF3ECF93DF93EC010E94E83ACE0199
:1076C000DF91CF910C94173B1F93CF93DF93EC0185
:1076D000162F60E08A810E94FF3E82E00E94893876
:1076E0008BE20E948938812F0E94893861E08A816B
:1076F000DF91CF911F910C94FF3ECF92DF92EF92DA
:10770000FF920F931F93CF93DF931F92CDB7DEB7F6
:107710008C016A017B0129830E94373CC8010E94C9
:10772000AE38C8010E94E83AC8010E94173BC80160
:107730000E94D83A61E0C8010E94643BB701A601EB
:10774000C8010E94C53A2981622FC8010F90DF91BC
:10775000CF911F910F91FF90EF90DF90CF900C94FD
:10776000C03A20E00C947D3B0F931F93CF93DF939F
:107770001F92CDB7DEB78C0169830E949D3887E0E8
:1077800091E0F8019183808369816283C8010F9041
:10779000DF91CF911F910F910C9490386AE08FE5A3
:1077A00091E00E94A6386AE084E291E00C94B43B38
:1077B0000F931F938C012227332760277127CB015A
:1077C0008F7793601F910F910895CF93DF93CDB77B
:1077D000DEB78D8584608D87898590E0A0E0B0E07C
:1077E00021E1880F991FAA1FBB1F2A95D1F74A854F
:1077F0005B8560E070E0842B952BA62BB72B28854A
:107800003C85207E332311F0A16002C0AE7FBF71A2
:107810008D839E83AF838B2F8F71282B2887BE018A
:107820006B5F7F4F8FE591E00E94F939DF91CF9137
:107830000895CF93DF93EC016FE571E00E942A3940
:1078400088819981AA812B81B22FBF71AC01BD01C2
:1078500081E176956795579547958A95D1F74C8341
:107860008A2F81708F83CE01DF91CF910895CF93BE
:10787000CFB7F89480916301811127C0EAE9F0E75E
:107880008491E6E8F0E79491E82FF0E0EE0FFF1F17
:10789000E255FF48A591B491EC91E92321F461E010
:1078A0008AE00E94FF3E61E08AE00E94C63E8CB5FD
:1078B00080618CBD8CB580648CBD61E08DE00E94E0
:1078C000C63E61E08BE00E94C63E809163018F5FFF
:1078D00080936301CFBFCF9108959FB7F8948091B3
:1078E0006301882319F081508093630180916301C3
:1078F000811105C08CB58F7B8CBD109262019FBF3A
:10790000089540E850E06FEF70E080E791E00E945A
:107910004B3F9FB7F89485B78093F201816085BF94
:107920008091F201826085BF9FBF20E040E950ED69
:1079300063E070E08FE591E00E947D3B2FE784E8F3
:107940009EE1215080409040E1F700C0000060E0DF
:1079500079E189E090E50E94D83B9093F101809312
:10796000F0017894E3EFF1E081E5848384E0808B9B
:107970008091F0019091F1019683858381E0878366
:10798000E0E0F2E080818F70806180838DB79EB7E8
:1079900048970FB6F8949EBF0FBE8DBFADB7BEB768
:1079A000119688E1E3EFF1E001900D928A95E1F7FD
:1079B0000E94E53B9FEF24E38CE091502040804003
:1079C000E1F700C000008DB79EB748960FB6F89457
:1079D0009EBF0FBE8DBF08951F93CF93DF939695E3
:1079E000982F882797958795AFB7F894F999FECF88
:1079F00023E0FC0120935700E89507B600FCFDCF7B
:107A000040E050E0B1E0EB0118816E5F7F4FFA017A
:107A1000E80FF91F9B0121503109E901288130E06D
:107A2000322F2227210F311D0901B0935700E8950D
:107A300011244E5F5F4F4038510529F725E0FC01C6
:107A400020935700E89507B600FCFDCF81E18093B5
:107A50005700E895AFBFDF91CF911F91089585B78B
:107A60008C7F982F916095BF85BF1CBC1DBC1F9259
:107A70001F9208951F93CF93DF93CDB7DEB768971A
:107A80000FB6F894DEBF0FBECDBFE091000180912C
:107A900064018E1740F0EF5FE0930001F0E0E859D9
:107AA000FE4F20816EC085E0809303028091F0013B
:107AB0009091F1019093F9018093F80181E0809316
:107AC000FA01809100028F708061809300028DB76F
:107AD0009EB748970FB6F8949EBF0FBE8DBFADB747
:107AE000BEB7119688E1E3EFF1E001900D928A951F
:107AF000E1F70E94E53B0FB6F894DEBF0FBECDBFA5
:107B000018E18FE591E00E9426398823D1F3CE0158
:107B100001960E94193CFE013196A3EFB1E0812F3E
:107B200001900D928A95E1F78091F701813549F72F
:107B30008091FA018111E5CF809103028530D1F463
:107B40008091000282958F7082508093640190E052
:107B5000292F30E0F901E759FE4FD901AD50BE4F52
:107B600051962C9120839F5F891790F781E0809335
:107B7000000105C0863019F487E08093010120914F
:107B8000690180910101843069F08730C1F560E7B7
:107B900071E080916701909168010E94EC3C109225
:107BA00002012DC08091650190916601FC01E059B0
:107BB000FE4F208301969093660180936501803883
:107BC0009105E9F460E771E08091670190916801A7
:107BD0000E94EC3C40E850E06FEF70E080E791E0FD
:107BE0000E944B3F109266011092650180916701DF
:107BF000909168010196909368018093670180914C
:107C0000020181110BC068960FB6F894DEBF0FBE5B
:107C1000CDBFDF91CF911F910C942F3D68960FB689
:107C2000F894DEBF0FBECDBFDF91CF911F910895B5
:107C30001F920F920FB60F9211242F933F938F93A1
:107C40009F93AF93BF9380910C0290910D02A091EE
:107C50000E02B0910F0230910B0223E0230F2D375B
:107C600020F40196A11DB11D05C026E8230F029640
:107C7000A11DB11D20930B0280930C0290930D0265
:107C8000A0930E02B0930F02809110029091110206
:107C9000A0911202B09113020196A11DB11D809313
:107CA000100290931102A0931202B0931302BF919D
:107CB000AF919F918F913F912F910F900FBE0F9099
:107CC0001F901895789484B5826084BD84B58160D6
:107CD00084BD85B5826085BD85B5816085BDEEE6D4
:107CE000F0E0808181608083E1E8F0E010828081B3
:107CF00082608083808181608083E0E8F0E0808121
:107D000081608083E1EBF0E0808184608083E0EB40
:107D1000F0E0808181608083EAE7F0E08081846028
:107D20008083808182608083808181608083808184
:107D3000806880831092C1000895833081F028F418
:107D4000813099F08230A1F008958730A9F0883011
:107D5000B9F08430D1F4809180008F7D03C0809190
:107D600080008F7780938000089584B58F7702C05C
:107D700084B58F7D84BD08958091B0008F7703C056
:107D80008091B0008F7D8093B0000895CF93DF93F2
:107D900090E0FC01E458FF482491FC01E057FF48C3
:107DA0008491882349F190E0880F991FFC01E255E6
:107DB000FF48A591B4918C559F48FC01C591D49181
:107DC0009FB7611108C0F8948C91209582238C9301
:107DD000888182230AC0623051F4F8948C91322F4A
:107DE000309583238C938881822B888304C0F894F8
:107DF0008C91822B8C939FBFDF91CF9108950F932D
:107E00001F93CF93DF931F92CDB7DEB7282F30E0BB
:107E1000F901E859FF488491F901E458FF481491A9
:107E2000F901E057FF4804910023C9F0882321F0AD
:107E300069830E949D3E6981E02FF0E0EE0FFF1FF5
:107E4000EC55FF48A591B4919FB7F8948C916111BE
:107E500003C01095812301C0812B8C939FBF0F908D
:107E6000DF91CF911F910F91089508950E94623E76
:107E70000E94353F0E94813CC0E0D0E00E943A3D24
:107E80002097E1F30E940000F9CFEE0FFF1F05904D
:107E9000F491E02D0994DC0101C06D9341505040F4
:087EA000E0F70895F894FFCF0C
:107EA80007040100000000B13B873826392A395AF7
:107EB8003BF93900000000B13B873826392A395A86
:047EC8003BF9390049
:040000030000700089
:00000001FF
