:100000000C945E000C9441080C9468080C948600D3
:100010000C9486000C9486000C9486000C94860048
:100020000C9486000C9486000C9486000C94860038
:100030000C9486000C9486000C9486000C94860028
:100040000C948F080C9486000C944E0B0C94800B2F
:100050000C9486000C9486000C9486000C94860008
:100060000C9486000C948600000000080002010039
:100070000003040700000000000000000102040863
:100080001020408001020408102001020408102002
:10009000040404040404040402020202020203032E
:1000A0000303030300000000250028002B000000CC
:1000B0000000240027002A004704B00B11241FBEB3
:1000C000CFEFD8E0DEBFCDBF11E0A0E0B1E0ECE3C0
:1000D000FFE102C005900D92A03AB107D9F722E0E6
:1000E000A0EAB1E001C01D92AE38B207E1F710E01E
:1000F000CEE5D0E004C02197FE010E94A40CCC35CF
:10010000D107C9F70E944A0C0C949C0F0C94000074
:100110000C9433058EBD00000DB407FEFDCF8EB5E7
:100120000895CF93DF93EC0161E08A810E949A09E0
:1001300061E08A81DF91CF910C94D30928E131E00D
:10014000FC01318320832AE022830C94910028E172
:1001500031E0FC013183208362830C949100CF93C2
:10016000DF93EC0160E08A810E94D30980EC0E9459
:100170008A0061E08A81DF91CF910C94D309EF92DC
:10018000FF921F93CF93DF931F92CDB7DEB77C0111
:10019000162F60E0FC01828149830E94D30982E02E
:1001A0000E948A00812F0E948A004981842F0E9428
:1001B0008A0061E0F70182810F90DF91CF911F915A
:1001C000FF90EF900C94D309EF92FF921F93CF937F
:1001D000DF9300D0CDB7DEB77C01162F60E0FC01C5
:1001E00082812A8349830E94D30985E00E948A0084
:1001F000812F0E948A004981842F0E948A002A81CF
:10020000822F0E948A0061E0F70182810F900F9097
:10021000DF91CF911F91FF90EF900C94D3091F9322
:10022000CF93DF93EC0160E08A810E94D30980EADA
:100230000E948A008FEF0E948A00182F61E08A8155
:100240000E94D309812FDF91CF911F9108950E94C1
:100250000F01837008954F925F926F927F928F92F9
:100260009F92AF92BF92DF92EF92FF920F931F93F4
:10027000CF93DF93EC014B01CB010E940F0180FD76
:1002800005C081FD05C088858E7FA2C010E901C030
:1002900014E960E0F40182810E94D309812F0E9459
:1002A0008A008FEF0E948A00D82E8FEF0E948A006A
:1002B000E82E8FEF0E948A00082F8FEF0E948A009D
:1002C000182F8FEF0E948A00F82E282F2F70922F60
:1002D0009295907F8D858F70892B8D873E01F0E1FF
:1002E0006F0E711C412C512CA22EB12C4A145B04B0
:1002F00054F48FEF0E948A00F30181933F01FFEFD6
:100300004F1A5F0AF3CF61E0F40182810E94D309A2
:100310002E2D30E0C90143E0959587954A95E1F788
:10032000E88580FBE2F9E887FB81E2FF32C04D2DD2
:1003300050E060E070E0A5E1440F551F661F771F95
:10034000AA95D1F7502B412B0E2D007E10E020E016
:1003500030E0BDE0000F111F221F331FBA95D1F707
:10036000402B512B622B732B8E2D8370682B48836F
:1003700059836A83872F8F71F07EF82BFB838F2D33
:1003800090E016E0959587951A95E1F780FBE1F9E5
:100390001CC048E0D49EC0011124092E000CAA0BF9
:1003A000BB0BE294E69447E0E4228E29888399838C
:1003B000AA838B2F8F71F07EF82BFB8354E0359549
:1003C00027955A95E1F720FBE1F9E8878885816058
:1003D0008887CE01DF91CF911F910F91FF90EF9011
:1003E000DF90BF90AF909F908F907F906F905F90C5
:1003F0004F9008956F927F929F92AF92BF92CF924B
:10040000DF92EF92FF920F931F93CF93DF9300D071
:10041000CDB7DEB73C018B010E940F0182FF09C0FE
:1004200084FF0CC086FD9CC024E8B22E34E4932ED9
:1004300009C081E8B82E90E4992E04C0A2E8BA2E33
:10044000B2E49B2EF801358532953F70208593816B
:10045000822F827022FF24C02081C22ED180E280B0
:100460009F71F92EB701A601E5E17695679557953D
:100470004795EA95D1F7A42EB701A601FDE0769540
:10048000679557954795FA95D1F7407E9E2D9370C5
:10049000492B4860ED2CF22E8823C9F0306417C038
:1004A000F801408151816281792F7F716A017B015E
:1004B00093E0F694E794D794C7949A95D1F7AC2C2F
:1004C0004295440F407E81114061F12CE12C60E0A7
:1004D000F30182813A8349830E94D309892D0E94C6
:1004E0008A008A2D0E948A004981842F0E948A00F6
:1004F0008E2D0E948A008F2D0E948A003A81832FC0
:100500000E948A006801F0E1CF0ED11CE12CF12C91
:10051000F801858582958F7090E0E816F9064CF415
:10052000F60181916F010E948A00FFEFEF1AFF0A26
:10053000EFCF61E0F30182810E94D30960E0F30113
:1005400082810E94D3098B2D0E948A0061E0F30111
:1005500082810E94D309F801858582958F7001C040
:1005600080E00F900F90DF91CF911F910F91FF903E
:10057000EF90DF90CF90BF90AF909F907F906F9063
:100580000895262F40EE6FE00C94E400CF93DF93A4
:10059000EC0141E06AE20E94BF0048EB69E2CE0153
:1005A0000E94BF0045E068E2CE01DF91CF910C943C
:1005B000BF00CF93DF93EC0120E640E660E60E94A7
:1005C000E40020E640E660E7CE01DF91CF910C9495
:1005D000E4001F93CF93DF93EC0160E08A810E94D7
:1005E000D30982E00E948A0081E60E948A001DE011
:1005F00080E00E948A001150D9F761E08A810E9450
:10060000D30960E08A810E94D30982E00E948A00B7
:1006100081E70E948A001DE080E00E948A0011505C
:10062000D9F761E08A81DF91CF911F910C94D309B2
:100630001F93CF93DF93EC0160E08A810E94D3097E
:1006400082E00E948A0081E30E948A001DE080E02F
:100650000E948A001150D9F761E08A810E94D30973
:1006600060E08A810E94D30982E00E948A0081E4CE
:100670000E948A001DE080E00E948A001150D9F794
:1006800061E08A810E94D30960E08A810E94D309D7
:1006900082E00E948A0081E50E948A001DE080E0DD
:1006A0000E948A001150D9F761E08A81DF91CF91D1
:1006B0001F910C94D309CF93DF93EC010E94E902C0
:1006C000CE01DF91CF910C9418031F93CF93DF934A
:1006D000EC01162F60E08A810E94D30982E00E941B
:1006E0008A008BE20E948A00812F0E948A0061E0CA
:1006F0008A81DF91CF911F910C94D309CF92DF9221
:10070000EF92FF920F931F93CF93DF931F92CDB77A
:10071000DEB78C016A017B0129830E94FD04C801B8
:100720000E94AF00C8010E94E902C8010E9418039C
:10073000C8010E94D90261E0C8010E946503B701A7
:10074000A601C8010E94C6022981622FC8010F902C
:10075000DF91CF911F910F91FF90EF90DF90CF909D
:100760000C94C10220E00C947E030F931F93CF934F
:10077000DF931F92CDB7DEB78C0169830E949E0084
:1007800088E091E0F8019183808369816283C801E8
:100790000F90DF91CF911F910F910C949100FC016C
:1007A00083819481918B808B428B6295607F808D59
:1007B0008F70682B608F8DB79EB748970FB6F894EF
:1007C0009EBF0FBE8DBFADB7BEB7119688E13B96F9
:1007D00001900D928A95E1F70E94AB048DB79EB708
:1007E00048960FB6F8949EBF0FBE8DBF089541E0A6
:1007F0000C94CF03FC018DE187878781838F8085EF
:10080000848F8185858F8285868F678F40A366E080
:10081000CF010C94F703CF93DF93FC018DE1878721
:100820004F5F5F4F518B408B81E0828B808D8F704B
:100830008068808FDB01EF016B96CF0183962D914D
:100840002993C817D907D9F78DB79EB748970FB620
:10085000F8949EBF0FBE8DBFADB7BEB7119688E1AD
:100860003B9601900D928A95E1F70E94AB048DB7FB
:100870009EB748960FB6F8949EBF0FBE8DBF61E03D
:1008800070E080E090E0DF91CF910C94FC086AE08A
:100890008BED91E00E94A7006AE080EA91E00C9461
:1008A000B5036AE070E00E945A0C80E3860F089559
:1008B0006AE070E00E945A0C805D089570E0605F0D
:1008C0007F4FFA01E60FF71F9C012D5F3F4FDC01C0
:1008D0004D91CD014193A217B307C9F70895982F01
:1008E00092959F708F702AE0929F800D1124089539
:1008F000CF92DF92EF92FF92FA01208130E0A901BE
:1009000040535109218130E020533109D901AA0F08
:10091000BB1F2A0F3B1F240F351F6901330FEE0841
:10092000FF086C0D7D1D8E1D9F1D92838383748334
:100930006583FF90EF90DF90CF9008950F931F9302
:100940008C012227332760277127CB018F77936093
:100950001F910F910895CF93DF93CDB7DEB78D85AB
:1009600084608D87898590E0A0E0B0E021E1880F68
:10097000991FAA1FBB1F2A95D1F74A855B8560E0A6
:1009800070E0842B952BA62BB72B28853C85207EE9
:10099000332311F0A16002C0AE7FBF718D839E83AF
:1009A000AF838B2F8F71282B2887BE016B5F7F4F02
:1009B0008BED91E00E94FA01DF91CF910895CF93E2
:1009C000DF93EC016BED71E00E942B01888199812E
:1009D000AA812B81B22FBF71AC01BD0181E1769557
:1009E0006795579547958A95D1F74C838A2F8170E3
:1009F0008F83CE01DF91CF910895CF93CFB7F89435
:100A00008091DF01811127C0EAE9F0E08491E6E8F6
:100A1000F0E09491E82FF0E0EE0FFF1FE255FF4F5A
:100A2000A591B491EC91E92321F461E08AE00E9460
:100A3000D30961E08AE00E949A098CB580618CBD7F
:100A40008CB580648CBD61E08DE00E949A0961E004
:100A50008BE00E949A098091DF018F5F8093DF0114
:100A6000CFBFCF9108959FB7F8948091DF0188237D
:100A700019F081508093DF018091DF01811105C061
:100A80008CB58F7B8CBD1092DE019FBF089580E0F6
:100A900090E00E944B0F8734E1F060E381E090E04A
:100AA0000E94530F60E382E090E00E94530F81E0C8
:100AB00090E00E944B0F8093A50182E090E00E949D
:100AC0004B0F8093A60167E480E090E00E94530FF3
:100AD0000CC081E090E00E944B0F8093A50182E062
:100AE00090E00E944B0F8093A60120E040E950ED7A
:100AF00063E070E080EA91E00E947E032FEF89E6D8
:100B000098E1215080409040E1F700C0000045EAA4
:100B100051E060E079E189E090E50E94780460931B
:100B2000E4017093E5018093E6019093E7012FEFD4
:100B300084E39CE0215080409040E1F700C0000039
:100B40008091E4019091E501A091E601B091E70167
:100B5000BC01CD016D597F4F8F4F9F4F0E949E0466
:100B60009093A4018093A30126E040E05BE460E061
:100B700070E081EF91E00E94EC0A64E271E081EFA5
:100B800091E00E94370C6BE471E081EF91E00E94EC
:100B9000370C64E271E081EF91E00E94370C61E66E
:100BA00071E081EF91E00C94370CE0EAF1E081E034
:100BB000838F8581848F8681858F4BEA51E063E046
:100BC0008BE791E00E945E0466E080EA91E00C947D
:100BD000F703DF92EF92FF920F931F93CF93DF9370
:100BE00000D000D01F92CDB7DEB78091C9018F939E
:100BF0008091C8018F938BE691E09F938F938E0134
:100C00000F5F1F4F1F930F930E94AA0CB80181EF33
:100C100091E00E94310C69E771E081EF91E00E9460
:100C2000310C8091C7011F928F9380E791E09F93D1
:100C30008F931F930F930E94AA0CB80181EF91E04C
:100C40000E94310C69E771E081EF91E00E94310C64
:100C50000FB6F894DEBF0FBECDBF8091CA018823C6
:100C600019F065E771E002C068E771E081EF91E09B
:100C70000E94310C8091D00182958F701F928F93CA
:100C800080E791E09F938F931F930F930E94AA0C8C
:100C9000B80181EF91E00E94310C69E771E081EFCA
:100CA00091E00E94310C0F900F900F900F900F90D9
:100CB0000F90D12C80E7E82E81E0F82E2D2D30E02A
:100CC0008091D00182958F7090E028173907FCF44D
:100CD000F901E056FE4F83A91F928F93FF92EF9286
:100CE0001F930F930E94AA0CB80181EF91E00E941C
:100CF000310C69E771E081EF91E00E94310CD394EF
:100D00000F900F900F900F900F900F90D7CF81EF13
:100D100091E00E94330C0F900F900F900F900F9066
:100D2000DF91CF911F910F91FF90EF90DF90089589
:100D3000CF93DF93CDB7DEB768970FB6F894DEBFD9
:100D40000FBECDBFCE0101960E94DF0488E1FE01F7
:100D50003196A3ECB1E001900D928A95E1F7809174
:100D6000CA0181119DC08091C7018D3141F1823549
:100D700009F447C0883109F093C08093AF01809196
:100D8000A7018093BB018091A8018093BC01809151
:100D9000A9018093BD018091AA018093BE011092A8
:100DA000BF0182E08093C0011092C10182E580936F
:100DB000C20168E080EA91E00E94F70371C020E080
:100DC00030E081E0882341F081E0F901E056FE4FF8
:100DD000478193A9491380E02F5F3F4F24303105AD
:100DE00089F78093E001882309F45AC081E0809359
:100DF000E1018091D70190E09093E3018093E201BB
:100E00004FC081E68093BB019091D4018091A501F0
:100E1000981346C09091D5018091A601981340C0C7
:100E200083E58093AF018091D3018823B9F18230AB
:100E3000B9F50E94D5056091D60181E090E00E944D
:100E4000530F6091D70182E090E00E94530F81E040
:100E500090E00E944B0F8093A50182E090E00E94F9
:100E60004B0F8093A60145EA51E060E079E189E00B
:100E700090E50E9478046093E4017093E50180930B
:100E8000E6019093E7016D597F4F8F4F9F4F0E946E
:100E90009E049093A4018093A30102C00E94D505F3
:100EA00068960FB6F894DEBF0FBECDBFDF91CF912D
:100EB0000C94E9056F927F928F929F92AF92BF92AE
:100EC000CF92DF92EF92FF920F931F93CF93DF9316
:100ED000CDB7DEB7AB970FB6F894DEBF0FBECDBF70
:100EE0007C0184E089A785E08AA78BA788E2D82EB9
:100EF0008E010F5F1F4FF8018D2D11928A95E9F732
:100F000081E08A8383E4898B81E48A8B8EE48B8BF6
:100F100087E68C8B95E79D8B82E78E8B9F8B90E28B
:100F2000988F9DE4998F9FE69A8F2EE62B8F29E666
:100F30002C8F24E72D8F9E8F8F8F9091A60180EDAF
:100F4000890F9091A501990F9056292F220F220FFA
:100F5000920F980F98878091A7010E946F0490E0EC
:100F60000E94510489878091A7010E946F0490E03C
:100F70000E9458048A878091A8010E946F0490E023
:100F80000E9451048B878091A8010E946F0490E019
:100F90000E9458048C878091A9010E946F0490E000
:100FA0000E9451048D878091A9010E946F0490E0F6
:100FB0000E9458048E878091AA010E946F0490E0DD
:100FC0000E9451048F878091AA010E946F0490E0D3
:100FD0000E945804888BDE9C3001DF9C700C112429
:100FE000812C912CC12CD12C99E2A92EB12CAC0EC4
:100FF000BD1EAE0CBF1CF501408150E0C416D506E5
:101000008CF4B401660D771D600F711FA60180EA94
:1010100091E00E940B04EFEFCE1ADE0AF8E08F0E8B
:10102000911CE9CFB70180EA91E00E94FA03AB96E8
:101030000FB6F894DEBF0FBECDBFDF91CF911F91E9
:101040000F91FF90EF90DF90CF90BF90AF909F9067
:101050008F907F906F90089580EA91E00E94270121
:1010600081110E9498068091E101882341F010923D
:10107000E1018091E2019091E3010C945A070895F7
:1010800008951F920F920FB60F9211242F933F9342
:101090004F935F936F937F938F939F93AF93BF9380
:1010A000EF93FF93E0910001F09101010995FF9109
:1010B000EF91BF91AF919F918F917F916F915F91D0
:1010C0004F913F912F910F900FBE0F901F90189549
:1010D0001F920F920FB60F9211242F933F934F93AD
:1010E0005F936F937F938F939F93AF93BF93EF9390
:1010F000FF93E0910201F09103010995FF91EF91B7
:10110000BF91AF919F918F917F916F915F914F911F
:101110003F912F910F900FBE0F901F9018951F9227
:101120000F920FB60F9211242F933F938F939F939B
:10113000AF93BF938091E9019091EA01A091EB01F7
:10114000B091EC013091E80123E0230F2D3720F41A
:101150000196A11DB11D05C026E8230F0296A11D11
:10116000B11D2093E8018093E9019093EA01A093D7
:10117000EB01B093EC018091ED019091EE01A09113
:10118000EF01B091F0010196A11DB11D8093ED0119
:101190009093EE01A093EF01B093F001BF91AF9156
:1011A0009F918F913F912F910F900FBE0F901F90A5
:1011B00018953FB7F8948091ED019091EE01A091C0
:1011C000EF01B091F00126B5A89B05C02F3F19F0A3
:1011D0000196A11DB11D3FBF6627782F892F9A2F39
:1011E000620F711D811D911D42E0660F771F881FE0
:1011F000991F4A95D1F708958F929F92AF92BF920F
:10120000CF92DF92EF92FF926B017C010E94D9088E
:101210004B015C01C114D104E104F104F1F00E941E
:10122000590C0E94D908681979098A099B09683EF6
:1012300073408105910570F321E0C21AD108E108DD
:10124000F10888EE880E83E0981EA11CB11CC11421
:10125000D104E104F10429F7DDCFFF90EF90DF9096
:10126000CF90BF90AF909F908F900895789484B561
:10127000826084BD84B5816084BD85B5826085BD92
:1012800085B5816085BDEEE6F0E080818160808378
:10129000E1E8F0E01082808182608083808181605B
:1012A0008083E0E8F0E0808181608083E1EBF0E022
:1012B000808184608083E0EBF0E0808181608083C6
:1012C000EAE7F0E0808184608083808182608083AF
:1012D0008081816080838081806880831092C100DA
:1012E0000895833081F028F4813099F08230A1F0A4
:1012F00008958730A9F08830B9F08430D1F4809116
:1013000080008F7D03C0809180008F778093800064
:10131000089584B58F7702C084B58F7D84BD08950C
:101320008091B0008F7703C08091B0008F7D809353
:10133000B0000895CF93DF9390E0FC01E458FF4F95
:101340002491FC01E057FF4F8491882349F190E0FC
:10135000880F991FFC01E255FF4FA591B4918C5560
:101360009F4FFC01C591D4919FB7611108C0F894BB
:101370008C91209582238C93888182230AC06230CD
:1013800051F4F8948C91322F309583238C9388817B
:10139000822B888304C0F8948C91822B8C939FBFFE
:1013A000DF91CF9108950F931F93CF93DF931F92F7
:1013B000CDB7DEB7282F30E0F901E859FF4F84910F
:1013C000F901E458FF4F1491F901E057FF4F0491E0
:1013D0000023C9F0882321F069830E947109698183
:1013E000E02FF0E0EE0FFF1FEC55FF4FA591B491F9
:1013F0009FB7F8948C91611103C01095812301C0AF
:10140000812B8C939FBF0F90DF91CF911F910F91F4
:101410000895FC01818D228D90E0805C9F4F821B9E
:1014200091098F7399270895FC01918D828D9817EA
:1014300031F0828DE80FF11D858D90E008958FEFDA
:101440009FEF0895FC01918D828D981761F0828D38
:10145000DF01A80FB11D5D968C91928D9F5F9F73E8
:10146000928F90E008958FEF9FEF089586EA9BE0BA
:10147000892B49F080E090E0892B29F00E94A60B8F
:1014800081110C9400000895FC01848DDF01A80FE8
:10149000B11DA35ABF4F2C91848D90E001968F739C
:1014A0009927848FA689B7892C93A089B1898C91BB
:1014B00080648C93938D848D981306C00288F38981
:1014C000E02D80818F7D80830895CF93DF93EC01A1
:1014D000888D8823C9F0EA89FB89808185FD05C054
:1014E000A889B9898C9186FD0FC00FB607FCF5CF8E
:1014F000808185FFF2CFA889B9898C9185FFEDCFD6
:10150000CE010E94440AE7CFDF91CF910895CF9298
:10151000DF92FF920F931F93CF93DF931F92CDB76C
:10152000DEB76C0181E0D60158968C9358975B9694
:101530009C915B975C968C915C97981307C0509632
:10154000ED91FC915197808185FD2EC0F601038DB0
:1015500010E00F5F1F4F0F731127F02EF601848DDF
:10156000F81211C00FB607FCF9CFD6015096ED91D5
:10157000FC915197808185FFF1CFC60169830E945C
:10158000440A6981EBCF838DE80FF11DE35AFF4FC9
:101590006083D6015B960C935B975296ED91FC911C
:1015A0005397808180620CC0D6015696ED91FC91D4
:1015B000579760835096ED91FC915197808180649C
:1015C000808381E090E00F90DF91CF911F910F9188
:1015D000FF90DF90CF900895BF92CF92DF92EF926D
:1015E000FF92CF93DF93EC016A017B01B22EE88971
:1015F000F98982E08083411581EE58076105710504
:10160000A1F060E079E08DE390E0A70196010E94EF
:101610006E0C21503109410951095695479537956E
:101620002795211580E1380798F0E889F98910821B
:1016300060E874E88EE190E0A70196010E946E0CCC
:1016400021503109410951095695479537952795FC
:10165000EC85FD853083EE85FF852083188EEC892F
:10166000FD89B082EA89FB89808180618083EA8973
:10167000FB89808188608083EA89FB89808180681A
:101680008083EA89FB8980818F7D8083DF91CF9180
:10169000FF90EF90DF90CF90BF9008951F920F9230
:1016A0000FB60F9211242F938F939F93EF93FF9375
:1016B000E0910102F09102028081E0910702F09135
:1016C000080282FD12C0908180910A028F5F8F73A1
:1016D00020910B02821751F0E0910A02F0E0EF50E6
:1016E000FE4F958F80930A0201C08081FF91EF9198
:1016F0009F918F912F910F900FBE0F901F90189573
:101700001F920F920FB60F9211242F933F934F9376
:101710005F936F937F938F939F93AF93BF93EF9359
:10172000FF9381EF91E00E94440AFF91EF91BF91F6
:10173000AF919F918F917F916F915F914F913F9169
:101740002F910F900FBE0F901F90189581EF91E091
:101750000E94090A21E0892B09F420E0822F0895D4
:101760001092F4011092F30188EE93E0A0E0B0E053
:101770008093F5019093F601A093F701B093F801DF
:1017800082E891E09093F2018093F10185EC90E082
:101790009093FE018093FD0184EC90E09093000211
:1017A0008093FF0180EC90E090930202809301020D
:1017B00081EC90E0909304028093030282EC90E02D
:1017C000909306028093050286EC90E090930802C5
:1017D0008093070210920A0210920B0210920C02E0
:1017E00010920D020895CF92DF92EF92FF920F9325
:1017F0001F93CF93DF937C016A01EB0100E010E0BF
:101800000C151D0571F06991D701ED91FC910190C6
:10181000F081E02DC7010995892B19F00F5F1F4F4B
:10182000EFCFC801DF91CF911F910F91FF90EF9003
:10183000DF90CF9008956115710581F0DB010D9067
:101840000020E9F7AD0141505109461B570BDC015F
:10185000ED91FC910280F381E02D099480E090E00D
:1018600008950C941B0C6EE871E00C941B0C0F9304
:101870001F93CF93DF93EC010E941B0C8C01CE01D0
:101880000E94330C800F911FDF91CF911F910F9118
:10189000089508950E9436090E94490C0E94470548
:1018A000C6E3DAE00E942C082097E1F30E94360A92
:1018B000F9CF089597FB072E16F4009407D077FD13
:1018C00009D00E94900C07FC05D03EF490958195BC
:1018D0009F4F0895709561957F4F0895A1E21A2E4C
:1018E000AA1BBB1BFD010DC0AA1FBB1FEE1FFF1FC4
:1018F000A217B307E407F50720F0A21BB30BE40B14
:10190000F50B661F771F881F991F1A9469F760955A
:101910007095809590959B01AC01BD01CF01089514
:10192000AA1BBB1B51E107C0AA1FBB1FA617B70705
:1019300010F0A61BB70B881F991F5A95A9F7809521
:101940009095BC01CD010895EE0FFF1F0590F49115
:10195000E02D0994AEE0B0E0E0EBFCE00C94730FF6
:101960000D891E8986E08C831A8309838FEF9FE798
:101970009E838D83AE01475E5F4F6F89788DCE0168
:1019800001960E94CD0C2F813885F801E20FF31FDC
:1019900010822E96E4E00C948F0FACE0B0E0E3ED03
:1019A000FCE00C94650F7C016B018A01FC0117823D
:1019B0001682838181FFBDC1CE0101964C01F701E2
:1019C0009381F60193FD859193FF81916F018823A7
:1019D00009F4ABC1853239F493FD859193FF819170
:1019E0006F01853229F4B70190E00E94B50EE7CF70
:1019F000512C312C20E02032A0F48B3269F030F4ED
:101A0000803259F0833269F420612CC08D3239F074
:101A1000803339F4216026C02260246023C028600E
:101A200021C027FD27C030ED380F3A3078F426FF6B
:101A300006C0FAE05F9E300D1124532E13C08AE0D9
:101A4000389E300D1124332E20620CC08E3221F4CA
:101A500026FD6BC1206406C08C3611F4206802C0DC
:101A6000883641F4F60193FD859193FF81916F01D2
:101A70008111C1CF982F9F7D9554933028F40C5F2E
:101A80001F4FFFE3F9830DC0833631F0833771F0C8
:101A9000833509F05BC022C0F801808189830E5F25
:101AA0001F4F44244394512C540115C03801F2E0D7
:101AB0006F0E711CF801A080B18026FF03C0652D58
:101AC00070E002C06FEF7FEFC5012C870E94AA0E65
:101AD0002C0183012C852F77222E17C03801F2E0CC
:101AE0006F0E711CF801A080B18026FF03C0652D28
:101AF00070E002C06FEF7FEFC5012C870E949F0E40
:101B00002C012C852068222E830123FC1BC0832DF1
:101B100090E048165906B0F4B70180E290E00E94C8
:101B2000B50E3A94F4CFF50127FC859127FE8191FB
:101B30005F01B70190E00E94B50E31103A94F1E0D8
:101B40004F1A51084114510471F7E5C0843611F061
:101B5000893639F5F80127FF07C0608171818281DC
:101B600093810C5F1F4F08C060817181072E000CAC
:101B7000880B990B0E5F1F4F2F76722E97FF09C0AF
:101B800090958095709561957F4F8F4F9F4F2068FE
:101B9000722E2AE030E0A4010E94ED0EA82EA818B3
:101BA00044C0853729F42F7EB22E2AE030E025C0CC
:101BB000F22FF97FBF2E8F36C1F018F4883579F0F7
:101BC000B4C0803719F0883721F0AFC02F2F2061C3
:101BD000B22EB4FE0DC08B2D8460B82E09C024FF38
:101BE0000AC09F2F9660B92E06C028E030E005C0DD
:101BF00020E130E002C020E132E0F801B7FE07C08A
:101C000060817181828193810C5F1F4F06C060816A
:101C1000718180E090E00E5F1F4FA4010E94ED0EE5
:101C2000A82EA818FB2DFF777F2E76FE0BC0372D30
:101C30003E7FA51450F474FE0AC072FC08C0372D14
:101C40003E7E05C0BA2C372D03C0BA2C01C0B52C7E
:101C500034FF0DC0FE01EA0DF11D8081803311F4C7
:101C6000397E09C032FF06C0B394B39404C0832FF9
:101C7000867809F0B39433FD13C030FF06C05A2CA8
:101C8000B31418F4530C5B18B32CB31468F4B701F5
:101C900080E290E03C870E94B50EB3943C85F5CF7E
:101CA000B31410F43B1801C0312C34FF12C0B7013B
:101CB00080E390E03C870E94B50E3C8532FF17C060
:101CC00031FD03C088E790E002C088E590E0B701ED
:101CD0000CC0832F867859F031FF02C08BE201C01F
:101CE00080E237FD8DE2B70190E00E94B50EA514A9
:101CF00038F4B70180E390E00E94B50E5A94F7CF14
:101D0000AA94F401EA0DF11D8081B70190E00E94D0
:101D1000B50EA110F5CF332009F451CEB70180E202
:101D200090E00E94B50E3A94F6CFF7018681978134
:101D300002C08FEF9FEF2C96E2E10C94810FFC0123
:101D40000590615070400110D8F7809590958E0FE6
:101D50009F1F0895FC016150704001900110D8F759
:101D6000809590958E0F9F1F08950F931F93CF938B
:101D7000DF93FB01238121FD03C08FEF9FEF28C07C
:101D800022FF16C0468157812481358142175307AF
:101D900044F4A081B1819D012F5F3F4F31832083A7
:101DA0008C93268137812F5F3F4F3783268310C066
:101DB000EB01092F182F0084F185E02D0995892B5F
:101DC000E1F68E819F8101969F838E83812F902FD4
:101DD000DF91CF911F910F910895FA01AA27283022
:101DE00051F1203181F1E8946F936E7F6E5F7F4FE8
:101DF0008F4F9F4FAF4FB1E03ED0B4E03CD0670F64
:101E0000781F891F9A1FA11D680F791F8A1F911DB6
:101E1000A11D6A0F711D811D911DA11D20D009F406
:101E200068943F912AE0269F11243019305D319348
:101E3000DEF6CF010895462F4770405D4193B3E031
:101E40000FD0C9F7F6CF462F4F70405D4A3318F0D8
:101E5000495D31FD4052419302D0A9F7EACFB4E089
:101E6000A6959795879577956795BA95C9F7009741
:101E70006105710508959B01AC010A2E06945795E2
:101E8000479537952795BA95C9F7620F731F841F39
:101E9000951FA01D0895F999FECF92BD81BDF89AB6
:101EA000992780B50895262FF999FECF92BD81BD5F
:101EB000F89A019700B4021639F01FBA20BD0FB688
:101EC000F894FA9AF99A0FBE08952F923F924F9282
:101ED0005F926F927F928F929F92AF92BF92CF92BA
:101EE000DF92EF92FF920F931F93CF93DF93CDB7C3
:101EF000DEB7CA1BDB0B0FB6F894DEBF0FBECDBF3B
:101F000009942A88398848885F846E847D848C840B
:101F10009B84AA84B984C884DF80EE80FD800C8114
:101F20001B81AA81B981CE0FD11D0FB6F894DEBFF7
:0C1F30000FBECDBFED010895F894FFCF67
:101F3C004008400800000000B203880027012B0174
:101F4C005B03FA0100000000B203880027012B019B
:101F5C005B03FA012D2D2D2D2D2D2D2D2D2D2D2D00
:101F6C002D2D2D2D2D2D2D2D2D2D2D2D2D2D2D2D95
:101F7C002D2D2D2D2D2D2D2D2D2D0043414E204D54
:101F8C006F6E69746F722D496E74657266616365EC
:101F9C0000313030205265616479002530345800AE
:101FAC002530325800522000202000617070000053
:101FBC000000870AF30B090A220A140A650A0D0AA3
:101FCC00006E616E00696E66006F7666002E000012
:00000001FF
