S01000004E616E6F426173652E737265630D
S11300000C945D000C9498060C94BF060C94850027
S11300100C9485000C9485000C9485000C94850048
S11300200C9485000C9485000C9485000C94850038
S11300300C9485000C9485000C9485000C94850028
S11300400C948E070C9485000C9485000C94850008
S11300500C9485000C9485000C9485000C94850008
S11300600C9485000C948500000000080002010037
S1130070000304070000000000000000010204085F
S113008010204080010204081020010204081020FE
S1130090040404040404040402020202020203032A
S11300A00303030300000000250028002B000000C8
S11300B00000240027002A006B0411241FBECFEF88
S11300C0D8E0DEBFCDBF11E0A0E0B1E0EAE6F0E1A8
S11300D002C005900D92A431B107D9F721E0A4E143
S11300E0B1E001C01D92A635B207E1F710E0CDE5FD
S11300F0D0E004C02197FE010E941308CC35D1073B
S1130100C9F70E947F070C9433080C9400000E94E6
S113011019050895CF93DF93EC0161E08A810E9471
S11301200F0761E08A810E944807DF91CF9108950B
S113013028E031E0FC013183208362830E948A003D
S11301400895CF93DF93EC0160E08A810E94480711
S113015080EC8EBD00000DB407FEFDCF8EB561E0CE
S11301608A810E944807DF91CF9108950F931F93CE
S1130170CF93DF93EC01062F142F60E08A810E9455
S1130180480782E08EBD00000DB407FEFDCF8EB59A
S11301900EBD00000DB407FEFDCF8EB51EBD0000E0
S11301A00DB407FEFDCF8EB561E08A810E94480739
S11301B0DF91CF911F910F910895FF920F931F9399
S11301C0CF93DF93EC01F62E042F122F60E08A8187
S11301D00E94480785E08EBD00000DB407FEFDCFE8
S11301E08EB5FEBC00000DB407FEFDCF8EB50EBD6E
S11301F000000DB407FEFDCF8EB51EBD00000DB48A
S113020007FEFDCF8EB561E08A810E944807DF9129
S1130210CF911F910F91FF9008951F93CF93DF9378
S1130220EC0160E08A810E94480780EA8EBD0000EC
S11302300DB407FEFDCF8EB58FEF8EBD00000DB45B
S113024007FEFDCF1EB561E08A810E944807812F19
S1130250DF91CF911F9108950E940D01837008953D
S1130260BF92CF92DF92EF92FF920F931F93CF939F
S1130270DF93EC018B01CB010E940D0180FD06C0D0
S113028081FD09C088858E7F8887ECC00F2EF0E938
S1130290FF2EF02D04C00F2EF4E9FF2EF02D60E0A8
S11302A0F80182810E944807FEBC00000DB407FEDD
S11302B0FDCF8EB58FEF8EBD00000DB407FEFDCFD0
S11302C0FEB48FEF8EBD00000DB407FEFDCFEEB47B
S11302D08FEF8EBD00000DB407FEFDCFCEB48FEFBF
S11302E08EBD00000DB407FEFDCFBEB48FEF8EBDF2
S11302F000000DB407FEFDCFDEB42D2D2F70922F1C
S11303009295907F8D858F70892B8D87222309F498
S113031094C0FE01709640E050E09FEF9EBD000047
S11303200DB407FEFDCF8EB581934F5F5F4F2D85D2
S113033022952F7030E04217530784F361E0F801EF
S113034082810E9448072E2D30E0A90155954795DA
S11303505595479555954795888540FB82F988873B
S113036082FF40C08E2D807E90E0A0E0B0E08C0142
S11303709D010F2EFDE0000F111F221F331FFA9560
S1130380D1F7F02D4F2D50E060E070E0DB01CA01A1
S1130390072E75E1880F991FAA1FBB1F7A95D1F705
S11303A0702D802B912BA22BB32B2E2D2370A22BDF
S11303B09C298B2988839983AA839B2F9F718B8186
S11303C0807E892B8B838D2D90E0082E892F000C45
S11303D0881F990B000C881F991F988580FB91F941
S11303E0988727C08F2D90E0880F991F880F991F39
S11303F0880F991F092E000CAA0BBB0BE694E694F8
S1130400E694E694E6948E2988839983AA839B2FA5
S11304109F718B81807E892B8B83359527953595AC
S113042027953595279535952795888520FB81F95E
S1130430888788858160888715C061E0F80182819A
S11304400E9448072E2D30E0A901559547955595F2
S1130450479555954795888540FB82F9888782FDA5
S113046081CFC0CFCE01DF91CF911F910F91FF902B
S1130470EF90DF90CF90BF9008959F92AF92BF927C
S1130480CF92DF92EF92FF920F931F93CF93DF935C
S11304908C01EB010E940D0182FFCDC084FF0BC0D3
S11304A086FDC7C00F2EF4E8EF2EF02D0F2EF4E4D6
S11304B0BF2EF02D08C00F2EF2E8EF2EF02D0F2ED8
S11304C0F2E4BF2EF02DFD84F694F694F694F6949F
S11304D0288522FF33C007C00F2EF1E8EF2EF02D40
S11304E06894BB24B6F8D8803B818D2D9981AA816C
S11304F0B32FBF71AC01BD01032E35E1769567952D
S1130500579547953A95D1F7302DC42EAC01BD01CE
S1130510032E3DE076956795579547953A95D1F723
S1130520302D407E3A2F3370342B3860932EA92E11
S113053021FF25C08F2D8064F82E21C088819981E8
S1130540AA813B81B32FBF71AC01BD01689412F83D
S113055076956795579547951694D1F7C42E982E9E
S1130560990C990C990C990C990C21FF06C0E92D52
S1130570E0619E2ED12CA12C02C0D12CA12C60E0D4
S1130580F80182810E944807BEBC00000DB407FE3A
S1130590FDCF8EB5CEBC00000DB407FEFDCF8EB5E9
S11305A09EBC00000DB407FEFDCF8EB5AEBC0000AE
S11305B00DB407FEFDCF8EB5DEBC00000DB407FE02
S11305C0FDCF8EB5FEBC00000DB407FEFDCF8EB589
S11305D08D8582958F70A1F0FE01709640E050E009
S11305E081918EBD00000DB407FEFDCF8EB54F5F27
S11305F05F4F2D8522952F7030E04217530784F307
S113060061E0F80182810E94480760E0F80182817C
S11306100E944807EEBC00000DB407FEFDCF8EB566
S113062061E0F80182810E9448078D8582958F7070
S113063012C080E010C0FD84F694F694F694F6940B
S1130640288522FD49CF0F2EF1E8EF2EF02D689476
S1130650BB24B6F873CFDF91CF911F910F91FF9018
S1130660EF90DF90CF90BF90AF909F900895262F8A
S113067040EE6FE00E94DD000895CF93DF93EC011C
S113068041E06AE20E94B60048EB69E2CE010E94B2
S1130690B60045E068E2CE010E94B600DF91CF913A
S11306A00895CF93DF93EC0120E640E660E60E94D4
S11306B0DD0020E640E660E7CE010E94DD00DF9128
S11306C0CF910895CF93DF93EC0160E08A810E947B
S11306D0480782E08EBD00000DB407FEFDCF8EB545
S11306E081E68EBD00000DB407FEFDCF8EB59DE002
S11306F01EBC00000DB407FEFDCF2EB59150C1F70E
S113070061E08A810E94480760E08A810E9448076C
S113071082E08EBD00000DB407FEFDCF8EB581E7EB
S11307208EBD00000DB407FEFDCF8EB59DE01EBC4E
S113073000000DB407FEFDCF2EB59150C1F761E066
S11307408A810E944807DF91CF910895CF93DF9368
S1130750EC0160E08A810E94480782E08EBD0000BF
S11307600DB407FEFDCF8EB581E38EBD00000DB440
S113077007FEFDCF8EB59DE01EBC00000DB407FE44
S1130780FDCF2EB59150C1F761E08A810E944807E0
S113079060E08A810E94480782E08EBD00000DB4AB
S11307A007FEFDCF8EB581E48EBD00000DB407FEBB
S11307B0FDCF8EB59DE01EBC00000DB407FEFDCF3D
S11307C02EB59150C1F761E08A810E94480760E02C
S11307D08A810E94480782E08EBD00000DB407FEA6
S11307E0FDCF8EB581E58EBD00000DB407FEFDCFB3
S11307F08EB59DE01EBC00000DB407FEFDCF2EB5E6
S11308009150C1F761E08A810E944807DF91CF913E
S11308100895CF93DF93EC010E946203CE010E94FE
S1130820A603DF91CF9108951F93CF93DF93EC013B
S1130830162F60E08A810E94480782E08EBD000086
S11308400DB407FEFDCF8EB58BE28EBD00000DB456
S113085007FEFDCF8EB51EBD00000DB407FEFDCF13
S11308608EB561E08A810E944807DF91CF911F9184
S11308700895CF92DF92EF92FF921F93CF93DF936D
S1130880EC016A017B01122F0E94E304CE010E9455
S1130890A100CE010E946203CE010E94A603CE01F4
S11308A00E94510361E0CE010E941404B701A60125
S11308B0CE010E943D03612FCE010E943703DF91D8
S11308C0CF911F91FF90EF90DF90CF90089520E09B
S11308D00E94390408956AE084E191E00E9498003E
S11308E008950F931F938C012227332760277127C4
S11308F0CB018F7793601F910F910895CF93DF936E
S1130900CDB7DEB78D8584608D87898590E0A0E0C2
S1130910B0E0072E71E1880F991FAA1FBB1F7A95BB
S1130920D1F7702D4A855B8560E070E0842B952BB0
S1130930A62BB72B3B2F3F712885207E232B28879E
S11309402C85222359F0A1608D839E83AF839B2F36
S11309509F718885807E892B88870BC0AE7FBF718D
S11309608D839E83AF839B2F9F718885807E892B87
S11309708887BE016B5F7F4F84E191E00E943D0256
S1130980DF91CF910895CF93DF93EC0164E171E09F
S11309900E94300188819981AA812B81B22FBF7175
S11309A0AC01BD01032E31E17695679557954795C6
S11309B03A95D1F7302D4C838A2F81708F83CE01E5
S11309C0DF91CF910895CF93CFB7F8948091180118
S11309D0811127C0EAE9F0E08491E6E8F0E094911F
S11309E0E82FF0E0EE0FFF1FE255FF4FA591B49101
S11309F0EC91E92321F461E08AE00E94480761E078
S1130A008AE00E940F078CB580618CBD8CB5806430
S1130A108CBD61E08DE00E940F0761E08BE00E94D5
S1130A200F07809118018F5F80931801CFBFCF917A
S1130A3008959FB7F89480911801882329F0815074
S1130A4080931801811105C08CB58F7B8CBD1092E9
S1130A5017019FBF08950F931F9380E090E00E94B9
S1130A601908873481F060E381E090E00E94210856
S1130A7060E382E090E00E94210867E480E090E077
S1130A800E9421080CC081E090E00E941908809324
S1130A904C0182E090E00E94190880934B0120E011
S1130AA040E950ED63E070E084E191E00E94390494
S1130AB00FEF14E32CE0015010402040E1F700C098
S1130AC0000060914C01862F90E0A0E0B0E0AC0102
S1130AD0BD01575F6F4A7F4F80914B0190E09C01AD
S1130AE0220F331F820F931F092E000CAA0BBB0B7E
S1130AF08A019B01080F191F2A1F3B1FC901B80156
S1130B000E94710490934A018093490140E050E0AF
S1130B1067EE75E080E00E9478061F910F910895BA
S1130B200895E1E3F1E02091490130914A013683CF
S1130B30258391E09783EEE3F1E08295807F9081B5
S1130B409F70892B80838DB79EB748970FB6F89412
S1130B509EBF0FBE8DBFADB7BEB7119688E1E1E36E
S1130B60F1E001900D928A95E1F70E947E048DB721
S1130B709EB748960FB6F8949EBF0FBE8DBF0895DA
S1130B80E1E3F1E083E0808B80914C01818B8091E3
S1130B904B01828B83E00E9491052FEF84E39CE05C
S1130BA0215080409040E1F700C000000C940038D0
S1130BB00895E1E3F1E081E0808B80914C01818B29
S1130BC080914B01828B83E00E94910508950F93DD
S1130BD01F93CF93DF93CDB7DEB768970FB6F89422
S1130BE0DEBF0FBECDBFCE0101960E94C30488E1D3
S1130BF0FE013196A9E1B1E001900D928A95E1F7E9
S1130C0080912001811168C080911D01883119F003
S1130C108B3141F061C088E18093350180E00E940E
S1130C2091055AC090912A0180914C01981354C0A7
S1130C3090912B0180914B0198134EC08CE18093CD
S1130C40350180912901823059F0833019F08111E6
S1130C5043C003C00E94C0053FC00E94D9053CC0E8
S1130C600E94D90509E111E0F801638981E090E06F
S1130C700E942108F801648982E090E00E94210822
S1130C8081E090E00E941908182F80934C0182E0C3
S1130C9090E00E94190880934B01412F50E060E0DE
S1130CA070E0575F6F4A7F4F90E09C01220F331F23
S1130CB0820F931F092E000CAA0BBB0B8A019B0108
S1130CC0080F191F2A1F3B1FC901B8010E94710494
S1130CD090934A018093490168960FB6F894DEBF59
S1130CE00FBECDBFDF91CF911F910F91089508954D
S1130CF08230E8F4E82FF0E0EE0FFF1FE050FF4FE2
S1130D0071836083813041F0809169008C7F842BF2
S1130D1080936900E89A089580916900440F551FF3
S1130D20440F551F837F842B80936900E99A0895AB
S1130D301F920F920FB60F9211242F933F934F934C
S1130D405F936F937F938F939F93AF93BF93EF932F
S1130D50FF93E0910001F09101010995FF91EF915A
S1130D60BF91AF919F918F917F916F915F914F91BF
S1130D703F912F910F900FBE0F901F9018951F92C7
S1130D800F920FB60F9211242F933F934F935F93BB
S1130D906F937F938F939F93AF93BF93EF93FF933F
S1130DA0E0910201F09103010995FF91EF91BF9148
S1130DB0AF919F918F917F916F915F914F913F91EF
S1130DC02F910F900FBE0F901F901895833081F0D4
S1130DD028F4813099F08230A1F008958730A9F089
S1130DE08830B9F08430D1F4809180008F7D03C0C5
S1130DF0809180008F7780938000089584B58F77E9
S1130E0002C084B58F7D84BD08958091B0008F7732
S1130E1003C08091B0008F7D8093B0000895CF937C
S1130E20DF9390E0FC01E458FF4F2491FC01E0576C
S1130E30FF4F8491882349F190E0880F991FFC01AA
S1130E40E255FF4FA591B4918C559F4FFC01C5917C
S1130E50D4919FB7611108C0F8948C912095822396
S1130E608C93888182230AC0623051F4F8948C9167
S1130E70322F309583238C938881822B888304C0FE
S1130E80F8948C91822B8C939FBFDF91CF9108951E
S1130E900F931F93CF93DF931F92CDB7DEB7282F05
S1130EA030E0F901E859FF4F8491F901E458FF4F0C
S1130EB01491F901E057FF4F04910023C9F08823EE
S1130EC021F069830E94E6066981E02FF0E0EE0FCD
S1130ED0FF1FEC55FF4FA591B4919FB7F8948C91E7
S1130EE0611103C01095812301C0812B8C939FBF96
S1130EF00F90DF91CF911F910F91089508950E9453
S1130F00D8070E947E070E942B05C0E0D0E00E9413
S1130F1090052097E1F30E940000F9CF1F920F92F1
S1130F200FB60F9211242F933F938F939F93AF93F8
S1130F30BF9380914E0190914F01A0915001B091C7
S1130F40510130914D0123E0230F2D3720F40196F8
S1130F50A11DB11D05C026E8230F0296A11DB11DD8
S1130F6020934D0180934E0190934F01A093500123
S1130F70B09351018091520190915301A091540179
S1130F80B09155010196A11DB11D8093520190931A
S1130F905301A0935401B0935501BF91AF919F9118
S1130FA08F913F912F910F900FBE0F901F90189526
S1130FB0789484B5826084BD84B5816084BD85B530
S1130FC0826085BD85B5816085BDEEE6F0E08081F7
S1130FD081608083E1E8F0E0108280818260808318
S1130FE0808181608083E0E8F0E08081816080839B
S1130FF0E1EBF0E0808184608083E0EBF0E08081CD
S113100081608083EAE7F0E080818460808380816E
S11310108260808380818160808380818068808316
S11310201092C1000895EE0FFF1F0590F491E02D7A
S11310300994F999FECF92BD81BDF89A992780B59C
S11310400895262FF999FECF92BD81BDF89A019794
S113105000B4021639F01FBA20BD0FB6F894FA9AFC
S10D1060F99A0FBE0895F894FFCF2B
S113106A7706770600000000670487002C01300128
S107107A09043D0222
S9030000FC
