:100000000C945E000C948D080C94B4080C9486003B
:100010000C9486000C9486000C9486000C94860048
:100020000C9486000C9486000C9486000C94860038
:100030000C9486000C9486000C9486000C94860028
:100040000C94670C0C9486000C94B80A0C94EA0A81
:100050000C9486000C9486000C9486000C94860008
:100060000C9486000C948600000000080002010039
:100070000003040700000000000000000102040863
:100080001020408001020408102001020408102002
:10009000040404040404040402020202020203032E
:1000A0000303030300000000250028002B000000CC
:1000B0000000240027002A006C041A0B11241FBE24
:1000C000CFEFD8E0DEBFCDBF11E0A0E0B1E0E0E6C9
:1000D000FAE102C005900D92A432B107D9F722E0EF
:1000E000A4E2B1E001C01D92AB30B207E1F710E02D
:1000F000CEE5D0E004C02197FE010E940E0DCC3564
:10010000D107C9F70E94580C0C942E0D0C940000D6
:100110000E941A050895CF93DF93EC0161E08A8174
:100120000E94040961E08A810E943D09DF91CF911C
:10013000089528E031E0FC013183208362830E942E
:100140008B000895CF93DF93EC0160E08A810E94D9
:100150003D0980EC8EBD00000DB407FEFDCF8EB5CD
:1001600061E08A810E943D09DF91CF9108950F934C
:100170001F93CF93DF93EC01062F142F60E08A8149
:100180000E943D0982E08EBD00000DB407FEFDCF48
:100190008EB50EBD00000DB407FEFDCF8EB51EBDA1
:1001A00000000DB407FEFDCF8EB561E08A810E948C
:1001B0003D09DF91CF911F910F910895FF920F9309
:1001C0001F93CF93DF93EC01F62E042F122F60E0E4
:1001D0008A810E943D0985E08EBD00000DB407FEB6
:1001E000FDCF8EB5FEBC00000DB407FEFDCF8EB571
:1001F0000EBD00000DB407FEFDCF8EB51EBD000084
:100200000DB407FEFDCF8EB561E08A810E943D09E5
:10021000DF91CF911F910F91FF9008951F93CF937E
:10022000DF93EC0160E08A810E943D0980EA8EBD87
:1002300000000DB407FEFDCF8EB58FEF8EBD000020
:100240000DB407FEFDCF1EB561E08A810E943D0915
:10025000812FDF91CF911F9108950E940E0183702D
:100260000895BF92CF92DF92EF92FF920F931F9368
:10027000CF93DF93EC018B01CB010E940E0180FD37
:1002800006C081FD09C088858E7F8887ECC00F2E4F
:10029000F0E9FF2EF02D04C00F2EF4E9FF2EF02D13
:1002A00060E0F80182810E943D09FEBC00000DB4AF
:1002B00007FEFDCF8EB58FEF8EBD00000DB407FE9B
:1002C000FDCFFEB48FEF8EBD00000DB407FEFDCF55
:1002D000EEB48FEF8EBD00000DB407FEFDCFCEB49F
:1002E0008FEF8EBD00000DB407FEFDCFBEB48FEFC3
:1002F0008EBD00000DB407FEFDCFDEB42D2D2F7096
:10030000922F9295907F8D858F70892B8D872223D8
:1003100009F494C0FE01709640E050E09FEF9EBD4E
:1003200000000DB407FEFDCF8EB581934F5F5F4F88
:100330002D8522952F7030E04217530784F361E03A
:10034000F80182810E943D092E2D30E0A9015595CA
:1003500047955595479555954795888540FB82F972
:10036000888782FF40C08E2D807E90E0A0E0B0E0C4
:100370008C019D010F2EFDE0000F111F221F331F66
:10038000FA95D1F7F02D4F2D50E060E070E0DB01E1
:10039000CA01072E75E1880F991FAA1FBB1F7A9506
:1003A000D1F7702D802B912BA22BB32B2E2D2370E8
:1003B000A22B9C298B2988839983AA839B2F9F71C9
:1003C0008B81807E892B8B838D2D90E0082E892F49
:1003D000000C881F990B000C881F991F988580FBC3
:1003E00091F9988727C08F2D90E0880F991F880F6B
:1003F000991F880F991F092E000CAA0BBB0BE694BE
:10040000E694E694E694E6948E2988839983AA83F9
:100410009B2F9F718B81807E892B8B8335952795B0
:10042000359527953595279535952795888520FB12
:1004300081F9888788858160888715C061E0F80127
:1004400082810E943D092E2D30E0A90155954795E6
:100450005595479555954795888540FB82F988873E
:1004600082FD81CFC0CFCE01DF91CF911F910F913F
:10047000FF90EF90DF90CF90BF9008959F92AF9242
:10048000BF92CF92DF92EF92FF920F931F93CF9381
:10049000DF938C01EB010E940E0182FFCDC084FF2F
:1004A0000BC086FDC7C00F2EF4E8EF2EF02D0F2EE7
:1004B000F4E4BF2EF02D08C00F2EF2E8EF2EF02D41
:1004C0000F2EF2E4BF2EF02DFD84F694F694F694F0
:1004D000F694288522FF33C007C00F2EF1E8EF2ED7
:1004E000F02D6894BB24B6F8D8803B818D2D99817E
:1004F000AA81B32FBF71AC01BD01032E35E1769502
:100500006795579547953A95D1F7302DC42EAC0194
:10051000BD01032E3DE076956795579547953A9531
:10052000D1F7302D407E3A2F3370342B3860932E24
:10053000A92E21FF25C08F2D8064F82E21C088812F
:100540009981AA813B81B32FBF71AC01BD01689431
:1005500012F876956795579547951694D1F7C42E5E
:10056000982E990C990C990C990C990C21FF06C0A6
:10057000E92DE0619E2ED12CA12C02C0D12CA12C02
:1005800060E0F80182810E943D09BEBC00000DB40C
:1005900007FEFDCF8EB5CEBC00000DB407FEFDCF2B
:1005A0008EB59EBC00000DB407FEFDCF8EB5AEBC6F
:1005B00000000DB407FEFDCF8EB5DEBC00000DB40B
:1005C00007FEFDCF8EB5FEBC00000DB407FEFDCFCB
:1005D0008EB58D8582958F70A1F0FE01709640E0FA
:1005E00050E081918EBD00000DB407FEFDCF8EB5A9
:1005F0004F5F5F4F2D8522952F7030E042175307D4
:1006000084F361E0F80182810E943D0960E0F80115
:1006100082810E943D09EEBC00000DB407FEFDCFB3
:100620008EB561E0F80182810E943D098D85829539
:100630008F7012C080E010C0FD84F694F694F6949A
:10064000F694288522FD49CF0F2EF1E8EF2EF02DEC
:100650006894BB24B6F873CFDF91CF911F910F91AF
:10066000FF90EF90DF90CF90BF90AF909F90089554
:10067000262F40EE6FE00E94DE000895CF93DF93B7
:10068000EC0141E06AE20E94B70048EB69E2CE016A
:100690000E94B70045E068E2CE010E94B700DF91FA
:1006A000CF910895CF93DF93EC0120E640E660E61A
:1006B0000E94DE0020E640E660E7CE010E94DE00F8
:1006C000DF91CF910895CF93DF93EC0160E08A81B1
:1006D0000E943D0982E08EBD00000DB407FEFDCFF3
:1006E0008EB581E68EBD00000DB407FEFDCF8EB540
:1006F0009DE01EBC00000DB407FEFDCF2EB591504D
:10070000C1F761E08A810E943D0960E08A810E9410
:100710003D0982E08EBD00000DB407FEFDCF8EB511
:1007200081E78EBD00000DB407FEFDCF8EB59DE0C4
:100730001EBC00000DB407FEFDCF2EB59150C1F7D1
:1007400061E08A810E943D09DF91CF910895CF93A6
:10075000DF93EC0160E08A810E943D0982E08EBD5A
:1007600000000DB407FEFDCF8EB581E38EBD000005
:100770000DB407FEFDCF8EB59DE01EBC00000DB48C
:1007800007FEFDCF2EB59150C1F761E08A810E942E
:100790003D0960E08A810E943D0982E08EBD000033
:1007A0000DB407FEFDCF8EB581E48EBD00000DB403
:1007B00007FEFDCF8EB59DE01EBC00000DB407FE08
:1007C000FDCF2EB59150C1F761E08A810E943D09AD
:1007D00060E08A810E943D0982E08EBD00000DB478
:1007E00007FEFDCF8EB581E58EBD00000DB407FE7E
:1007F000FDCF8EB59DE01EBC00000DB407FEFDCF01
:100800002EB59150C1F761E08A810E943D09DF91C8
:10081000CF910895CF93DF93EC010E946303CE0143
:100820000E94A703DF91CF9108951F93CF93DF9389
:10083000EC01162F60E08A810E943D0982E08EBDA6
:1008400000000DB407FEFDCF8EB58BE28EBD00001B
:100850000DB407FEFDCF8EB51EBD00000DB407FE22
:10086000FDCF8EB561E08A810E943D09DF91CF9175
:100870001F910895CF92DF92EF92FF921F93CF9333
:10088000DF93EC016A017B01122F0E94E404CE0188
:100890000E94A200CE010E946303CE010E94A70322
:1008A000CE010E94520361E0CE010E941504B701FF
:1008B000A601CE010E943E03612FCE010E943803A3
:1008C000DF91CF911F91FF90EF90DF90CF9008952F
:1008D00020E00E943A0408956AE084E291E00E94D8
:1008E000990008950F931F938C01222733276027C7
:1008F0007127CB018F7793601F910F910895CF934C
:10090000DF93CDB7DEB78D8584608D87898590E0D4
:10091000A0E0B0E0072E71E1880F991FAA1FBB1F4E
:100920007A95D1F7702D4A855B8560E070E0842B65
:10093000952BA62BB72B3B2F3F712885207E232B91
:1009400028872C85222359F0A1608D839E83AF8355
:100950009B2F9F718885807E892B88870BC0AE7FF7
:10096000BF718D839E83AF839B2F9F718885807E0F
:10097000892B8887BE016B5F7F4F84E291E00E94E4
:100980003E02DF91CF910895CF93DF93EC0164E2B3
:1009900071E00E94310188819981AA812B81B22F57
:1009A000BF71AC01BD01032E31E176956795579576
:1009B00047953A95D1F7302D4C838A2F81708F83DC
:1009C000CE01DF91CF910895CF93CFB7F894809166
:1009D0002801811127C0EAE9F0E08491E6E8F0E01F
:1009E0009491E82FF0E0EE0FFF1FE255FF4FA59125
:1009F000B491EC91E92321F461E08AE00E943D0981
:100A000061E08AE00E9404098CB580618CBD8CB5E0
:100A100080648CBD61E08DE00E94040961E08BE0A0
:100A20000E940409809128018F5F80932801CFBF25
:100A3000CF9108959FB7F89480912801882329F0D9
:100A4000815080932801811105C08CB58F7B8CBDAE
:100A5000109227019FBF08950F931F9326E040E057
:100A60005BE460E070E085E691E00E94560A7894CD
:100A70000E94200760E080E00E94520764E080E06E
:100A80000E94E70765E080E00E94E70780E00E949F
:100A90003107682F880F770B4AE050E085E691E038
:100AA0000E943B0C61E080E00E943B07682F880FAA
:100AB000770B4AE050E085E691E00E943B0C64E051
:100AC00080E00E943B07682F880F770B4AE050E0D8
:100AD00085E691E00E943B0C65E080E00E943B07C8
:100AE000682F880F770B4AE050E085E691E00E947E
:100AF0003B0C80E00E943107682F880F770B4AE09B
:100B000050E085E691E00E943B0C60E080E00E94AE
:100B100052072BE043E067E080E00E946B0780E033
:100B20000E943107682F880F770B4AE050E085E676
:100B300091E00E943B0C6FEF80E00E9452076FEF44
:100B400081E00E94520780E090E00E94140D8734FB
:100B500081F060E381E090E00E941C0D60E382E0A0
:100B600090E00E941C0D67E480E090E00E941C0D64
:100B70000CC081E090E00E94140D80935C0182E043
:100B800090E00E94140D80935B0120E040E950ED5D
:100B900063E070E084E291E00E943A040FEF14E316
:100BA0002CE0015010402040E1F700C000006091AF
:100BB0005C01862F90E0A0E0B0E0AC01BD01575F82
:100BC0006F4A7F4F80915B0190E09C01220F331FA1
:100BD000820F931F092E000CAA0BBB0B8A019B01ED
:100BE000080F191F2A1F3B1FC901B8010E94720478
:100BF00090935A018093590140E050E060E976E01B
:100C000080E00E946D081F910F91089580E00E947E
:100C1000EB074AE050E0682F85E691E00E94500C17
:100C200060E080E00E9400084AE050E0682F85E61E
:100C300091E00E94500C65E080E00E9400084AE0CC
:100C400050E0682F85E691E00E94500C81E00E9400
:100C5000EB074AE050E0682F85E691E00E94500CD7
:100C60002FEF81EE94E0215080409040E1F700C0EA
:100C700000000895E1E4F1E02091590130915A011A
:100C80003683258391E09783EEE4F1E08295807FBF
:100C900090819F70892B80838DB79EB748970FB640
:100CA000F8949EBF0FBE8DBFADB7BEB7119688E159
:100CB000E1E4F1E001900D928A95E1F70E947F0452
:100CC0008DB79EB748960FB6F8949EBF0FBE8DBFE6
:100CD0000895E1E4F1E083E0808B80915C01818BF9
:100CE00080915B01828B83E00E943A062FEF84E3C0
:100CF0009CE0215080409040E1F700C000000C943F
:100D000000380895E1E4F1E081E0808B80915C019E
:100D1000818B80915B01828B83E00E943A0608956B
:100D20000F931F93CF93DF93CDB7DEB768970FB6BE
:100D3000F894DEBF0FBECDBFCE0101960E94C40461
:100D400088E1FE013196A9E2B1E001900D928A9509
:100D5000E1F780913001811168C080912D018831C7
:100D600019F08B3141F061C088E18093450180E04A
:100D70000E943A065AC090913A0180915C01981302
:100D800054C090913B0180915B0198134EC08CE15F
:100D90008093450180913901823059F0833019F0F8
:100DA000811143C003C00E9469063FC00E948206B1
:100DB0003CC00E94820609E211E0F801638981E0EB
:100DC00090E00E941C0DF801648982E090E00E948E
:100DD0001C0D81E090E00E94140D182F80935C019F
:100DE00082E090E00E94140D80935B01412F50E05F
:100DF00060E070E0575F6F4A7F4F90E09C01220FE8
:100E0000331F820F931F092E000CAA0BBB0B8A0104
:100E10009B01080F191F2A1F3B1FC901B8010E941F
:100E2000720490935A018093590168960FB6F89412
:100E3000DEBF0FBECDBFDF91CF911F910F910895FF
:100E40000E94190885E38A95F1F7000080E090E0A0
:100E5000FC01E35AFE4F1082019688309105C1F7DC
:100E60000895883030F4E82FF0E0E35AFE4F808197
:100E700008958FEF0895883088F4683088F4E82F5B
:100E8000F0E0E35AFE4F8081082E000C990B02C05F
:100E9000959587956A95E2F7817008958FEF08958B
:100EA0008FEF0895CF93883098F4C62F982FE82FAE
:100EB000F0E0E35AFE4F608380E2890F880F0E94C2
:100EC0001F088C2F0E944F080E94460880E001C036
:100ED0008FEFCF910895CF938830C8F5E62FF0E0DB
:100EE000E41BF1093196AAF161506730A0F5442363
:100EF000A1F1942FA82FB0E0A35ABE4F6C91022EFF
:100F0000000C330B0E2E02C0220F331F0A94E2F79F
:100F100041E050E002C0440F551F9A95E2F741505E
:100F2000510902C0440F551FEA95E2F7C42FC0953E
:100F3000C6232423C22BCC93805E880F0E941F08F7
:100F40008C2F0E944F080E94460880E007C08FEF58
:100F500005C08FEF03C08FEF01C08FEFCF910895D1
:100F6000CF93DF93883068F5683068F5282F30E03C
:100F7000F901E35AFE4F9081442349F0C1E0D0E0EB
:100F800002C0CC0FDD1F6A95E2F7C92B09C0C1E092
:100F9000D0E002C0CC0FDD1F6A95E2F7C095C923EF
:100FA000982FF901E35AFE4FC08380E2890F880F22
:100FB0000E941F088C2F0E944F080E94460880E064
:100FC00003C08FEF01C08FEFDF91CF91089541E013
:100FD0000E94B0070895CF93883070F490E0809617
:100FE000880F991F81600E941F080E946108C82F06
:100FF000C0950E94460801C0CFEF8C2FCF91089575
:10100000CF93883088F4683088F4C62F0E94EB07AD
:101010008F3F69F0082E000C990B02C095958795BB
:10102000CA95E2F7817003C08FEF01C08FEFCF91B7
:1010300008951092B90088E18093B800089594EA69
:101040009093BC00ECEBF0E090819923ECF7909149
:10105000B900987F983011F09031A1F48093BB00D3
:1010600084E88093BC00ECEBF0E080818823ECF70F
:101070009091B900987F983139F081E0903429F44B
:1010800080E0089581E0089580E0089584E98093E8
:10109000BC00ECEBF0E0808184FDFDCF08958093EF
:1010A000BB0084E88093BC00ECEBF0E080818823F7
:1010B000ECF79091B900987F81E0983209F480E0D4
:1010C000089584E88093BC00ECEBF0E080818823F5
:1010D000ECF78091BB00089508958230E8F4E82F82
:1010E000F0E0EE0FFF1FE050FF4F7183608381300F
:1010F00041F0809169008C7F842B80936900E89A8D
:10110000089580916900440F551F440F551F837F38
:10111000842B80936900E99A08951F920F920FB66D
:101120000F9211242F933F934F935F936F937F936D
:101130008F939F93AF93BF93EF93FF93E091000141
:10114000F09101010995FF91EF91BF91AF919F91AE
:101150008F917F916F915F914F913F912F910F9060
:101160000FBE0F901F9018951F920F920FB60F92FF
:1011700011242F933F934F935F936F937F938F939C
:101180009F93AF93BF93EF93FF93E0910201F09190
:1011900003010995FF91EF91BF91AF919F918F91BD
:1011A0007F916F915F914F913F912F910F900FBE63
:1011B0000F901F901895833081F028F4813099F0BA
:1011C0008230A1F008958730A9F08830B9F08430DA
:1011D000D1F4809180008F7D03C0809180008F7753
:1011E00080938000089584B58F7702C084B58F7D89
:1011F00084BD08958091B0008F7703C08091B000C6
:101200008F7D8093B0000895CF93DF9390E0FC0131
:10121000E458FF4F2491FC01E057FF4F849188234D
:1012200049F190E0880F991FFC01E255FF4FA5910D
:10123000B4918C559F4FFC01C591D4919FB761111A
:1012400008C0F8948C91209582238C938881822306
:101250000AC0623051F4F8948C91322F3095832378
:101260008C938881822B888304C0F8948C91822B84
:101270008C939FBFDF91CF9108950F931F93CF93CE
:10128000DF931F92CDB7DEB7282F30E0F901E85980
:10129000FF4F8491F901E458FF4F1491F901E05791
:1012A000FF4F04910023C9F0882321F069830E9435
:1012B000DB086981E02FF0E0EE0FFF1FEC55FF4FD8
:1012C000A591B4919FB7F8948C91611103C01095CA
:1012D000812301C0812B8C939FBF0F90DF91CF9111
:1012E0001F910F910895FC01818D228D90E0805C0B
:1012F0009F4F821B91098F7399270895FC01918D4F
:10130000828D981731F0828DE80FF11D858D90E068
:1013100008958FEF9FEF0895FC01918D828D9817AE
:1013200061F0828DDF01A80FB11D5D968C91928DC9
:101330009F5F9F73928F90E008958FEF9FEF0895C6
:1013400080E19BE0892B49F080E090E0892B29F037
:101350000E94100B81110C9400000895FC01848DF3
:10136000DF01A80FB11DA35ABF4F2C91848D90E0CF
:1013700001968F739927848FA689B7892C93A089AA
:10138000B1898C9180648C93938D848D981306C061
:101390000288F389E02D80818F7D80830895CF932B
:1013A000DF93EC01888D8823C9F0EA89FB8980816D
:1013B00085FD05C0A889B9898C9186FD0FC00FB63F
:1013C00007FCF5CF808185FFF2CFA889B9898C9180
:1013D00085FFEDCFCE010E94AE09E7CFDF91CF911F
:1013E0000895CF92DF92FF920F931F93CF93DF93D5
:1013F0001F92CDB7DEB76C0181E0D60158968C9371
:1014000058975B969C915B975C968C915C97981330
:1014100007C05096ED91FC915197808185FD2EC0BB
:10142000F601038D10E00F5F1F4F0F731127F02E91
:10143000F601848DF81211C00FB607FCF9CFD60162
:101440005096ED91FC915197808185FFF1CFC601B7
:1014500069830E94AE096981EBCF838DE80FF11D8E
:10146000E35AFF4F6083D6015B960C935B975296CD
:10147000ED91FC915397808180620CC0D601569605
:10148000ED91FC91579760835096ED91FC915197A7
:1014900080818064808381E090E00F90DF91CF9124
:1014A0001F910F91FF90DF90CF900895BF92CF9240
:1014B000DF92EF92FF92CF93DF93EC016A017B0101
:1014C000B22EE889F98982E08083411581EE5807C0
:1014D00061057105A1F060E079E08DE390E0A7017E
:1014E00096010E94EC0C2150310941095109569591
:1014F000479537952795211580E1380798F0E889B9
:10150000F989108260E874E88EE190E0A701960105
:101510000E94EC0C2150310941095109569547951B
:1015200037952795EC85FD853083EE85FF852083F3
:10153000188EEC89FD89B082EA89FB8980818061FF
:101540008083EA89FB89808188608083EA89FB89BE
:10155000808180688083EA89FB8980818F7D808398
:10156000DF91CF91FF90EF90DF90CF90BF900895E3
:101570001F920F920FB60F9211242F938F939F9368
:10158000EF93FF93E0917501F09176018081E091F6
:101590007B01F0917C0182FD12C0908180917E01DF
:1015A0008F5F8F7320917F01821751F0E0917E0150
:1015B000F0E0EB59FE4F958F80937E0101C0808152
:1015C000FF91EF919F918F912F910F900FBE0F90F0
:1015D0001F9018951F920F920FB60F9211242F9300
:1015E0003F934F935F936F937F938F939F93AF93AB
:1015F000BF93EF93FF9385E691E00E94AE09FF91C0
:10160000EF91BF91AF919F918F917F916F915F917A
:101610004F913F912F910F900FBE0F901F901895F3
:1016200085E691E00E94730921E0892B09F420E00E
:10163000822F0895109268011092670188EE93E05E
:10164000A0E0B0E08093690190936A01A0936B01E0
:10165000B0936C0188E191E09093660180936501FD
:1016600085EC90E0909372018093710184EC90E09E
:10167000909374018093730180EC90E090937601D5
:101680008093750181EC90E09093780180937701CD
:1016900082EC90E090937A018093790186EC90E05F
:1016A00090937C0180937B0110927E0110927F01C8
:1016B00010928001109281010895CF92DF92EF92F3
:1016C000FF920F931F93CF93DF937C016A01EB018D
:1016D00000E010E00C151D0571F06991D701ED9146
:1016E000FC910190F081E02DC7010995892B19F03B
:1016F0000F5F1F4FEFCFC801DF91CF911F910F9167
:10170000FF90EF90DF90CF9008956115710581F003
:10171000DB010D900020E9F7AD0141505109461B56
:10172000570BDC01ED91FC910280F381E02D0994CF
:1017300080E090E00895DC01ED91FC910190F08152
:10174000E02D09948F929F92AF92BF92DF92EF9219
:10175000FF920F931F93CF93DF93CDB7DEB7A1977F
:101760000FB6F894DEBF0FBECDBF7C01F42FD52E8F
:10177000CB0119A2223008F42AE08E010F5D1F4F21
:10178000822E912CA12CB12C6F2F7D2DA5019401BF
:101790000E94EC0CF22FD32ECA01015011096A30BD
:1017A00014F4E0E301C0E7E3E60FD801EC93232B48
:1017B000242B252B49F7B801C7010E94850BA19660
:1017C0000FB6F894DEBF0FBECDBFDF91CF911F9152
:1017D0000F91FF90EF90DF90BF90AF909F908F9010
:1017E0000895CF92DF92EF92FF920F931F93CF93C2
:1017F000DF93EC016A017B012115310579F4E88161
:10180000F9810190F081E02D642FDF91CF911F913C
:101810000F91FF90EF90DF90CF9009942A3031051F
:10182000E9F477FF1AC06DE20E949B0B8C014427FC
:101830005527BA014C195D096E097F092AE0CE01CE
:101840000E94A20B800F911FDF91CF911F910F91EA
:10185000FF90EF90DF90CF9008952AE0B701A601A6
:10186000CE01DF91CF911F910F91FF90EF90DF900C
:10187000CF900C94A20B9A01AB01662757FD60959F
:10188000762F0C94F10B2115310541F4DC01ED911B
:10189000FC910190F081E02D642F09940C94A20B2F
:1018A0009A01462F50E060E070E00C94430C0895DC
:1018B0000E94B10C0E94570C0E942C05C0EAD9E08E
:1018C0000E9406062097E1F30E94A009F9CF1F921B
:1018D0000F920FB60F9211242F933F938F939F93E4
:1018E000AF93BF938091030290910402A0910502EF
:1018F000B09106023091020223E0230F2D3720F42D
:101900000196A11DB11D05C026E8230F0296A11D59
:10191000B11D209302028093030290930402A093CE
:101920000502B09306028091070290910802A091EF
:101930000902B0910A020196A11DB11D8093070210
:1019400090930802A0930902B0930A02BF91AF914D
:101950009F918F913F912F910F900FBE0F901F90ED
:101960001895789484B5826084BD84B5816084BD07
:1019700085B5826085BD85B5816085BDEEE6F0E008
:10198000808181608083E1E8F0E010828081826064
:101990008083808181608083E0E8F0E080818160E5
:1019A0008083E1EBF0E0808184608083E0EBF0E015
:1019B000808181608083EAE7F0E0808184608083B9
:1019C0008081826080838081816080838081806863
:1019D00080831092C1000895A1E21A2EAA1BBB1B9E
:1019E000FD010DC0AA1FBB1FEE1FFF1FA217B307EB
:1019F000E407F50720F0A21BB30BE40BF50B661F01
:101A0000771F881F991F1A9469F7609570958095C4
:101A100090959B01AC01BD01CF010895EE0FFF1F12
:101A20000590F491E02D0994F999FECF92BD81BD06
:101A3000F89A992780B50895262FF999FECF92BD7F
:101A400081BDF89A019700B4021639F01FBA20BD83
:101A50000FB6F894FA9AF99A0FBE0895F894FFCF4A
:101A60006C086C0800000000680488002D0131013A
:101A70000A043E0200000000F1095D0B73098C09A5
:041A80007E09CF0903
:00000001FF
