:100000000C945E000C94380F0C945F0F0C948600D7
:100010000C9486000C9486000C9486000C94860048
:100020000C9486000C9486000C9486000C94860038
:100030000C9486000C9486000C9486000C94860028
:100040000C94860F0C9486000C9486000C94860009
:100050000C9486000C9486000C9486000C94860008
:100060000C94A80C0C94860000000008000201000B
:100070000003040700000000000000000102040863
:100080001020408001020408102001020408102002
:10009000040404040404040402020202020203032E
:1000A0000303030300000000250028002B000000CC
:1000B0000000240027002A004704010F11241FBE5E
:1000C000CFEFD8E0DEBFCDBF11E0A0E0B1E0E6EBBE
:1000D000F2E202C005900D92AE33B107D9F722E0EB
:1000E000AEE3B1E001C01D92A93DB207E1F710E017
:1000F000CEE5D0E004C02197FE010E943911CC3535
:10010000D107C9F70E9401110C9459110C940000F9
:100110000C9456058EBD00000DB407FEFDCF8EB5C4
:100120000895CF93DF93EC0161E08A810E949110E2
:1001300061E08A81DF91CF910C94CA102EE131E009
:10014000FC01318320832AE022830C9491002EE16C
:1001500031E0FC013183208362830C949100CF93C2
:10016000DF93EC0160E08A810E94CA1080EC0E945B
:100170008A0061E08A81DF91CF910C94CA10EF92DE
:10018000FF921F93CF93DF931F92CDB7DEB77C0111
:10019000162F60E0FC01828149830E94CA1082E030
:1001A0000E948A00812F0E948A004981842F0E9428
:1001B0008A0061E0F70182810F90DF91CF911F915A
:1001C000FF90EF900C94CA10EF92FF921F93CF9381
:1001D000DF9300D0CDB7DEB77C01162F60E0FC01C5
:1001E00082812A8349830E94CA1085E00E948A0086
:1001F000812F0E948A004981842F0E948A002A81CF
:10020000822F0E948A0061E0F70182810F900F9097
:10021000DF91CF911F91FF90EF900C94CA101F9324
:10022000CF93DF93EC0160E08A810E94CA1080EADC
:100230000E948A008FEF0E948A00182F61E08A8155
:100240000E94CA10812FDF91CF911F9108950E94C3
:100250000F01837008954F925F926F927F928F92F9
:100260009F92AF92BF92DF92EF92FF920F931F93F4
:10027000CF93DF93EC014B01CB010E940F0180FD76
:1002800005C081FD05C088858E7FA2C010E901C030
:1002900014E960E0F40182810E94CA10812F0E945B
:1002A0008A008FEF0E948A00D82E8FEF0E948A006A
:1002B000E82E8FEF0E948A00082F8FEF0E948A009D
:1002C000182F8FEF0E948A00F82E282F2F70922F60
:1002D0009295907F8D858F70892B8D873E01F0E1FF
:1002E0006F0E711C412C512CA22EB12C4A145B04B0
:1002F00054F48FEF0E948A00F30181933F01FFEFD6
:100300004F1A5F0AF3CF61E0F40182810E94CA10A4
:100310002E2D30E0C90143E0959587954A95E1F788
:10032000E88580FBE2F9E887FB81E2FF32C04D2DD2
:1003300050E060E070E0A5E1440F551F661F771F95
:10034000AA95D1F7502B412B0E2D007E10E020E016
:1003500030E0BDE0000F111F221F331FBA95D1F707
:10036000402B512B622B732B8E2D8370682B48836F
:1003700059836A83872F8F71F07EF82BFB838F2D33
:1003800090E016E0959587951A95E1F780FBE1F9E5
:100390001CC048E0D49EC0011124092E000CAA0BF9
:1003A000BB0BE294E69447E0E4228E29888399838C
:1003B000AA838B2F8F71F07EF82BFB8354E0359549
:1003C00027955A95E1F720FBE1F9E8878885816058
:1003D0008887CE01DF91CF911F910F91FF90EF9011
:1003E000DF90BF90AF909F908F907F906F905F90C5
:1003F0004F9008956F927F929F92AF92BF92CF924B
:10040000DF92EF92FF920F931F93CF93DF9300D071
:10041000CDB7DEB73C018B010E940F0182FF09C0FE
:1004200084FF0CC086FD9CC024E8B22E34E4932ED9
:1004300009C081E8B82E90E4992E04C0A2E8BA2E33
:10044000B2E49B2EF801358532953F70208593816B
:10045000822F827022FF24C02081C22ED180E280B0
:100460009F71F92EB701A601E5E17695679557953D
:100470004795EA95D1F7A42EB701A601FDE0769540
:10048000679557954795FA95D1F7407E9E2D9370C5
:10049000492B4860ED2CF22E8823C9F0306417C038
:1004A000F801408151816281792F7F716A017B015E
:1004B00093E0F694E794D794C7949A95D1F7AC2C2F
:1004C0004295440F407E81114061F12CE12C60E0A7
:1004D000F30182813A8349830E94CA10892D0E94C8
:1004E0008A008A2D0E948A004981842F0E948A00F6
:1004F0008E2D0E948A008F2D0E948A003A81832FC0
:100500000E948A006801F0E1CF0ED11CE12CF12C91
:10051000F801858582958F7090E0E816F9064CF415
:10052000F60181916F010E948A00FFEFEF1AFF0A26
:10053000EFCF61E0F30182810E94CA1060E0F30115
:1005400082810E94CA108B2D0E948A0061E0F30113
:1005500082810E94CA10F801858582958F7001C042
:1005600080E00F900F90DF91CF911F910F91FF903E
:10057000EF90DF90CF90BF90AF909F907F906F9063
:100580000895262F40EE6FE00C94E400CF93DF93A4
:10059000EC0141E06AE20E94BF0048EB69E2CE0153
:1005A0000E94BF0045E068E2CE01DF91CF910C943C
:1005B000BF00CF93DF93EC0120E640E660E60E94A7
:1005C000E40020E640E660E7CE01DF91CF910C9495
:1005D000E4001F93CF93DF93EC0160E08A810E94D7
:1005E000CA1082E00E948A0081E60E948A001DE013
:1005F00080E00E948A001150D9F761E08A810E9450
:10060000CA1060E08A810E94CA1082E00E948A00BB
:1006100081E70E948A001DE080E00E948A0011505C
:10062000D9F761E08A81DF91CF911F910C94CA10B4
:100630001F93CF93DF93EC0160E08A810E94CA1080
:1006400082E00E948A0081E30E948A001DE080E02F
:100650000E948A001150D9F761E08A810E94CA1075
:1006600060E08A810E94CA1082E00E948A0081E4D0
:100670000E948A001DE080E00E948A001150D9F794
:1006800061E08A810E94CA1060E08A810E94CA10DB
:1006900082E00E948A0081E50E948A001DE080E0DD
:1006A0000E948A001150D9F761E08A81DF91CF91D1
:1006B0001F910C94CA10CF93DF93EC010E94E902C2
:1006C000CE01DF91CF910C9418031F93CF93DF934A
:1006D000EC01162F60E08A810E94CA1082E00E941D
:1006E0008A008BE20E948A00812F0E948A0061E0CA
:1006F0008A81DF91CF911F910C94CA10CF92DF9223
:10070000EF92FF920F931F93CF93DF931F92CDB77A
:10071000DEB78C016A017B0129830E942005C80194
:100720000E94AF00C8010E94E902C8010E9418039C
:10073000C8010E94D90261E0C8010E946503B701A7
:10074000A601C8010E94C6022981622FC8010F902C
:10075000DF91CF911F910F91FF90EF90DF90CF909D
:100760000C94C10220E00C947E030F931F93CF934F
:10077000DF931F92CDB7DEB78C0169830E949E0084
:100780008EE091E0F8019183808369816283C801E2
:100790000F90DF91CF911F910F910C949100FC016C
:1007A00083819481928B818B438B6295607F818D55
:1007B0008F70682B618F8DB79EB748970FB6F894EE
:1007C0009EBF0FBE8DBFADB7BEB7119688E13C96F8
:1007D00001900D928A95E1F70E94CE048DB79EB7E5
:1007E00048960FB6F8949EBF0FBE8DBF089541E0A6
:1007F0000C94CF03FC018DE1808B8085848F8185F3
:10080000858F8285868F8385878F60A341A366E06D
:10081000CF010C94F703CF93DF93FC018DE1808B24
:100820004F5F5F4F528B418B81E0838B818D8F7047
:100830008068818FDB01EF016C96CF0184962D914A
:100840002993C817D907D9F78DB79EB748970FB620
:10085000F8949EBF0FBE8DBFADB7BEB7119688E1AD
:100860003C9601900D928A95E1F70E94CE048DB7D7
:100870009EB748960FB6F8949EBF0FBE8DBF61E03D
:1008800070E080E090E0DF91CF910C94F30F6AE08C
:100890008AE791E00E94A7006AE08EE391E00C9461
:1008A000B5036AE070E00E94111180E3860F08959D
:1008B0006AE070E00E941111805D089570E0605F51
:1008C0007F4FFA01E60FF71F9C012D5F3F4FDC01C0
:1008D0004D91CD014193A217B307C9F70895982F01
:1008E00092959F708F702AE0929F800D1124089539
:1008F000CF92DF92EF92FF92FA01208130E0A901BE
:1009000040535109218130E020533109D901AA0F08
:10091000BB1F2A0F3B1F240F351F6901330FEE0841
:10092000FF086C0D7D1D8E1D9F1D93838483758331
:100930006683FF90EF90DF90CF9008950F931F9301
:100940008C012227332760277127CB018F77936093
:100950001F910F910895EEE3F1E083E0848F85818C
:10096000858F8681868F63E0CF010E94F7032FEF8A
:1009700084E39CE0215080409040E1F700C00000FB
:1009800080E00E94260F2FE78FE492E12150804003
:100990009040E1F700C000000C94001CCF93DF935F
:1009A000CDB7DEB78D8584608D87898590E0A0E026
:1009B000B0E021E1880F991FAA1FBB1F2A95D1F72C
:1009C0004A855B8560E070E0842B952BA62BB72BC6
:1009D00028853C85207E332311F0A16002C0AE7FC4
:1009E000BF718D839E83AF838B2F8F71282B2887B8
:1009F000BE016B5F7F4F8AE791E00E94FA01DF91B1
:100A0000CF910895CF93DF93EC016AE771E00E94E4
:100A10002B0188819981AA812B81B22FBF71AC01F2
:100A2000BD0181E176956795579547958A95D1F7F0
:100A30004C838A2F81708F83CE01DF91CF910895EF
:100A4000CF93CFB7F89480917E01811127C0EAE956
:100A5000F0E08491E6E8F0E09491E82FF0E0EE0F0A
:100A6000FF1FE255FF4FA591B491EC91E92321F4CA
:100A700061E08AE00E94CA1061E08AE00E94911061
:100A80008CB580618CBD8CB580648CBD61E08DE0DF
:100A90000E94911061E08BE00E94911080917E0194
:100AA0008F5F80937E01CFBFCF9108959FB7F89459
:100AB00080917E01882319F0815080937E0180917E
:100AC0007E01811105C08CB58F7B8CBD10927D019C
:100AD0009FBF089581E080930F020C94260F91E14F
:100AE00090934E0110925A0190910E0290935B01E7
:100AF000282F30E040E1949F200D311D11243093C8
:100B00005C0120E1929F800D112480935D01613092
:100B100029F410925E0160935F0105C081E080932B
:100B20005E0110925F01109260011092610168E015
:100B30008EE391E00C94F703EEE3F1E081E0848F23
:100B40008581858F8681868F4AE451E063E08AE261
:100B500091E00E945E0466E08EE391E00C94F7035E
:100B60006F927F928F929F92AF92BF92CF92DF92BD
:100B7000EF92FF920F931F93CF93DF93CDB7DEB722
:100B8000CD5CD1090FB6F894DEBF0FBECDBF7C019E
:100B900085E0E5E0F1E0DE01A753BF4F01900D9243
:100BA0008A95E1F78E010F5F1F4F88ECF8011192D3
:100BB0008A95E9F784E0D82EDA8283E4898B91E480
:100BC000C92ECA8A6EE46B8B87E68C8B55E75D8BEA
:100BD00022E72E8B5F8B30E2A32EA88E42E5642E97
:100BE000698E73EC772E7A8EECEB8E2E8B8EF3E67D
:100BF0009F2E9C8EABE6BA2EBD8E4DE64E8F95E6AF
:100C00009F8F8CE688A374E679A39AA32BA3B1E007
:100C1000B9A7F2E0FAA7BCA738E03EA7C9AAAEE69A
:100C2000AAAB3AE73BAB31E63CABE8E6EDAB8EABCB
:100C3000AFAAE5E4E8AFE8E7E9AFE0E7EAAF3BAF4A
:100C4000ACAF7DAF9EAF2FAFE1E32296EFAF22971F
:100C5000E8E32496EFAF2497E3E52696EFAF2697D7
:100C6000E4E72796EFAF27972896BFAE28976296BE
:100C7000FFAF62976396FFAF63976796DFAE6797A4
:100C80006A966FAF6A976B965FAF6B976C964FAF34
:100C90006C976D964FAF6D976E969FAF6E976F96F0
:100CA0002FAF6F97A096AFAEA097A1966FAEA1970A
:100CB000A2967FAEA297A3968FAEA397A4969FAE5F
:100CC000A497A596BFAEA597A6964FAFA697A79651
:100CD0009FAFA797A8968FAFA897A9967FAFA99720
:100CE000AA969FAFAA97AB962FAFAB970F2EF0E3C4
:100CF000BF2EF02DAD96BFAEAD970F2EF4E3AF2E05
:100D0000F02DAF96AFAEAF97E1966FAFE197E29659
:100D10005FAFE297E3964FAFE3970F2EF3E0AF2E6E
:100D2000F02DEA96AFAEEA97EB96FFAFEB97F4E1C2
:100D3000EF96FFAFEF97FDE4CF57DF4FF883C15831
:100D4000D040FFE6CE57DF4FF883C258D040CD5792
:100D5000DF4F7883C358D040CC57DF4F5883C458F7
:100D6000D040CB57DF4F8883C558D040CA57DF4F9C
:100D70003883C658D040C957DF4F7883C758D04012
:100D8000C857DF4F2883C858D040C757DF4F9883D4
:100D9000C958D040F3E7C657DF4FF883CA58D04050
:100DA000C557DF4FF883CB58D040C457DF4F9883E7
:100DB000CC58D040C257DF4FB882CE58D0400F2E0B
:100DC000F2E39F2EF02DC057DF4F9882C059D040DC
:100DD000CF56DF4FB882C159D040CD56DF4FC882C1
:100DE000C359D040CC56DF4F7883C459D040CB563E
:100DF000DF4F2883C559D040CF55DF4FD882C15A25
:100E0000D040CE55DF4FB883C25AD040CD55DF4FCA
:100E1000A882C35AD040C755DF4F6883C95AD04013
:100E2000C655DF4F9883CA5AD040C555DF4F588307
:100E3000CB5AD040C455DF4FF883CC5AD040C3556D
:100E4000DF4FE883CD5AD040C255DF4F3883CE5AAA
:100E5000D040C155DF4F2883CF5AD040C055DF4F17
:100E6000E883C05BD040CE54DF4F6883C25BD04084
:100E7000CD54DF4F9883C35BD04099E6CC54DF4F0D
:100E80009883C45BD040CB54DF4FA883C55BD04070
:100E900097E5C954DF4F9883C75BD040C854DF4FF4
:100EA0003883C85BD040C754DF4F2883C95BD0402C
:100EB000C654DF4F4883CA5BD0409BE4C454DF4F25
:100EC0009883CC5BD040C354DF4F3883CD5BD04098
:100ED000C254DF4F8883CE5BD040C154DF4FE883DC
:100EE000CF5BD040809145018887809146010E9468
:100EF0006F0490E00E9451048987809146010E940E
:100F00006F0490E00E9458048A87809147010E94F4
:100F10006F0490E00E9451048B87809147010E94EA
:100F20006F0490E00E9458048C87809148010E94D1
:100F30006F0490E00E9451048D87809148010E94C7
:100F40006F0490E00E9458048E87809149010E94AE
:100F50006F0490E00E9451048F87809149010E94A4
:100F60006F0490E00E945804888B8091000188AB48
:100F700080910E0269968FAF699780914501C058A4
:100F8000DF4F8883C058D04088E28E9D30018F9D0E
:100F9000700C1124812C912CC12CD12C89ECA82E01
:100FA000B12CAC0EBD1EAE0CBF1CF501408150E053
:100FB000C416D5068CF4B401660D771D600F711F41
:100FC000A6018EE391E00E940B04FFEFCF1ADF0A27
:100FD00088E0880E911CE9CFB7018EE391E00E9472
:100FE000FA03C353DF4F0FB6F894DEBF0FBECDBF79
:100FF000DF91CF911F910F91FF90EF90DF90CF90F5
:10100000BF90AF909F908F907F906F9008951F93A7
:10101000CF93DF93CDB7DEB768970FB6F894DEBFF6
:101020000FBECDBFCE0101960E94020588E1FE01F0
:101030003196A2E6B1E001900D928A95E1F7809198
:1010400069018111A7C180916601813109F4E0C075
:1010500048F4882369F1803109F09CC180934E01E6
:1010600011E027C18D3109F4FBC0823509F429C193
:10107000883109F08FC180934E01809146018093A1
:101080005A018091470180935B01809148018093D0
:101090005C018091490180935D0110925E0185E0C1
:1010A00080935F011092600184E580936101CAC062
:1010B00020E030E081E0882341F081E0F901E25C4A
:1010C000FE4F408594A9491380E02F5F3F4F2430A5
:1010D000310589F780938301882309F45BC18091EE
:1010E00076018B3009F056C1809177018230B1F0E2
:1010F00080F4813009F07EC080917801609179019F
:1011000020E1829F600D11246093000184E090E053
:1011100011C0833091F0843059F16CC08091780116
:101120006091790190E1899F600D112460930E0216
:1011300083E090E00E9447115DC06091780180914A
:101140007901982F20E1629F900D11249093450121
:10115000805D80934401605D6093430181E090E095
:101160000E9447116091440182E090E00E94471183
:1011700080917901813019F18230E1F588E1E2E670
:10118000F1E0AAE4B1E001900D928A95E1F781E0E7
:101190008093600167E08EE391E00E94F7038FE7A0
:1011A0009FE422E1815090402040E1F700C0000020
:1011B0006FEF80E090E00E9447110C94000098E1EE
:1011C000E2E6F1E0AAE4B1E001900D929A95E1F730
:1011D0008093600167E08EE391E00E94F7038FE760
:1011E0009FE422E1815090402040E1F700C00000E0
:1011F0000C94000088E1E2E6F1E0AAE4B1E001909D
:101200000D928A95E1F781E08093600167E01BC051
:1012100080934E018091720180935A0180917301F5
:1012200080935B018091740180935C0180917501D2
:1012300080935D0110925E0110925F011092600137
:101240001092610168E08EE391E068960FB6F89421
:10125000DEBF0FBECDBFDF91CF911F910C94F7037E
:1012600020E030E081E0882341F081E0F901E25C98
:10127000FE4F408594A9491380E02F5F3F4F2430F3
:10128000310589F780938301882309F483C0809115
:10129000760190E0909385018093840168960FB663
:1012A000F894DEBF0FBECDBFDF91CF911F910C949C
:1012B000B00560E0812F0E946F051F5F1930C9F7EC
:1012C00069C09091730180914301981363C090911C
:1012D00074018091440198135DC083E580934E01B1
:1012E000809172018230F9F0833069F0811152C02F
:1012F00068960FB6F894DEBF0FBECDBFDF91CF91D9
:101300001F910C949C056FEF80E090E00E944711C4
:1013100068960FB6F894DEBF0FBECDBFDF91CF91B8
:101320001F910C94AB040E949C056091750181E0B3
:1013300090E00E9447116091760182E090E00E9467
:10134000471181E090E00E943F118093430182E0C9
:1013500090E00E943F118093440160917F01709161
:10136000800180918101909182010E949E0490935E
:101370004201809341018091440120ED280F80912A
:101380004301880F8056982F990F990F890F820F6C
:101390008093450168960FB6F894DEBF0FBECDBFAF
:1013A000DF91CF911F910895CF9341E050E0BC01B0
:1013B0008EE792E00E94FB0E8EE792E00E94D50D30
:1013C000892BD1F38EE792E00E94DD0DC82F8EE7C6
:1013D00092E00E94FE0E8C2FCF910895AF92BF92A3
:1013E000CF92DF92EF92FF920F931F93CF93DF93F1
:1013F00062E083E00E94911041E050E06AE675E00F
:1014000081E00E94060F8EE792E00E94700ED0E00D
:10141000C0E089E0F82EEE24E39480910001C81723
:1014200008F047C0CC2ED12CFC9CF001FD9CF00DA7
:101430001124EA53FE4F88E38C0F808329E0C29F7A
:101440005001112400E010E0F801EA0DFB1DEA5301
:10145000FE4FE1828D2F800FE82FF0E0EA57FE4F1C
:1014600060810E946F058FE79AE126E081509040ED
:101470002040E1F700C000000F5F1F4F083011054A
:1014800019F7FC9CF001FD9CF00D1124EA53FE4F6E
:1014900060818EE792E00E947A0E6FEF8EE792E015
:1014A0000E94310E8EE792E00E94FE0ECF5FD85F61
:1014B000B4CFDF91CF911F910F91FF90EF90DF900C
:1014C000CF90BF90AF900C946A05FF920F931F933B
:1014D000CF93DF9380E090E00E943F11873489F141
:1014E00060E381E090E00E94471160E382E090E0D9
:1014F0000E94471160E083E090E00E9447116091F4
:10150000000184E090E00E944711C0E08C2F90E041
:101510002091000148E0249F900111248217930735
:1015200054F4FC01EA57FE4F108260E005960E94D9
:101530004711CF5FEBCF67E480E090E00E94471156
:1015400019C084E090E00E943F118093000198E070
:10155000899F80011124F12CCF2DD0E0C017D10735
:101560004CF4CE0105960E943F11CA57DE4F888386
:10157000F394F2CF81E090E00E943F11C82F809356
:10158000430182E090E00E943F1180934401805328
:10159000CC0FC0569C2F990F990FC90FC80FC0933D
:1015A000450183E090E00E943F11853018F480935C
:1015B0000E0202C010920E0243E451E060E079E1B5
:1015C00089E090E50E94780460937F017093800128
:1015D000809381019093820120E040E950ED63E027
:1015E00070E08EE391E00E947E032FEF44E38CE0F5
:1015F000215040408040E1F700C0000060917F0131
:101600007091800180918101909182010E949E04DD
:10161000909342018093410162E082E00E94911028
:1016200040E050E067E078E080E00E94060FDF9144
:10163000CF911F910F91FF900C94EE095F926F92E2
:101640007F928F929F92AF92BF92CF92DF92EF9252
:10165000FF920F931F93CF93DF9380910F02882304
:1016600009F481C000E010E089E0982E809100012B
:10167000181708F057C0919EE0011124CA53DE4F9D
:10168000888190E00E94D409882E809429E0129FDE
:1016900050011124E12CF12C662463946E0177240F
:1016A0007394700E91E0862D882109F490E0F70183
:1016B000EA0DFB1DEA53FE4F8181891741F19183A9
:1016C0009130B1F4572C5E0C252D30E0E901CA575A
:1016D000DE4F8881813011F4188201C098836881BF
:1016E000C90105960E9447116881852D0E946F05EA
:1016F000F60160818EE792E00E947A0E6FEF8EE72E
:1017000092E00E94310E8EE792E00E94FE0E660C7F
:10171000FFEFEF1AFF0A28E0E216F10419F61F5F47
:10172000085FA4CF10920F028FEF94E3ECE081509A
:101730009040E040E1F700C0000041E050E06AE680
:1017400075E081E0DF91CF911F910F91FF90EF90B5
:10175000DF90CF90BF90AF909F908F907F906F90D1
:101760005F900C94060FDF91CF911F910F91FF9026
:10177000EF90DF90CF90BF90AF909F908F907F9031
:101780006F905F90089510927D0281E080937B02BC
:1017900010927A0261E082E10E94CA1061E083E166
:1017A0000E94CA10E9EBF0E080818E7F8083808107
:1017B0008D7F808388E48093B80085E48093BC00AB
:1017C0000895413208F043C090917D029111FCCF01
:1017D00091E090937D0220937B022FEF20931002E3
:1017E00010925502240F2093540290937C02909102
:1017F0007C02880F892B80937C0280917A02813051
:1018000061F410927A0280917C028093BB008091F7
:10181000BC0083FDF8CF85EC01C085EE8093BC0051
:1018200080917D028130E1F380915502841710F49C
:101830004091550226E532E0FB01D9018A2F821B37
:10184000841718F48D918193F9CF842F089580E047
:1018500008950F934132E8F590917D029111FCCFEC
:1018600032E030937D0200937B023FEF3093100211
:101870001092550240935402FB0166E572E0DB01D1
:101880003A2F361B341718F431913D93F9CF10924B
:101890007C0230917C02880F832B80937C028091A4
:1018A0007A02813061F410927A0280917C028093F6
:1018B000BB008091BC0083FDF8CF85EC01C085EEB4
:1018C0008093BC00222339F080917D02823019F48C
:1018D000F9CF91E011C0809110028F3F69F08091A3
:1018E0001002803231F080911002803321F094E0B8
:1018F00003C092E001C093E0892F0F9108956132F7
:1019000098F420917D02243089F460933202FC0126
:1019100024E332E0D9018A2F821B861718F48191C3
:101920008D93F9CF80E0089581E0089582E00895D5
:1019300085ED8093BC008091BC0084FDFCCF1092AB
:101940007D02089585EC8093BC0010927D0208957D
:101950001F920F920FB60F9211242F933F934F9324
:101960005F936F937F938F939F93AF93BF93EF9307
:10197000FF938091B900887F803609F49EC078F586
:10198000883209F45DC090F4803109F456C038F40F
:10199000882309F4F5C0883009F44FC0F5C08831B8
:1019A00009F44EC0803209F45FC0EEC0803409F4FF
:1019B0006AC058F4803309F457C0883309F0E4C092
:1019C000809310020E94A20CDFC0803509F44FC042
:1019D000883509F45DC0883409F0D6C0D3C0883991
:1019E00009F4C4C0A8F4883709F467C038F488360D
:1019F00009F463C0803709F460C0C6C0883809F4B0
:101A0000B5C0803909F45FC0803809F0BDC05BC043
:101A1000803B09F483C038F4803A09F466C0883A00
:101A200009F47CC0B1C0803C09F4A4C0883C09F42E
:101A3000A1C0883B09F487C0A7C080917C0210C078
:101A40009091550280915402981770F5E0915502DB
:101A500081E08E0F80935502F0E0EA5AFD4F8081BD
:101A60008093BB0085EC83C0809310028BC0E09113
:101A7000550281E08E0F809355028091BB00F0E00B
:101A8000EA5AFD4F808390915502809154026BC0B9
:101A9000E091550281E08E0F809355028091BB004A
:101AA000F0E0EA5AFD4F808380917B0281116AC089
:101AB00081E080937A0284EA5EC083E080937D02B5
:101AC00010921102CFCF80911102803208F04EC0E7
:101AD000E091110281E08E0F809311028091BB0092
:101AE000F0E0EE5EFD4F8083BDCF0E94A20C80919E
:101AF0001102803230F4E0911102F0E0EE5EFD4F11
:101B000010826091110270E0E0917602F09177020C
:101B100082E192E009951092110236C084E0809330
:101B20007D021092330210923202E0917802F0911D
:101B30007902099580913202811105C081E080937C
:101B4000320210923402E091330281E08E0F8093D2
:101B50003302F0E0EC5CFD4F80818093BB009091FC
:101B6000330280913202981708F47CCF85E8809385
:101B7000BC000AC085EC8093BC0010927D0204C0BA
:101B8000109210020E94980CFF91EF91BF91AF91BB
:101B90009F918F917F916F915F914F913F912F9185
:101BA0000F900FBE0F901F9018958091AE0290E09D
:101BB0002091AF02821B910908959091AF0280910C
:101BC000AE02981750F4E92FF0E0E055FD4F208168
:101BD00030E09F5F9093AF0202C02FEF3FEFC9014B
:101BE0000895E091AF028091AE02E81730F4F0E082
:101BF000E055FD4F808190E008958FEF9FEF0895AD
:101C00000895CF92DF92EF92FF920F931F93CF939D
:101C1000DF937C01262F972F8A0180918A028823E7
:101C200091F0C62FD72F6E01C40ED51ECC15DD0541
:101C300071F06991D701ED91FC910190F081E02D57
:101C4000C7010995F3CF642F822F0E947F0CC80132
:101C5000DF91CF911F910F91FF90EF90DF90CF9088
:101C60000895CF93DF931F92CDB7DEB7698320919C
:101C70008A022223D1F020918B02203240F021E011
:101C800030E0FC013383228380E090E015C0809136
:101C90008C02E82FF0E0E357FD4F998190838F5F2E
:101CA00080938C0280938B0205C061E0CE01019687
:101CB0000E947F0C81E090E00F90DF91CF9108951A
:101CC000FC011382128288EE93E0A0E0B0E08483EE
:101CD0009583A683B78381E391E091838083089500
:101CE0001092AF021092AE0210928C0210928B02F0
:101CF0000C94C30B81E080938A026093AD02109232
:101D00008C0210928B0208950F93062F21E04091D0
:101D10008B026DE872E08091AD020E94290C109256
:101D20008C0210928B0210928A020F9108954F92AA
:101D30005F926F927F92AF92BF92CF92EF92FF929B
:101D40000F931F93CF93DF935C01F62ED42F2801BE
:101D50003901EE2021F10E947A0ECE2DC43008F018
:101D6000C3E0C150C0F0D501ED91FC91B8E0CB9F2C
:101D7000C0011124A301920104C0569547953795DF
:101D800027958A95D2F7CA01B9010190F081E02D1B
:101D9000C5010995E6CF60E0C5010E94840E4D2F74
:101DA000D13208F040E22C2D60EB72E08F2D0E94C2
:101DB000E10B1092AF028093AE02DF91CF911F91A1
:101DC0000F91FF90EF90CF90BF90AF907F906F906A
:101DD0005F904F900895CF92EF920F931F93C22E72
:101DE000E12C00E010E098010E94970E1F910F91E6
:101DF000EF90CF90089521E00C94EB0E61E00C94ED
:101E0000840E8EE792E00C94600E08958230E8F420
:101E1000E82FF0E0EE0FFF1FEF5FFE4F718360834E
:101E2000813041F0809169008C7F842B8093690020
:101E3000E89A089580916900440F551F440F551F7B
:101E4000837F842B80936900E99A0895823078F427
:101E5000813011F0E89801C0E998E82FF0E0EE0F2A
:101E6000FF1FEF5FFE4F85E09FE091838083089521
:101E70001F920F920FB60F9211242F933F934F93FF
:101E80005F936F937F938F939F93AF93BF93EF93E2
:101E9000FF93E0910101F09102010995FF91EF910B
:101EA000BF91AF919F918F917F916F915F914F9172
:101EB0003F912F910F900FBE0F901F9018951F927A
:101EC0000F920FB60F9211242F933F934F935F936E
:101ED0006F937F938F939F93AF93BF93EF93FF93F2
:101EE000E0910301F09104010995FF91EF91BF91F9
:101EF000AF919F918F917F916F915F914F913F91A2
:101F00002F910F900FBE0F901F9018951F920F9258
:101F10000FB60F9211242F933F938F939F93AF93FC
:101F2000BF938091D1029091D202A091D302B0913F
:101F3000D4023091D00223E0230F2D3720F40196F4
:101F4000A11DB11D05C026E8230F0296A11DB11DDC
:101F50002093D0028093D1029093D202A093D30217
:101F6000B093D4028091D5029091D602A091D7026D
:101F7000B091D8020196A11DB11D8093D502909316
:101F8000D602A093D702B093D802BF91AF919F9190
:101F90008F913F912F910F900FBE0F901F9018952A
:101FA0003FB7F8948091D5029091D602A091D702C4
:101FB000B091D80226B5A89B05C02F3F19F0019615
:101FC000A11DB11D3FBF6627782F892F9A2F620F61
:101FD000711D811D911D42E0660F771F881F991F9B
:101FE0004A95D1F708958F929F92AF92BF92CF9268
:101FF000DF92EF92FF926B017C010E94D00F4B01A8
:102000005C01C114D104E104F104F1F00E9410114B
:102010000E94D00F681979098A099B09683E7340AC
:102020008105910570F321E0C21AD108E108F10899
:1020300088EE880E83E0981EA11CB11CC114D10447
:10204000E104F10429F7DDCFFF90EF90DF90CF900E
:10205000BF90AF909F908F900895789484B58260E0
:1020600084BD84B5816084BD85B5826085BD85B53C
:10207000816085BDEEE6F0E0808181608083E1E8EB
:10208000F0E0108280818260808380818160808323
:10209000E0E8F0E0808181608083E1EBF0E0808126
:1020A00084608083E0EBF0E0808181608083EAE7F8
:1020B000F0E0808184608083808182608083808181
:1020C000816080838081806880831092C100089540
:1020D000833081F028F4813099F08230A1F00895A6
:1020E0008730A9F08830B9F08430D1F48091800035
:1020F0008F7D03C0809180008F778093800008954A
:1021000084B58F7702C084B58F7D84BD089580919A
:10211000B0008F7703C08091B0008F7D8093B000B6
:102120000895CF93DF9390E0FC01E458FF4F249192
:10213000FC01E057FF4F8491882349F190E0880F1C
:10214000991FFC01E255FF4FA591B4918C559F4F0B
:10215000FC01C591D4919FB7611108C0F8948C918E
:10216000209582238C93888182230AC0623051F4A7
:10217000F8948C91322F309583238C938881822B15
:10218000888304C0F8948C91822B8C939FBFDF913D
:10219000CF9108950F931F93CF93DF931F92CDB7E5
:1021A000DEB7282F30E0F901E859FF4F8491F9019B
:1021B000E458FF4F1491F901E057FF4F04910023B9
:1021C000C9F0882321F069830E9468106981E02F9B
:1021D000F0E0EE0FFF1FEC55FF4FA591B4919FB7B4
:1021E000F8948C91611103C01095812301C0812B5B
:1021F0008C939FBF0F90DF91CF911F910F91089506
:1022000008950E942D100E9400110E94650AC0E0EE
:10221000D0E00E941E0B2097E1F30E940000F9CF4E
:10222000089597FB072E16F4009407D077FD09D088
:102230000E94251107FC05D03EF4909581959F4F93
:102240000895709561957F4F0895AA1BBB1B51E1BE
:1022500007C0AA1FBB1FA617B70710F0A61BB70B16
:10226000881F991F5A95A9F780959095BC01CD01BB
:102270000895EE0FFF1F0590F491E02D0994F99950
:10228000FECF92BD81BDF89A992780B50895262F7B
:10229000F999FECF92BD81BDF89A019700B402165C
:1022A00039F01FBA20BD0FB6F894FA9AF99A0FBE0A
:0622B0000895F894FFCF31
:1022B60001050F050F050405040400000000B20324
:1022C600880027012B015B03FA0100000000B2031E
:1022D600880027012B015B03FA01683263000000C6
:0E22E60000310E010ED50DDD0DF10D000E00C4
:00000001FF
