:100000000C9460000C9488000C9488000C94880078
:100010000C9488000C9488000C9488000C94880040
:100020000C9488000C9488000C9488000C94880030
:100030000C9488000C9488000C9488000C94880020
:100040000C94F5060C9488000C94C0090C94F209E9
:100050000C9488000C9488000C9488000C94880000
:100060000C9488000C948800000000080002010035
:100070000003040700000000000000000102040863
:100080001020408001020408102001020408102002
:10009000040404040404040402020202020203032E
:1000A0000303030300000000250028002B000000CC
:1000B0000000240027002A004504D705220AE40591
:1000C00011241FBECFEFD8E0DEBFCDBF11E0A0E00E
:1000D000B1E0EEE2FCE102C005900D92A433B1075D
:1000E000D9F722E0A4E3B1E001C01D92AB32B20720
:1000F000E1F710E0CFE5D0E004C02197FE010E94B7
:10010000C60BCC35D107C9F70E94940B0C940A0E8C
:100110000C9400000E94F3040895CF93DF93EC0148
:1001200061E08A810E940C0861E08A810E94450892
:10013000DF91CF9108952EE031E0FC0131832083DF
:1001400062830E948D000895CF93DF93EC0160E0FD
:100150008A810E94450880EC8EBD00000DB407FE28
:10016000FDCF8EB561E08A810E944508DF91CF9175
:1001700008950F931F93CF93DF93EC01062F142F55
:1001800060E08A810E94450882E08EBD00000DB4C7
:1001900007FEFDCF8EB50EBD00000DB407FEFDCFEE
:1001A0008EB51EBD00000DB407FEFDCF8EB561E01B
:1001B0008A810E944508DF91CF911F910F91089588
:1001C000FF920F931F93CF93DF93EC01F62E042F32
:1001D000122F60E08A810E94450885E08EBD0000F4
:1001E0000DB407FEFDCF8EB5FEBC00000DB407FEBA
:1001F000FDCF8EB50EBD00000DB407FEFDCF8EB550
:100200001EBD00000DB407FEFDCF8EB561E08A81F2
:100210000E944508DF91CF911F910F91FF900895A3
:100220001F93CF93DF93EC0160E08A810E94450821
:1002300080EA8EBD00000DB407FEFDCF8EB58FEFB6
:100240008EBD00000DB407FEFDCF1EB561E08A81B2
:100250000E944508812FDF91CF911F9108950E9440
:10026000100183700895BF92CF92DF92EF92FF92B8
:100270000F931F93CF93DF93EC018B01CB010E946F
:10028000100180FD06C081FD09C088858E7F8887AA
:10029000ECC00F2EF0E9FF2EF02D04C00F2EF4E974
:1002A000FF2EF02D60E0F80182810E944508FEBC1F
:1002B00000000DB407FEFDCF8EB58FEF8EBD0000A0
:1002C0000DB407FEFDCFFEB48FEF8EBD00000DB460
:1002D00007FEFDCFEEB48FEF8EBD00000DB407FE1C
:1002E000FDCFCEB48FEF8EBD00000DB407FEFDCF65
:1002F000BEB48FEF8EBD00000DB407FEFDCFDEB49F
:100300002D2D2F70922F9295907F8D858F70892B38
:100310008D87222309F494C0FE01709640E050E0DE
:100320009FEF9EBD00000DB407FEFDCF8EB58193FB
:100330004F5F5F4F2D8522952F7030E04217530796
:1003400084F361E0F80182810E9445082E2D30E09F
:10035000A901559547955595479555954795888594
:1003600040FB82F9888782FF40C08E2D807E90E01E
:10037000A0E0B0E08C019D010F2EFDE0000F111FE9
:10038000221F331FFA95D1F7F02D4F2D50E060E07A
:1003900070E0DB01CA01072E75E1880F991FAA1FC3
:1003A000BB1F7A95D1F7702D802B912BA22BB32BED
:1003B0002E2D2370A22B9C298B2988839983AA83B5
:1003C0009B2F9F718B81807E892B8B838D2D90E05D
:1003D000082E892F000C881F990B000C881F991F6D
:1003E000988580FB91F9988727C08F2D90E0880F22
:1003F000991F880F991F880F991F092E000CAA0BAF
:10040000BB0BE694E694E694E694E6948E29888302
:100410009983AA839B2F9F718B81807E892B8B83ED
:1004200035952795359527953595279535952795B4
:10043000888520FB81F9888788858160888715C039
:1004400061E0F80182810E9445082E2D30E0A9016B
:10045000559547955595479555954795888540FB02
:1004600082F9888782FD81CFC0CFCE01DF91CF9105
:100470001F910F91FF90EF90DF90CF90BF90089564
:100480009F92AF92BF92CF92DF92EF92FF920F9323
:100490001F93CF93DF938C01EB010E94100182FF29
:1004A000CDC084FF0BC086FDC7C00F2EF4E8EF2E31
:1004B000F02D0F2EF4E4BF2EF02D08C00F2EF2E821
:1004C000EF2EF02D0F2EF2E4BF2EF02DFD84F694CA
:1004D000F694F694F694288522FF33C007C00F2EB9
:1004E000F1E8EF2EF02D6894BB24B6F8D8803B815C
:1004F0008D2D9981AA81B32FBF71AC01BD01032E4F
:1005000035E176956795579547953A95D1F7302D12
:10051000C42EAC01BD01032E3DE07695679557953D
:1005200047953A95D1F7302D407E3A2F3370342BD2
:100530003860932EA92E21FF25C08F2D8064F82EC0
:1005400021C088819981AA813B81B32FBF71AC0101
:10055000BD01689412F8769567955795479516945E
:10056000D1F7C42E982E990C990C990C990C990CD2
:1005700021FF06C0E92DE0619E2ED12CA12C02C0E6
:10058000D12CA12C60E0F80182810E944508BEBCFC
:1005900000000DB407FEFDCF8EB5CEBC00000DB43B
:1005A00007FEFDCF8EB59EBC00000DB407FEFDCF4B
:1005B0008EB5AEBC00000DB407FEFDCF8EB5DEBC1F
:1005C00000000DB407FEFDCF8EB5FEBC00000DB4DB
:1005D00007FEFDCF8EB58D8582958F70A1F0FE014F
:1005E000709640E050E081918EBD00000DB407FE92
:1005F000FDCF8EB54F5F5F4F2D8522952F7030E078
:100600004217530784F361E0F80182810E94450894
:1006100060E0F80182810E944508EEBC00000DB444
:1006200007FEFDCF8EB561E0F80182810E9445088A
:100630008D8582958F7012C080E010C0FD84F69485
:10064000F694F694F694288522FD49CF0F2EF1E812
:10065000EF2EF02D6894BB24B6F873CFDF91CF91C5
:100660001F910F91FF90EF90DF90CF90BF90AF90D0
:100670009F900895262F40EE6FE00E94E0000895BD
:10068000CF93DF93EC0141E06AE20E94B90048EBAE
:1006900069E2CE010E94B90045E068E2CE010E9405
:1006A000B900DF91CF910895CF93DF93EC0120E65D
:1006B00040E660E60E94E00020E640E660E7CE010A
:1006C0000E94E000DF91CF910895CF93DF93EC017A
:1006D00060E08A810E94450882E08EBD00000DB472
:1006E00007FEFDCF8EB581E68EBD00000DB407FE7E
:1006F000FDCF8EB59DE01EBC00000DB407FEFDCF02
:100700002EB59150C1F761E08A810E94450860E0F2
:100710008A810E94450882E08EBD00000DB407FE6C
:10072000FDCF8EB581E78EBD00000DB407FEFDCF75
:100730008EB59DE01EBC00000DB407FEFDCF2EB5AA
:100740009150C1F761E08A810E944508DF91CF9105
:100750000895CF93DF93EC0160E08A810E94450801
:1007600082E08EBD00000DB407FEFDCF8EB581E3A3
:100770008EBD00000DB407FEFDCF8EB59DE01EBC02
:1007800000000DB407FEFDCF2EB59150C1F761E01A
:100790008A810E94450860E08A810E94450882E0C3
:1007A0008EBD00000DB407FEFDCF8EB581E48EBD79
:1007B00000000DB407FEFDCF8EB59DE01EBC00000D
:1007C0000DB407FEFDCF2EB59150C1F761E08A81CF
:1007D0000E94450860E08A810E94450882E08EBD43
:1007E00000000DB407FEFDCF8EB581E58EBD000083
:1007F0000DB407FEFDCF8EB59DE01EBC00000DB40C
:1008000007FEFDCF2EB59150C1F761E08A810E94AD
:100810004508DF91CF910895CF92DF92EF92FF923A
:100820001F93CF93DF93EC016A017B01122F0E948B
:10083000BD04CE010E94A400CE010E946503CE013A
:100840000E94A903CE010E945403B701A601CE0164
:100850000E944003612FCE010E943A03DF91CF91A5
:100860001F91FF90EF90DF90CF90089520E00E94BD
:100870000C040895CF93DF93EC010E946503CE0131
:100880000E94A903DF91CF9108956AE084E391E08B
:100890000E949B0008950F931F938C0122273327FA
:1008A00060277127CB018F7793601F910F91089577
:1008B000CF93DF93CDB7DEB78D8584608D87898533
:1008C00090E0A0E0B0E0072E71E1880F991FAA1F09
:1008D000BB1F7A95D1F7702D4A855B8560E070E08B
:1008E000842B952BA62BB72B3B2F3F712885207E81
:1008F000232B28872C85222359F0A1608D839E838A
:10090000AF839B2F9F718885807E892B88870BC042
:10091000AE7FBF718D839E83AF839B2F9F71888530
:10092000807E892B8887BE016B5F7F4F84E391E0D7
:100930000E944002DF91CF910895CF93DF93EC01A5
:1009400064E371E00E94330188819981AA812B813F
:10095000B22FBF71AC01BD01032E31E176956795D1
:10096000579547953A95D1F7302D4C838A2F817052
:100970008F83CE01DF91CF910895CF93CFB7F894B5
:1009800080913801811127C0EAE9F0E08491E6E81E
:10099000F0E09491E82FF0E0EE0FFF1FE255FF4FDB
:1009A000A591B491EC91E92321F461E08AE00E94E1
:1009B000450861E08AE00E940C088CB580618CBD1E
:1009C0008CB580648CBD61E08DE00E940C0861E014
:1009D0008BE00E940C08809138018F5F8093380172
:1009E000CFBFCF9108959FB7F894809138018823A5
:1009F00029F0815080933801811105C08CB58F7B1F
:100A00008CBD109237019FBF089520E040E950ED62
:100A100063E070E084E391E00E940C042FEF89E62C
:100A200098E1215080409040E1F700C0000062E072
:100A300079E080E590E00E944B0490936A018093F6
:100A4000690126E040E05BE460E070E08AE891E064
:100A50000E945E0962E271E08AE791E00E94290B40
:100A600010926C0110926B010895E1E5F1E0209184
:100A7000690130916A01368325836783EEE5F1E0F1
:100A80008295807F90819F70892B80838DB79EB7E0
:100A900048970FB6F8949EBF0FBE8DBFADB7BEB7D7
:100AA000119688E1E1E5F1E001900D928A95E1F778
:100AB0000E9458048DB79EB748960FB6F8949EBF13
:100AC0000FBE8DBF0895CF93DF93CDB7DEB7689784
:100AD0000FB6F894DEBF0FBECDBFCE0101960E94C7
:100AE0009D0488E1FE013196A9E3B1E001900D92E9
:100AF0008A95E1F780913D01883161F48091400150
:100B0000811108C088E18093550161E080E090E0A8
:100B10000E94350568960FB6F894DEBF0FBECDBFB4
:100B2000DF91CF910895CF93DF93C1E5D1E08BE1C1
:100B30008C8380917301888B61E070E08AE791E09B
:100B40000E94910B898B62E070E08AE791E00E943D
:100B5000910B8A8B80917301882311F0823029F4E4
:100B600060E083E090E00E943505DF91CF91089529
:100B7000CF93DF93C1E5D1E089E18C83809173014C
:100B8000888B61E070E08AE791E00E94910B898B8D
:100B900062E070E08AE791E00E94910B8A8B60E04E
:100BA00083E090E00E943505DF91CF91089562E2E5
:100BB00071E08AE791E00E94130B62E271E084E742
:100BC00091E00E94130B089584E791E00E94A50A2A
:100BD0008AE791E00E94A50A08950F931F938091E0
:100BE0006B0190916C018130910509F47BC08230DA
:100BF000910509F4B4C0892B09F0E7C08AE891E0B7
:100C00000E947B08181619060CF0DFC08AE891E0F4
:100C10000E94940880938001833231F0682F8AE724
:100C200091E00E946D0BD1C060E070E08AE791E036
:100C30000E94910B863239F18F3321F0853209F011
:100C4000C4C031C010927201109273010E94B805A5
:100C500081E090E090936C0180936B018AE891E0D1
:100C60000E94D70862E271E08AE791E00E94290BB6
:100C70000E943F0760936D0170936E0180936F0136
:100C800090937001A2C082E0809373010E9493054B
:100C90008AE891E00E94D70862E271E08AE791E079
:100CA0000E94290B92C0109273010E94B80582E045
:100CB00090E090936C0180936B018AE891E00E9430
:100CC000D70862E271E08AE791E00E94290B0E9456
:100CD0003F0760936D0170936E0180936F01909355
:100CE000700173C080917201882381F06AE171E024
:100CF0008AE891E00E94A30A82E0809373010E9437
:100D0000B80510926C0110926B015FC00E943F0702
:100D100000916D0110916E0120916F013091700171
:100D2000DC01CB01801B910BA20BB30B00910601E0
:100D30001091070120910801309109010817190746
:100D40002A073B0708F041C06DE171E08AE891E0B5
:100D50000E94A30A10926C0110926B0136C0809120
:100D60007101882359F060E271E08AE891E00E9405
:100D7000A30A10926C0110926B0127C00E943F07DA
:100D800000916D0110916E0120916F013091700101
:100D9000DC01CB01801B910BA20BB30B0091060170
:100DA00010910701209108013091090108171907D6
:100DB0002A073B0750F46DE171E08AE891E00E9458
:100DC000A30A10926C0110926B0162E370E080E064
:100DD00090E00E946E0784E391E00E942F01811150
:100DE0000E9463051F910F9108951F920F920FB6F5
:100DF0000F9211242F933F938F939F93AF93BF93A1
:100E00008091820190918301A0918401B09185012C
:100E10003091810123E0230F2D3720F40196A11D8D
:100E2000B11D05C026E8230F0296A11DB11D209318
:100E300081018093820190938301A0938401B093F8
:100E400085018091860190918701A0918801B091E0
:100E500089010196A11DB11D8093860190938701A0
:100E6000A0938801B0938901BF91AF919F918F9119
:100E70003F912F910F900FBE0F901F9018952FB795
:100E8000F894609182017091830180918401909126
:100E900085012FBF08953FB7F89480918601909106
:100EA0008701A0918801B091890126B5A89B05C052
:100EB0002F3F19F00196A11DB11D3FBF6627782F66
:100EC000892F9A2F620F711D811D911D42E0660FBF
:100ED000771F881F991F4A95D1F708958F929F9287
:100EE000AF92BF92CF92DF92EF92FF926B017C01A3
:100EF0000E944B074B015C01C114D104E104F104D1
:100F0000F1F00E94A30B0E944B07681979098A0926
:100F10009B09683E73408105910570F321E0C21A78
:100F2000D108E108F10888EE880E83E0981EA11C24
:100F3000B11CC114D104E104F10429F7DDCFFF9005
:100F4000EF90DF90CF90BF90AF909F908F900895DB
:100F5000789484B5826084BD84B5816084BD85B594
:100F6000826085BD85B5816085BDEEE6F0E080815B
:100F700081608083E1E8F0E010828081826080837C
:100F8000808181608083E0E8F0E0808181608083FF
:100F9000E1EBF0E0808184608083E0EBF0E0808131
:100FA00081608083EAE7F0E08081846080838081D3
:100FB000826080838081816080838081806880837B
:100FC0001092C1000895833081F028F4813099F0A7
:100FD0008230A1F008958730A9F08830B9F08430CC
:100FE000D1F4809180008F7D03C0809180008F7745
:100FF00080938000089584B58F7702C084B58F7D7B
:1010000084BD08958091B0008F7703C08091B000B7
:101010008F7D8093B0000895CF93DF9390E0FC0123
:10102000E458FF4F2491FC01E057FF4F849188233F
:1010300049F190E0880F991FFC01E255FF4FA591FF
:10104000B4918C559F4FFC01C591D4919FB761110C
:1010500008C0F8948C91209582238C9388818223F8
:101060000AC0623051F4F8948C91322F309583236A
:101070008C938881822B888304C0F8948C91822B76
:101080008C939FBFDF91CF9108950F931F93CF93C0
:10109000DF931F92CDB7DEB7282F30E0F901E85972
:1010A000FF4F8491F901E458FF4F1491F901E05783
:1010B000FF4F04910023C9F0882321F069830E9427
:1010C000E3076981E02FF0E0EE0FFF1FEC55FF4FC3
:1010D000A591B4919FB7F8948C91611103C01095BC
:1010E000812301C0812B8C939FBF0F90DF91CF9103
:1010F0001F910F910895FC01818D228D90E0805CFD
:101100009F4F821B91098F7399270895FC01918D40
:10111000828D981731F0828DE80FF11D858D90E05A
:1011200008958FEF9FEF0895FC01918D828D9817A0
:1011300061F0828DDF01A80FB11D5D968C91928DBB
:101140009F5F9F73928F90E008958FEF9FEF0895B8
:1011500088E19AE0892B49F080E090E0892B29F022
:101160000E94180A81110C9400000895FC01848DDE
:10117000DF01A80FB11DA35ABF4F2C91848D90E0C1
:1011800001968F739927848FA689B7892C93A0899C
:10119000B1898C9180648C93938D848D981306C053
:1011A0000288F389E02D80818F7D80830895CF931D
:1011B000DF93EC01888D8823C9F0EA89FB8980815F
:1011C00085FD05C0A889B9898C9186FD0FC00FB631
:1011D00007FCF5CF808185FFF2CFA889B9898C9172
:1011E00085FFEDCFCE010E94B608E7CFDF91CF910A
:1011F0000895CF92DF92FF920F931F93CF93DF93C7
:101200001F92CDB7DEB76C0181E0D60158968C9362
:1012100058975B969C915B975C968C915C97981322
:1012200007C05096ED91FC915197808185FD2EC0AD
:10123000F601038D10E00F5F1F4F0F731127F02E83
:10124000F601848DF81211C00FB607FCF9CFD60154
:101250005096ED91FC915197808185FFF1CFC601A9
:1012600069830E94B6086981EBCF838DE80FF11D79
:10127000E35AFF4F6083D6015B960C935B975296BF
:10128000ED91FC915397808180620CC0D6015696F7
:10129000ED91FC91579760835096ED91FC91519799
:1012A00080818064808381E090E00F90DF91CF9116
:1012B0001F910F91FF90DF90CF900895BF92CF9232
:1012C000DF92EF92FF92CF93DF93EC016A017B01F3
:1012D000B22EE889F98982E08083411581EE5807B2
:1012E00061057105A1F060E079E08DE390E0A70170
:1012F00096010E94A40B21503109410951095695CC
:10130000479537952795211580E1380798F0E889AA
:10131000F989108260E874E88EE190E0A7019601F7
:101320000E94A40B21503109410951095695479556
:1013300037952795EC85FD853083EE85FF852083E5
:10134000188EEC89FD89B082EA89FB8980818061F1
:101350008083EA89FB89808188608083EA89FB89B0
:10136000808180688083EA89FB8980818F7D80838A
:10137000DF91CF91FF90EF90DF90CF90BF900895D5
:101380001F920F920FB60F9211242F938F939F935A
:10139000EF93FF93E0919A01F0919B018081E0919E
:1013A000A001F091A10182FD12C090818091A30162
:1013B0008F5F8F732091A401821751F0E091A301F8
:1013C000F0E0E657FE4F958F8093A30101C0808126
:1013D000FF91EF919F918F912F910F900FBE0F90E2
:1013E0001F9018951F920F920FB60F9211242F93F2
:1013F0003F934F935F936F937F938F939F93AF939D
:10140000BF93EF93FF938AE891E00E94B608FF91A3
:10141000EF91BF91AF919F918F917F916F915F916C
:101420004F913F912F910F900FBE0F901F901895E5
:101430008AE891E00E947B0821E0892B09F420E0F2
:10144000822F089510928D0110928C0188EE93E006
:10145000A0E0B0E080938E0190938F01A093900163
:10146000B093910187E291E090938B0180938A0180
:1014700085EC90E0909397018093960184EC90E046
:10148000909399018093980180EC90E090939B0158
:1014900080939A0181EC90E090939D0180939C0150
:1014A00082EC90E090939F0180939E0186EC90E007
:1014B0009093A1018093A0011092A3011092A40126
:1014C0001092A5011092A6010895CF92DF92EF929B
:1014D000FF920F931F93CF93DF937C016A01EB017F
:1014E00000E010E00C151D0571F06991D701ED9138
:1014F000FC910190F081E02DC7010995892B19F02D
:101500000F5F1F4FEFCFC801DF91CF911F910F9158
:10151000FF90EF90DF90CF9008956115710581F0F5
:10152000DB010D900020E9F7AD0141505109461B48
:10153000570BDC01ED91FC910280F381E02D0994C1
:1015400080E090E008950C948D0AFC0180819181E7
:101550000C94610CCF93DF93EC0188819981009703
:1015600011F00E94610C198218821D821C821B825C
:101570001A82DF91CF9108950F931F93CF93DF933A
:10158000EC018B016F5F7F4F888199810E94F90C7C
:10159000009731F0998388831B830A8381E001C01F
:1015A00080E0DF91CF911F910F910895CF93DF934A
:1015B000EC0188819981892B29F08A819B8186178A
:1015C000970760F4CE010E94BC0A882341F08C8109
:1015D0009D81892B19F4E881F981108281E0DF91E6
:1015E000CF910895EF92FF920F931F93CF93DF93C4
:1015F000EC017B018A01BA010E94D60A811104C064
:10160000CE010E94AA0A07C01D830C83B7018881FE
:1016100099810E94CC0DCE01DF91CF911F910F9146
:10162000FF90EF900895FC011182108213821282C4
:10163000158214826115710559F0FB01019000209B
:10164000E9F7AF0141505109461B570B0C94F20AC0
:101650000895CF93DF93EC016115710561F0FB01F3
:1016600001900020E9F7AF0141505109461B570B8B
:101670000E94F20A02C00E94AA0ACE01DF91CF9115
:101680000895EF92FF920F931F93CF93DF93EC0196
:101690007B010C811D816115710511F480E016C07C
:1016A0004115510591F0040F151FB8010E94D60A8B
:1016B0008823A1F3288139818C819D81B701820F14
:1016C000931F0E94CC0D1D830C8381E0DF91CF918D
:1016D0001F910F91FF90EF900895CF93DF9300D06B
:1016E000CDB7DEB769831A8241E050E0BE016F5F7B
:1016F0007F4F0E94410B0F900F90DF91CF91089583
:10170000FC01248135816217730748F4808191813F
:10171000009729F0FC01E60FF71F8081089580E013
:1017200008950C94800B08950E94A8070E94930BC3
:101730000E940505C8EAD8E00E94ED052097E1F374
:101740000E94A808F9CF0895A1E21A2EAA1BBB1B7C
:10175000FD010DC0AA1FBB1FEE1FFF1FA217B3077D
:10176000E407F50720F0A21BB30BE40BF50B661F93
:10177000771F881F991F1A9469F760957095809557
:1017800090959B01AC01BD01CF010895EE0FFF1FA5
:101790000590F491E02D0994CF93DF938230910569
:1017A00010F482E090E0E0912902F0912A0220E01A
:1017B00030E0C0E0D0E0309711F14081518148170E
:1017C0005907C0F04817590761F482819381209727
:1017D00019F09B838A832BC090932A02809329025D
:1017E00026C02115310519F04217530718F49A0144
:1017F000BE01DF01EF010280F381E02DDCCF211576
:10180000310509F1281B390B2430310590F412966B
:101810008D919C9113976115710521F0FB019383C4
:10182000828304C090932A0280932902FD0132969C
:1018300044C0FD01E20FF31F8193919322503109BF
:101840002D933C933AC02091270230912802232BFC
:1018500041F420910201309103013093280220933A
:10186000270220910001309101012115310541F439
:101870002DB73EB74091040150910501241B350B53
:10188000E0912702F0912802E217F307A0F42E1B43
:101890003F0B2817390778F0AC014E5F5F4F2417D4
:1018A000350748F04E0F5F1F5093280240932702E0
:1018B0008193919302C0E0E0F0E0CF01DF91CF91FE
:1018C00008950F931F93CF93DF93009709F48CC073
:1018D000FC013297138212820091290210912A0290
:1018E0000115110581F420813181820F931F209110
:1018F0002702309128022817390779F5F09328023A
:10190000E093270271C0D80140E050E0AE17BF0756
:1019100050F412962D913C911397AD01211531058C
:1019200009F1D901F3CF9D01DA013383228360816C
:101930007181860F971F8217930769F4EC01288144
:101940003981260F371F2E5F3F4F318320838A81D5
:101950009B8193838283452B29F4F0932A02E093A1
:10196000290242C01396FC93EE931297ED01499120
:1019700059919E01240F351FE217F30771F48081FE
:101980009181840F951F029611969C938E9382816C
:10199000938113969C938E931297E0E0F0E0D80128
:1019A00012968D919C911397009719F0F8018C0174
:1019B000F6CF8D919C9198012E5F3F4F820F931F20
:1019C00020912702309128022817390769F43097AF
:1019D00029F410922A021092290202C01382128264
:1019E0001093280200932702DF91CF911F910F914E
:1019F0000895A0E0B0E0EFEFFCE00C94D70DEC010F
:101A0000009721F4CB010E94CC0BB8C0FC01E60F7B
:101A1000F71F9C0122503109E217F30708F4ACC00C
:101A2000D9010D911C91119706171707B0F00530D9
:101A3000110508F49FC0C80104978617970708F49A
:101A400099C002501109061B170B019311936D9356
:101A50007C93CF010E94610C8DC05B01A01AB10A7A
:101A60004C01800E911EA0912902B0912A0240E003
:101A700050E0E12CF12C109709F44AC0A815B905E3
:101A8000D1F56D907C901197630182E0C80ED11C56
:101A9000CA14DB0480F1A3014A195B096A0182E0E0
:101AA000C80ED11C1296BC9012971396AC91B5E05B
:101AB000CB16D10440F0B282A38351834083D90175
:101AC0006D937C930AC00E5F1F4FC301800F911F5F
:101AD000F90191838083EB2DFA2FE114F10431F0A9
:101AE000D7011396FC93EE93129744C0F0932A0209
:101AF000E09329023FC08D919C9111974817590797
:101B000008F4AC017D0112960D90BC91A02DB3CFCD
:101B1000809127029091280288159905E1F44617D3
:101B20005707C8F48091000190910101009741F49A
:101B30008DB79EB74091040150910501841B950B10
:101B4000E817F907C8F4F0932802E0932702F90197
:101B5000718360830FC0CB010E94CC0B7C01009786
:101B600059F0A801BE010E94C30DCE010E94610C74
:101B7000C70104C0CE0102C080E090E0CDB7DEB75F
:101B8000EEE00C94F30DFB01DC0102C001900D921C
:101B900041505040D8F70895FB01DC0101900D92AF
:101BA0000020E1F708952F923F924F925F926F923B
:101BB0007F928F929F92AF92BF92CF92DF92EF92DD
:101BC000FF920F931F93CF93DF93CDB7DEB7CA1B5E
:101BD000DB0B0FB6F894DEBF0FBECDBF09942A8889
:101BE000398848885F846E847D848C849B84AA8431
:101BF000B984C884DF80EE80FD800C811B81AA81BE
:101C0000B981CE0FD11D0FB6F894DEBF0FBECDBF88
:101C1000ED01089510E0CFE5D0E004C0FE010E9480
:0E1C2000C60B2196C036D107C9F7F894FFCF46
:101C2E0000002B022000F40100000000000036042A
:101C3E008A002F0133013A04400231230030230081
:101C4E0024230000000000F908650A7B089408862A
:041C5E0008D708009B
:00000001FF
