:100000000C9460000C94E1080C9408090C9488008E
:100010000C9488000C9488000C9488000C94880040
:100020000C9488000C9488000C9488000C94880030
:100030000C9488000C9488000C9488000C94880020
:100040000C942F090C9488000C94FA0B0C942C0C33
:100050000C9488000C9488000C9488000C94880000
:100060000C9488000C948800000000080002010035
:100070000003040700000000000000000102040863
:100080001020408001020408102001020408102002
:10009000040404040404040402020202020203032E
:1000A0000303030300000000250028002B000000CC
:1000B0000000240027002A0049046C075C0C780724
:1000C00011241FBECFEFD8E0DEBFCDBF11E0A0E00E
:1000D000B1E0E2EFF0E202C005900D92AE34B1075C
:1000E000D9F722E0AEE4B1E001C01D92A835B20715
:1000F000E1F710E0CFE5D0E004C02197FE010E94B7
:10010000280ECC35D107C9F70E94CE0D0C946C1087
:100110000C9400000C9435058EBD00000DB407FE54
:10012000FDCF8EB50895CF93DF93EC0161E08A8116
:100130000E94460A61E08A81DF91CF910C947F0A88
:1001400022E231E0FC01318320832AE022830C94F7
:10015000930022E231E0FC013183208362830C941E
:100160009300CF93DF93EC0160E08A810E947F0AC5
:1001700080EC0E948C0061E08A81DF91CF910C9429
:100180007F0AEF92FF921F93CF93DF931F92CDB719
:10019000DEB77C01162F60E0FC01828149830E945A
:1001A0007F0A82E00E948C00812F0E948C0049818E
:1001B000842F0E948C0061E0F70182810F90DF9113
:1001C000CF911F91FF90EF900C947F0AEF92FF92D6
:1001D0001F93CF93DF9300D0CDB7DEB77C01162FEE
:1001E00060E0FC0182812A8349830E947F0A85E0C6
:1001F0000E948C00812F0E948C004981842F0E94D4
:100200008C002A81822F0E948C0061E0F70182819C
:100210000F900F90DF91CF911F91FF90EF900C9472
:100220007F0A1F93CF93DF93EC0160E08A810E94E5
:100230007F0A80EA0E948C008FEF0E948C00182FAA
:1002400061E08A810E947F0A812FDF91CF911F9107
:1002500008950E941101837008954F925F926F92EA
:100260007F928F929F92AF92BF92DF92EF92FF9216
:100270000F931F93CF93DF93EC014B01CB010E94AF
:10028000110180FD05C081FD05C088858E7FA2C05B
:1002900010E901C014E960E0F40182810E947F0A44
:1002A000812F0E948C008FEF0E948C00D82E8FEF40
:1002B0000E948C00E82E8FEF0E948C00082F8FEF99
:1002C0000E948C00182F8FEF0E948C00F82E282F90
:1002D0002F70922F9295907F8D858F70892B8D87AF
:1002E0003E01F0E16F0E711C412C512CA22EB12C5D
:1002F0004A145B0454F48FEF0E948C00F301819345
:100300003F01FFEF4F1A5F0AF3CF61E0F4018281F2
:100310000E947F0A2E2D30E0C90143E09595879514
:100320004A95E1F7E88580FBE2F9E887FB81E2FF87
:1003300032C04D2D50E060E070E0A5E1440F551F44
:10034000661F771FAA95D1F7502B412B0E2D007EEB
:1003500010E020E030E0BDE0000F111F221F331F2E
:10036000BA95D1F7402B512B622B732B8E2D8370B6
:10037000682B488359836A83872F8F71F07EF82B0F
:10038000FB838F2D90E016E0959587951A95E1F700
:1003900080FBE1F91CC048E0D49EC0011124092E65
:1003A000000CAA0BBB0BE294E69447E0E4228E29F2
:1003B00088839983AA838B2F8F71F07EF82BFB8320
:1003C00054E0359527955A95E1F720FBE1F9E88748
:1003D000888581608887CE01DF91CF911F910F9131
:1003E000FF90EF90DF90BF90AF909F908F907F90A5
:1003F0006F905F904F9008956F927F929F92AF920F
:10040000BF92CF92DF92EF92FF920F931F93CF9301
:10041000DF9300D0CDB7DEB73C018B010E94110104
:1004200082FF09C084FF0CC086FD9CC024E8B22E68
:1004300034E4932E09C081E8B82E90E4992E04C0CC
:10044000A2E8BA2EB2E49B2EF801358532953F70B2
:1004500020859381822F827022FF24C02081C22EAA
:10046000D180E2809F71F92EB701A601E5E1769572
:10047000679557954795EA95D1F7A42EB701A60140
:10048000FDE07695679557954795FA95D1F7407EAB
:100490009E2D9370492B4860ED2CF22E8823C9F0D5
:1004A000306417C0F801408151816281792F7F71DA
:1004B0006A017B0193E0F694E794D794C7949A95E8
:1004C000D1F7AC2C4295440F407E81114061F12C54
:1004D000E12C60E0F30182813A8349830E947F0A24
:1004E000892D0E948C008A2D0E948C004981842FC6
:1004F0000E948C008E2D0E948C008F2D0E948C00FB
:100500003A81832F0E948C006801F0E1CF0ED11C4C
:10051000E12CF12CF801858582958F7090E0E8162A
:10052000F9064CF4F60181916F010E948C00FFEFF7
:10053000EF1AFF0AEFCF61E0F30182810E947F0A88
:1005400060E0F30182810E947F0A8B2D0E948C0063
:1005500061E0F30182810E947F0AF801858582951E
:100560008F7001C080E00F900F90DF91CF911F91AD
:100570000F91FF90EF90DF90CF90BF90AF909F9042
:100580007F906F900895262F40EE6FE00C94E60068
:10059000CF93DF93EC0141E06AE20E94C10048EB97
:1005A00069E2CE010E94C10045E068E2CE01DF9120
:1005B000CF910C94C100CF93DF93EC0120E640E68D
:1005C00060E60E94E60020E640E660E7CE01DF91AB
:1005D000CF910C94E6001F93CF93DF93EC0160E082
:1005E0008A810E947F0A82E00E948C0081E60E943C
:1005F0008C001DE080E00E948C001150D9F761E072
:100600008A810E947F0A60E08A810E947F0A82E0DC
:100610000E948C0081E70E948C001DE080E00E9417
:100620008C001150D9F761E08A81DF91CF911F9141
:100630000C947F0A1F93CF93DF93EC0160E08A81D3
:100640000E947F0A82E00E948C0081E30E948C005D
:100650001DE080E00E948C001150D9F761E08A8192
:100660000E947F0A60E08A810E947F0A82E00E94E5
:100670008C0081E40E948C001DE080E00E948C00D0
:100680001150D9F761E08A810E947F0A60E08A8177
:100690000E947F0A82E00E948C0081E50E948C000B
:1006A0001DE080E00E948C001150D9F761E08A8142
:1006B000DF91CF911F910C947F0ACF93DF93EC01D0
:1006C0000E94EB02CE01DF91CF910C941A031F938D
:1006D000CF93DF93EC01162F60E08A810E947F0A9E
:1006E00082E00E948C008BE20E948C00812F0E948D
:1006F0008C0061E08A81DF91CF911F910C947F0A79
:10070000CF92DF92EF92FF920F931F93CF93DF93DD
:100710001F92CDB7DEB78C016A017B0129830E944D
:10072000FF04C8010E94B100C8010E94EB02C80189
:100730000E941A03C8010E94DB0261E0C8010E9406
:100740006703B701A601C8010E94C8022981622F70
:10075000C8010F90DF91CF911F910F91FF90EF9003
:10076000DF90CF900C94C30220E00C9480030F9391
:100770001F93CF93DF931F92CDB7DEB78C016983B0
:100780000E94A00082E191E0F80191838083698159
:100790006283C8010F90DF91CF911F910F910C944C
:1007A0009300FC0183819481918B808B428B6295B5
:1007B000607F808D8F70682B608F8DB79EB7489754
:1007C0000FB6F8949EBF0FBE8DBFADB7BEB71196E2
:1007D00088E13B9601900D928A95E1F70E94AD0465
:1007E0008DB79EB748960FB6F8949EBF0FBE8DBFCB
:1007F000089541E00C94D103FC018DE18787878146
:10080000838F8085848F8185858F8285868F678F92
:1008100040A366E0CF010C94F903CF93DF93FC0172
:100820008DE187874F5F5F4F518B408B81E0828BDB
:10083000808D8F708068808FDB01EF016B96CF0118
:1008400083962D912993C817D907D9F78DB79EB7ED
:1008500048970FB6F8949EBF0FBE8DBFADB7BEB719
:10086000119688E13B9601900D928A95E1F70E94DE
:10087000AD048DB79EB748960FB6F8949EBF0FBED5
:100880008DBF61E070E080E090E0DF91CF910C944B
:10089000A8096AE089E891E00E94A9006AE08EE474
:1008A00091E00C94B7036AE070E00E94DE0D80E3F3
:1008B000860F08956AE070E00E94DE0D805D089565
:1008C00070E0605F7F4FFA01E60FF71F9C012D5F1C
:1008D0003F4FDC014D91CD014193A217B307C9F7FA
:1008E0000895982F92959F708F702AE0929F800DA7
:1008F00011240895CF92DF92EF92FF92FA012081A6
:1009000030E0A90140535109218130E020533109E1
:10091000D901AA0FBB1F2A0F3B1F240F351F6901E6
:10092000330FEE08FF086C0D7D1D8E1D9F1D9283F9
:10093000838374836583FF90EF90DF90CF90089559
:100940000F931F938C012227332760277127CB0138
:100950008F7793601F910F910895CF93DF93CDB759
:10096000DEB78D8584608D87898590E0A0E0B0E05A
:1009700021E1880F991FAA1FBB1F2A95D1F74A852D
:100980005B8560E070E0842B952BA62BB72B288528
:100990003C85207E332311F0A16002C0AE7FBF7181
:1009A0008D839E83AF838B2F8F71282B2887BE0169
:1009B0006B5F7F4F89E891E00E94FC01DF91CF914E
:1009C0000895CF93DF93EC0169E871E00E942D0157
:1009D00088819981AA812B81B22FBF71AC01BD01A1
:1009E00081E176956795579547958A95D1F74C8320
:1009F0008A2F81708F83CE01DF91CF910895CF939D
:100A0000CFB7F89480918D01811127C0EAE9F0E019
:100A10008491E6E8F0E09491E82FF0E0EE0FFF1FFC
:100A2000E255FF4FA591B491EC91E92321F461E0E7
:100A30008AE00E947F0A61E08AE00E94460A8CB543
:100A400080618CBD8CB580648CBD61E08DE00E94BE
:100A5000460A61E08BE00E94460A80918D018F5F1B
:100A600080938D01CFBFCF9108959FB7F894809167
:100A70008D01882319F0815080938D0180918D0123
:100A8000811105C08CB58F7B8CBD10928C019FBFEE
:100A90000895CF93DF9320E040E950ED63E070E0EC
:100AA0008EE491E00E9480032FEF89E698E12150C7
:100AB00080409040E1F700C00000CEE4D1E080E348
:100AC0008D8389E98E8343E551E060E079E189E037
:100AD00090E50E947A046093920170939301809351
:100AE0009401909395012FEF84E39CE02150804086
:100AF0009040E1F700C000002E818091920190911A
:100B00009301A0919401B0919501BC01CD01620FB8
:100B1000711D811D911D0E94A0049C838B8326E082
:100B200040E05BE460E070E087EB91E00E94980BAE
:100B300060E371E087EA91E00E94630D10929701F3
:100B400010929601DF91CF910895809175018335C0
:100B5000F1F480917801882381F190918201809154
:100B60009F0198132AC09091830180919E01981350
:100B700024C080918101813019F0833021F00895E3
:100B800080939D01089581E080939C0108958135B3
:100B9000A1F480917801882381F0809181018430D3
:100BA00019F0853021F008956EE271E002C061E332
:100BB00071E087EB91E00C94DD0C0895CF93DF9307
:100BC000CDB7DEB768970FB6F894DEBF0FBECDBFC6
:100BD000CE0101960E94E10488E1FE013196A1E771
:100BE000B1E001900D928A95E1F780917801811131
:100BF0004BC080917501883139F08D3109F044C0C6
:100C000020E030E081E02FC080935D0180915501AC
:100C1000809369018091560180936A018091570108
:100C200080936B018091580180936C0110926D014B
:100C300083E080936E0110926F0181E580937001D3
:100C400068E08EE491E00E94F9031EC081E0F901A2
:100C5000E25BFE4F478193A9491380E02F5F3F4F2E
:100C60002430310519F08823C9F3F0CF80938E0129
:100C7000882351F081E080938F018091850190E07D
:100C8000909391018093900168960FB6F894DEBF1F
:100C90000FBECDBFDF91CF910C94A50582E5809367
:100CA0005D018091A0018093690190919F019093D3
:100CB0006A0190919E0190936B01823071F08330B4
:100CC000F9F0811123C049E551E063E08AE391E046
:100CD0000E94600440E066E015C063E070E087EACF
:100CE00091E00E94CB0D80936C0164E070E087EA94
:100CF00091E00E94CB0D80936D0140E065E002C061
:100D000040E063E08EE491E00C94D103089590ED0F
:100D1000980F9A3070F09FEB980F963010F499EC82
:100D200005C09FE9980F963018F499EA980F01C012
:100D3000982F892F08956F927F928F929F92AF92F2
:100D4000BF92CF92DF92EF92FF920F931F93CF93B8
:100D5000DF93CDB7DEB7AB970FB6F894DEBF0FBE0B
:100D6000CDBF7C0184E089A785E08AA78BA788E2B4
:100D7000D82E8E010F5F1F4FF8018D2D11928A958D
:100D8000E9F783E4898B81E48A8B8EE48B8B87E699
:100D90008C8B85E78D8B92E79E8B8F8B80E2888F83
:100DA00087E4898F81E68A8F94E79B8F95E69C8FF5
:100DB00097E79D8F8E8F89E78F8F9091540180EDFB
:100DC000890F90915301990F9056292F220F220FCE
:100DD000920F980F9887809155010E94710490E0BE
:100DE0000E9453048987809155010E94710490E00C
:100DF0000E945A048A87809156010E94710490E0F3
:100E00000E9453048B87809156010E94710490E0E8
:100E10000E945A048C87809157010E94710490E0CF
:100E20000E9453048D87809157010E94710490E0C5
:100E30000E945A048E87809158010E94710490E0AC
:100E40000E9453048F87809158010E94710490E0A2
:100E50000E945A04888BDE9C3001DF9C700C1124A8
:100E6000812C912CC12CD12C99E2A92EB12CAC0E45
:100E7000BD1EAE0CBF1CF501408150E0C416D50666
:100E80008CF4B401660D771D600F711FA6018EE40E
:100E900091E00E940D04EFEFCE1ADE0AF8E08F0E0B
:100EA000911CE9CFB7018EE491E00E94FC03AB9660
:100EB0000FB6F894DEBF0FBECDBFDF91CF911F916B
:100EC0000F91FF90EF90DF90CF90BF90AF909F90E9
:100ED0008F907F906F90089560E371E087EA91E0D2
:100EE0000E944D0D60E371E081EA91E00C944D0D9C
:100EF00081EA91E00E94DF0C87EA91E00C94DF0C1C
:100F000087EB91E00E94B50A892BD1F387EB91E042
:100F10000E94CE0A08950F931F93CF93DF93809181
:100F20008F01882341F010928F0180919001909160
:100F300091010E949B0680919601909197018330C8
:100F400091053CF4813091050CF0D2C0892B29F039
:100F500020C1039709F4F7C01CC187EB91E00E9400
:100F6000B50A181619060CF014C187EB91E00E941F
:100F7000CE0A8093AD01833231F0682F87EA91E089
:100F80000E94A70D06C160E070E087EA91E00E9430
:100F9000CB0D8D3309F448C008F5813229F1853233
:100FA00009F0F7C083E08093A00161E070E087EA78
:100FB00091E00E94CB0D80939F0162E070E087EA90
:100FC00091E00E94CB0D80939E010E944E0683E02B
:100FD00090E0909397018093960170C08F3359F001
:100FE000843609F453C0D5C06EE271E087EB91E01E
:100FF0000E94DD0C63C010929D011092A00161E07F
:1010000070E087EA91E00E94CB0D80939F0162E03F
:1010100070E087EA91E00E94CB0D80939E010E94D0
:101020004E0681E090E019C010929D0182E080930D
:10103000A00161E070E087EA91E00E94CB0D80930F
:101040009F0162E070E087EA91E00E94CB0D8093FF
:101050009E010E944E0682E090E09093970180935B
:10106000960187EB91E00E94110B60E371E087EA43
:1010700091E00E94630D0E9479096093980170933A
:10108000990180939A0190939B0183C081E580939D
:101090005D010E9480070E948706C82F811119C038
:1010A00086E08093690161E06C0F40E08EE491E09E
:1010B0000E94D103109297011092960187EB91E064
:1010C0000E94110B60E371E087EA91E00E94630DDA
:1010D00060C085E080936901D1E0CD1720F30E94C4
:1010E0008007ED2FF0E0E25BFE4F838FDF5FF5CFEF
:1010F00080919D01882319F064E371E01FC00E9474
:101100007909009198011091990120919A013091EB
:101110009B01DC01CB01801B910BA20BB30B009157
:10112000060110910701209108013091090108176B
:1011300019072A073B0768F567E371E087EB91E041
:101140000E94DD0C04C080919C01882329F010923C
:101150009701109296011DC00E9479090091980193
:101160001091990120919A0130919B01DC01CB01F2
:10117000801B910BA20BB30B00910601109107018C
:101180002091080130910901081719072A073B0728
:10119000F0F262E370E080E090E00E94A8098EE443
:1011A00091E00E942901882331F0DF91CF911F91B6
:1011B0000F910C94DE05DF91CF911F910F9108954F
:1011C00008951F920F920FB60F9211242F933F9301
:1011D0004F935F936F937F938F939F93AF93BF933F
:1011E000EF93FF93E0910A01F0910B010995FF91B4
:1011F000EF91BF91AF919F918F917F916F915F918F
:101200004F913F912F910F900FBE0F901F90189507
:101210001F920F920FB60F9211242F933F934F936B
:101220005F936F937F938F939F93AF93BF93EF934E
:10123000FF93E0910C01F0910D010995FF91EF9161
:10124000BF91AF919F918F917F916F915F914F91DE
:101250003F912F910F900FBE0F901F9018951F92E6
:101260000F920FB60F9211242F933F938F939F935A
:10127000AF93BF938091AF019091B001A091B10164
:10128000B091B2013091AE0123E0230F2D3720F44D
:101290000196A11DB11D05C026E8230F0296A11DD0
:1012A000B11D2093AE018093AF019093B001A09344
:1012B000B101B093B2018091B3019091B401A091BA
:1012C000B501B091B6010196A11DB11D8093B30186
:1012D0009093B401A093B501B093B601BF91AF91C3
:1012E0009F918F913F912F910F900FBE0F901F9064
:1012F00018952FB7F8946091AF017091B00180916B
:10130000B1019091B2012FBF08953FB7F894809139
:10131000B3019091B401A091B501B091B60126B589
:10132000A89B05C02F3F19F00196A11DB11D3FBF1D
:101330006627782F892F9A2F620F711D811D911DAD
:1013400042E0660F771F881F991F4A95D1F70895CD
:101350008F929F92AF92BF92CF92DF92EF92FF92C5
:101360006B017C010E9485094B015C01C114D10411
:10137000E104F104F1F00E94DD0D0E948509681975
:1013800079098A099B09683E73408105910570F3CC
:1013900021E0C21AD108E108F10888EE880E83E046
:1013A000981EA11CB11CC114D104E104F10429F759
:1013B000DDCFFF90EF90DF90CF90BF90AF909F90E8
:1013C0008F900895789484B5826084BD84B58160DF
:1013D00084BD85B5826085BD85B5816085BDEEE63D
:1013E000F0E0808181608083E1E8F0E0108280811C
:1013F00082608083808181608083E0E8F0E080818A
:1014000081608083E1EBF0E0808184608083E0EBA9
:10141000F0E0808181608083EAE7F0E08081846091
:1014200080838081826080838081816080838081ED
:10143000806880831092C1000895833081F028F481
:10144000813099F08230A1F008958730A9F088307A
:10145000B9F08430D1F4809180008F7D03C08091F9
:1014600080008F7780938000089584B58F7702C0C5
:1014700084B58F7D84BD08958091B0008F7703C0BF
:101480008091B0008F7D8093B0000895CF93DF935B
:1014900090E0FC01E458FF4F2491FC01E057FF4F1E
:1014A0008491882349F190E0880F991FFC01E2554F
:1014B000FF4FA591B4918C559F4FFC01C591D491DC
:1014C0009FB7611108C0F8948C91209582238C936A
:1014D000888182230AC0623051F4F8948C91322FB3
:1014E000309583238C938881822B888304C0F89461
:1014F0008C91822B8C939FBFDF91CF9108950F9396
:101500001F93CF93DF931F92CDB7DEB7282F30E024
:10151000F901E859FF4F8491F901E458FF4F149104
:10152000F901E057FF4F04910023C9F0882321F00F
:1015300069830E941D0A6981E02FF0E0EE0FFF1F12
:10154000EC55FF4FA591B4919FB7F8948C91611120
:1015500003C01095812301C0812B8C939FBF0F90F6
:10156000DF91CF911F910F910895FC01818D228D04
:1015700090E0805C9F4F821B91098F73992708959B
:10158000FC01918D828D981731F0828DE80FF11D4D
:10159000858D90E008958FEF9FEF0895FC01918D68
:1015A000828D981761F0828DDF01A80FB11D5D96C5
:1015B0008C91928D9F5F9F73928F90E008958FEF33
:1015C0009FEF089582E59CE0892B49F080E090E050
:1015D000892B29F00E94520C81110C94000008956F
:1015E000FC01848DDF01A80FB11DA35ABF4F2C91C0
:1015F000848D90E001968F739927848FA689B7898F
:101600002C93A089B1898C9180648C93938D848D67
:10161000981306C00288F389E02D80818F7D808336
:101620000895CF93DF93EC01888D8823C9F0EA8970
:10163000FB89808185FD05C0A889B9898C9186FDCB
:101640000FC00FB607FCF5CF808185FFF2CFA889C8
:10165000B9898C9185FFEDCFCE010E94F00AE7CFCA
:10166000DF91CF910895CF92DF92FF920F931F9356
:10167000CF93DF931F92CDB7DEB76C0181E0D60127
:1016800058968C9358975B969C915B975C968C913F
:101690005C97981307C05096ED91FC91519780810B
:1016A00085FD2EC0F601038D10E00F5F1F4F0F73F5
:1016B0001127F02EF601848DF81211C00FB607FC29
:1016C000F9CFD6015096ED91FC915197808185FF1D
:1016D000F1CFC60169830E94F00A6981EBCF838D47
:1016E000E80FF11DE35AFF4F6083D6015B960C9320
:1016F0005B975296ED91FC915397808180620CC06C
:10170000D6015696ED91FC91579760835096ED91D6
:10171000FC91519780818064808381E090E00F90FC
:10172000DF91CF911F910F91FF90DF90CF9008959F
:10173000BF92CF92DF92EF92FF92CF93DF93EC01B3
:101740006A017B01B22EE889F98982E08083411524
:1017500081EE580761057105A1F060E079E08DE345
:1017600090E0A70196010E94F20D21503109410934
:1017700051095695479537952795211580E13807EA
:1017800098F0E889F989108260E874E88EE190E0C9
:10179000A70196010E94F20D21503109410951091A
:1017A0005695479537952795EC85FD853083EE85D1
:1017B000FF852083188EEC89FD89B082EA89FB8938
:1017C000808180618083EA89FB8980818860808351
:1017D000EA89FB89808180688083EA89FB8980812E
:1017E0008F7D8083DF91CF91FF90EF90DF90CF903E
:1017F000BF9008951F920F920FB60F9211242F934E
:101800008F939F93EF93FF93E091C701F091C801ED
:101810008081E091CD01F091CE0182FD12C09081D6
:101820008091D0018F5F8F732091D101821751F089
:10183000E091D001F0E0E954FE4F958F8093D00104
:1018400001C08081FF91EF919F918F912F910F9017
:101850000FBE0F901F9018951F920F920FB60F9208
:1018600011242F933F934F935F936F937F938F93A5
:101870009F93AF93BF93EF93FF9387EB91E00E9409
:10188000F00AFF91EF91BF91AF919F918F917F915E
:101890006F915F914F913F912F910F900FBE0F90DD
:1018A0001F90189587EB91E00E94B50A21E0892BE3
:1018B00009F420E0822F08951092BA011092B90124
:1018C00088EE93E0A0E0B0E08093BB019093BC0170
:1018D000A093BD01B093BE0181E491E09093B80163
:1018E0008093B70185EC90E09093C4018093C3018D
:1018F00084EC90E09093C6018093C50180EC90E069
:101900009093C8018093C70181EC90E09093CA0145
:101910008093C90182EC90E09093CC018093CB013D
:1019200086EC90E09093CE018093CD011092D0018F
:101930001092D1011092D2011092D3010895CF924A
:10194000DF92EF92FF920F931F93CF93DF937C016F
:101950006A01EB0100E010E00C151D0571F06991C2
:10196000D701ED91FC910190F081E02DC70109951F
:10197000892B19F00F5F1F4FEFCFC801DF91CF9177
:101980001F910F91FF90EF90DF90CF900895611518
:10199000710581F0DB010D900020E9F7AD014150A8
:1019A0005109461B570BDC01ED91FC910280F3813C
:1019B000E02D099480E090E008950C94C70CFC01A0
:1019C000808191810C94C30ECF93DF93EC018881C9
:1019D0009981009711F00E94C30E198218821D820E
:1019E0001C821B821A82DF91CF9108950F931F935F
:1019F000CF93DF93EC018B016F5F7F4F88819981DB
:101A00000E945B0F009731F0998388831B830A83C0
:101A100081E001C080E0DF91CF911F910F91089587
:101A2000CF93DF93EC0188819981892B29F08A81FA
:101A30009B818617970760F4CE010E94F60C8823DD
:101A400041F08C819D81892B19F4E881F981108204
:101A500081E0DF91CF910895EF92FF920F931F9352
:101A6000CF93DF93EC017B018A01BA010E94100D34
:101A7000811104C0CE010E94E40C07C01D830C83B9
:101A8000B701888199810E942E10CE01DF91CF91FC
:101A90001F910F91FF90EF900895FC011182108229
:101AA00013821282158214826115710559F0FB01AF
:101AB00001900020E9F7AF0141505109461B570B37
:101AC0000C942C0D0895CF93DF93EC0161157105F3
:101AD00061F0FB0101900020E9F7AF01415051098D
:101AE000461B570B0E942C0D02C00E94E40CCE0135
:101AF000DF91CF910895EF92FF920F931F93CF93B1
:101B0000DF93EC017B010C811D816115710511F4DE
:101B100080E016C04115510591F0040F151FB80162
:101B20000E94100D8823A1F3288139818C819D8129
:101B3000B701820F931F0E942E101D830C8381E03A
:101B4000DF91CF911F910F91FF90EF900895CF9368
:101B5000DF9300D0CDB7DEB769831A8241E050E051
:101B6000BE016F5F7F4F0E947B0D0F900F90DF9142
:101B7000CF910895FC01248135816217730748F4E1
:101B800080819181009729F0FC01E60FF71F808189
:101B9000089580E008950C94BA0D08950E94E2091A
:101BA0000E94CD0D0E944905C2EEDAE00E948B072B
:101BB0002097E1F30E94E20AF9CF089597FB072EE0
:101BC00016F4009407D077FD09D00E94140E07FC8C
:101BD00005D03EF4909581959F4F0895709561953D
:101BE0007F4F0895A1E21A2EAA1BBB1BFD010DC059
:101BF000AA1FBB1FEE1FFF1FA217B307E407F507BD
:101C000020F0A21BB30BE40BF50B661F771F881F98
:101C1000991F1A9469F760957095809590959B012E
:101C2000AC01BD01CF010895AA1BBB1B51E107C048
:101C3000AA1FBB1FA617B70710F0A61BB70B881F5C
:101C4000991F5A95A9F780959095BC01CD010895EB
:101C5000EE0FFF1F0590F491E02D0994CF93DF93D1
:101C60008230910510F482E090E0E0915602F0910C
:101C7000570220E030E0C0E0D0E0309711F1408121
:101C8000518148175907C0F04817590761F48281FC
:101C90009381209719F09B838A832BC090935702DE
:101CA0008093560226C02115310519F042175307BB
:101CB00018F49A01BE01DF01EF010280F381E02DEB
:101CC000DCCF2115310509F1281B390B24303105F2
:101CD00090F412968D919C9113976115710521F0E6
:101CE000FB019383828304C0909357028093560232
:101CF000FD01329644C0FD01E20FF31F81939193E1
:101D0000225031092D933C933AC0209154023091D6
:101D10005502232B41F420910201309103013093AD
:101D200055022093540220910001309101012115A8
:101D3000310541F42DB73EB74091040150910501A2
:101D4000241B350BE0915402F0915502E217F30782
:101D5000A0F42E1B3F0B2817390778F0AC014E5F1B
:101D60005F4F2417350748F04E0F5F1F5093550201
:101D7000409354028193919302C0E0E0F0E0CF01E0
:101D8000DF91CF9108950F931F93CF93DF93009727
:101D900009F48CC0FC013297138212820091560222
:101DA000109157020115110581F420813181820FB4
:101DB000931F20915402309155022817390779F565
:101DC000F0935502E093540271C0D80140E050E016
:101DD000AE17BF0750F412962D913C911397AD01A9
:101DE0002115310509F1D901F3CF9D01DA013383C2
:101DF000228360817181860F971F8217930769F490
:101E0000EC0128813981260F371F2E5F3F4F318328
:101E100020838A819B8193838283452B29F4F093CD
:101E20005702E093560242C01396FC93EE9312972A
:101E3000ED01499159919E01240F351FE217F307D7
:101E400071F480819181840F951F029611969C9365
:101E50008E938281938113969C938E931297E0E0E8
:101E6000F0E0D80112968D919C911397009719F08C
:101E7000F8018C01F6CF8D919C9198012E5F3F4F18
:101E8000820F931F20915402309155022817390771
:101E900069F4309729F4109257021092560202C04A
:101EA000138212821093550200935402DF91CF9156
:101EB0001F910F910895A0E0B0E0E1E6FFE00C94DF
:101EC0003910EC01009721F4CB010E942E0EB8C00E
:101ED000FC01E60FF71F9C0122503109E217F307BE
:101EE00008F4ACC0D9010D911C9111970617170782
:101EF000B0F00530110508F49FC0C801049786179B
:101F0000970708F499C002501109061B170B01939B
:101F100011936D937C93CF010E94C30E8DC05B0122
:101F2000A01AB10A4C01800E911EA0915602B091E8
:101F3000570240E050E0E12CF12C109709F44AC020
:101F4000A815B905D1F56D907C901197630182E0D9
:101F5000C80ED11CCA14DB0480F1A3014A195B0925
:101F60006A0182E0C80ED11C1296BC90129713969B
:101F7000AC91B5E0CB16D10440F0B282A38351837B
:101F80004083D9016D937C930AC00E5F1F4FC3013C
:101F9000800F911FF90191838083EB2DFA2FE114BB
:101FA000F10431F0D7011396FC93EE93129744C0DD
:101FB000F0935702E09356023FC08D919C91119788
:101FC0004817590708F4AC017D0112960D90BC9199
:101FD000A02DB3CF80915402909155028815990598
:101FE000E1F446175707C8F4809100019091010170
:101FF000009741F48DB79EB74091040150910501BF
:10200000841B950BE817F907C8F4F0935502E09389
:102010005402F901718360830FC0CB010E942E0E20
:102020007C01009759F0A801BE010E942510CE0145
:102030000E94C30EC70104C0CE0102C080E090E040
:10204000CDB7DEB7EEE00C945510FB01DC0102C009
:1020500001900D9241505040D8F70895FB01DC01EA
:1020600001900D920020E1F708952F923F924F9238
:102070005F926F927F928F929F92AF92BF92CF9218
:10208000DF92EF92FF920F931F93CF93DF93CDB721
:10209000DEB7CA1BDB0B0FB6F894DEBF0FBECDBF99
:1020A00009942A88398848885F846E847D848C846A
:1020B0009B84AA84B984C884DF80EE80FD800C8173
:1020C0001B81AA81B981CE0FD11D0FB6F894DEBF56
:1020D0000FBECDBFED01089510E0CFE5D0E004C004
:1020E000FE010E94280E2196C036D107C9F7F89448
:0220F000FFCF20
:1020F200000058022000F4010000E008E00800009F
:102102000000B4038A0029012D015D03FC010000D7
:102112000000B4038A0029012D015D03FC01242380
:10212200002F2300312300302300753263000000AA
:0E21320000330B9F0CB50ACE0AC00A110B0039
:00000001FF
